{"abi":[{"type":"constructor","inputs":[],"stateMutability":"nonpayable"},{"type":"function","name":"BURNER_ROLE","inputs":[],"outputs":[{"name":"","type":"bytes32","internalType":"bytes32"}],"stateMutability":"view"},{"type":"function","name":"DEFAULT_ADMIN_ROLE","inputs":[],"outputs":[{"name":"","type":"bytes32","internalType":"bytes32"}],"stateMutability":"view"},{"type":"function","name":"MINTER_ROLE","inputs":[],"outputs":[{"name":"","type":"bytes32","internalType":"bytes32"}],"stateMutability":"view"},{"type":"function","name":"UPGRADE_INTERFACE_VERSION","inputs":[],"outputs":[{"name":"","type":"string","internalType":"string"}],"stateMutability":"view"},{"type":"function","name":"URI_MANAGER_ROLE","inputs":[],"outputs":[{"name":"","type":"bytes32","internalType":"bytes32"}],"stateMutability":"view"},{"type":"function","name":"balanceOf","inputs":[{"name":"account","type":"address","internalType":"address"},{"name":"id","type":"uint256","internalType":"uint256"}],"outputs":[{"name":"","type":"uint256","internalType":"uint256"}],"stateMutability":"view"},{"type":"function","name":"balanceOfBatch","inputs":[{"name":"accounts","type":"address[]","internalType":"address[]"},{"name":"ids","type":"uint256[]","internalType":"uint256[]"}],"outputs":[{"name":"","type":"uint256[]","internalType":"uint256[]"}],"stateMutability":"view"},{"type":"function","name":"burn","inputs":[{"name":"from","type":"address","internalType":"address"},{"name":"id","type":"uint256","internalType":"uint256"},{"name":"amount","type":"uint256","internalType":"uint256"}],"outputs":[],"stateMutability":"nonpayable"},{"type":"function","name":"burnBatch","inputs":[{"name":"from","type":"address","internalType":"address"},{"name":"ids","type":"uint256[]","internalType":"uint256[]"},{"name":"amounts","type":"uint256[]","internalType":"uint256[]"}],"outputs":[],"stateMutability":"nonpayable"},{"type":"function","name":"exists","inputs":[{"name":"id","type":"uint256","internalType":"uint256"}],"outputs":[{"name":"","type":"bool","internalType":"bool"}],"stateMutability":"view"},{"type":"function","name":"getRoleAdmin","inputs":[{"name":"role","type":"bytes32","internalType":"bytes32"}],"outputs":[{"name":"","type":"bytes32","internalType":"bytes32"}],"stateMutability":"view"},{"type":"function","name":"grantRole","inputs":[{"name":"role","type":"bytes32","internalType":"bytes32"},{"name":"account","type":"address","internalType":"address"}],"outputs":[],"stateMutability":"nonpayable"},{"type":"function","name":"hasRole","inputs":[{"name":"role","type":"bytes32","internalType":"bytes32"},{"name":"account","type":"address","internalType":"address"}],"outputs":[{"name":"","type":"bool","internalType":"bool"}],"stateMutability":"view"},{"type":"function","name":"initialize","inputs":[{"name":"admin","type":"address","internalType":"address"},{"name":"baseUri","type":"string","internalType":"string"}],"outputs":[],"stateMutability":"nonpayable"},{"type":"function","name":"isApprovedForAll","inputs":[{"name":"account","type":"address","internalType":"address"},{"name":"operator","type":"address","internalType":"address"}],"outputs":[{"name":"","type":"bool","internalType":"bool"}],"stateMutability":"view"},{"type":"function","name":"mint","inputs":[{"name":"to","type":"address","internalType":"address"},{"name":"id","type":"uint256","internalType":"uint256"},{"name":"amount","type":"uint256","internalType":"uint256"},{"name":"data","type":"bytes","internalType":"bytes"}],"outputs":[],"stateMutability":"nonpayable"},{"type":"function","name":"mintBatch","inputs":[{"name":"to","type":"address","internalType":"address"},{"name":"ids","type":"uint256[]","internalType":"uint256[]"},{"name":"amounts","type":"uint256[]","internalType":"uint256[]"},{"name":"data","type":"bytes","internalType":"bytes"}],"outputs":[],"stateMutability":"nonpayable"},{"type":"function","name":"pause","inputs":[],"outputs":[],"stateMutability":"nonpayable"},{"type":"function","name":"paused","inputs":[],"outputs":[{"name":"","type":"bool","internalType":"bool"}],"stateMutability":"view"},{"type":"function","name":"proxiableUUID","inputs":[],"outputs":[{"name":"","type":"bytes32","internalType":"bytes32"}],"stateMutability":"view"},{"type":"function","name":"renounceRole","inputs":[{"name":"role","type":"bytes32","internalType":"bytes32"},{"name":"callerConfirmation","type":"address","internalType":"address"}],"outputs":[],"stateMutability":"nonpayable"},{"type":"function","name":"revokeRole","inputs":[{"name":"role","type":"bytes32","internalType":"bytes32"},{"name":"account","type":"address","internalType":"address"}],"outputs":[],"stateMutability":"nonpayable"},{"type":"function","name":"safeBatchTransferFrom","inputs":[{"name":"from","type":"address","internalType":"address"},{"name":"to","type":"address","internalType":"address"},{"name":"ids","type":"uint256[]","internalType":"uint256[]"},{"name":"values","type":"uint256[]","internalType":"uint256[]"},{"name":"data","type":"bytes","internalType":"bytes"}],"outputs":[],"stateMutability":"nonpayable"},{"type":"function","name":"safeTransferFrom","inputs":[{"name":"from","type":"address","internalType":"address"},{"name":"to","type":"address","internalType":"address"},{"name":"id","type":"uint256","internalType":"uint256"},{"name":"value","type":"uint256","internalType":"uint256"},{"name":"data","type":"bytes","internalType":"bytes"}],"outputs":[],"stateMutability":"nonpayable"},{"type":"function","name":"setApprovalForAll","inputs":[{"name":"operator","type":"address","internalType":"address"},{"name":"approved","type":"bool","internalType":"bool"}],"outputs":[],"stateMutability":"nonpayable"},{"type":"function","name":"setURI","inputs":[{"name":"newUri","type":"string","internalType":"string"}],"outputs":[],"stateMutability":"nonpayable"},{"type":"function","name":"supportsInterface","inputs":[{"name":"interfaceId","type":"bytes4","internalType":"bytes4"}],"outputs":[{"name":"","type":"bool","internalType":"bool"}],"stateMutability":"view"},{"type":"function","name":"totalSupply","inputs":[],"outputs":[{"name":"","type":"uint256","internalType":"uint256"}],"stateMutability":"view"},{"type":"function","name":"totalSupply","inputs":[{"name":"id","type":"uint256","internalType":"uint256"}],"outputs":[{"name":"","type":"uint256","internalType":"uint256"}],"stateMutability":"view"},{"type":"function","name":"unpause","inputs":[],"outputs":[],"stateMutability":"nonpayable"},{"type":"function","name":"upgradeToAndCall","inputs":[{"name":"newImplementation","type":"address","internalType":"address"},{"name":"data","type":"bytes","internalType":"bytes"}],"outputs":[],"stateMutability":"payable"},{"type":"function","name":"uri","inputs":[{"name":"","type":"uint256","internalType":"uint256"}],"outputs":[{"name":"","type":"string","internalType":"string"}],"stateMutability":"view"},{"type":"event","name":"ApprovalForAll","inputs":[{"name":"account","type":"address","indexed":true,"internalType":"address"},{"name":"operator","type":"address","indexed":true,"internalType":"address"},{"name":"approved","type":"bool","indexed":false,"internalType":"bool"}],"anonymous":false},{"type":"event","name":"Initialized","inputs":[{"name":"version","type":"uint64","indexed":false,"internalType":"uint64"}],"anonymous":false},{"type":"event","name":"Paused","inputs":[{"name":"account","type":"address","indexed":false,"internalType":"address"}],"anonymous":false},{"type":"event","name":"RoleAdminChanged","inputs":[{"name":"role","type":"bytes32","indexed":true,"internalType":"bytes32"},{"name":"previousAdminRole","type":"bytes32","indexed":true,"internalType":"bytes32"},{"name":"newAdminRole","type":"bytes32","indexed":true,"internalType":"bytes32"}],"anonymous":false},{"type":"event","name":"RoleGranted","inputs":[{"name":"role","type":"bytes32","indexed":true,"internalType":"bytes32"},{"name":"account","type":"address","indexed":true,"internalType":"address"},{"name":"sender","type":"address","indexed":true,"internalType":"address"}],"anonymous":false},{"type":"event","name":"RoleRevoked","inputs":[{"name":"role","type":"bytes32","indexed":true,"internalType":"bytes32"},{"name":"account","type":"address","indexed":true,"internalType":"address"},{"name":"sender","type":"address","indexed":true,"internalType":"address"}],"anonymous":false},{"type":"event","name":"TransferBatch","inputs":[{"name":"operator","type":"address","indexed":true,"internalType":"address"},{"name":"from","type":"address","indexed":true,"internalType":"address"},{"name":"to","type":"address","indexed":true,"internalType":"address"},{"name":"ids","type":"uint256[]","indexed":false,"internalType":"uint256[]"},{"name":"values","type":"uint256[]","indexed":false,"internalType":"uint256[]"}],"anonymous":false},{"type":"event","name":"TransferSingle","inputs":[{"name":"operator","type":"address","indexed":true,"internalType":"address"},{"name":"from","type":"address","indexed":true,"internalType":"address"},{"name":"to","type":"address","indexed":true,"internalType":"address"},{"name":"id","type":"uint256","indexed":false,"internalType":"uint256"},{"name":"value","type":"uint256","indexed":false,"internalType":"uint256"}],"anonymous":false},{"type":"event","name":"URI","inputs":[{"name":"value","type":"string","indexed":false,"internalType":"string"},{"name":"id","type":"uint256","indexed":true,"internalType":"uint256"}],"anonymous":false},{"type":"event","name":"Unpaused","inputs":[{"name":"account","type":"address","indexed":false,"internalType":"address"}],"anonymous":false},{"type":"event","name":"Upgraded","inputs":[{"name":"implementation","type":"address","indexed":true,"internalType":"address"}],"anonymous":false},{"type":"error","name":"AccessControlBadConfirmation","inputs":[]},{"type":"error","name":"AccessControlUnauthorizedAccount","inputs":[{"name":"account","type":"address","internalType":"address"},{"name":"neededRole","type":"bytes32","internalType":"bytes32"}]},{"type":"error","name":"AddressEmptyCode","inputs":[{"name":"target","type":"address","internalType":"address"}]},{"type":"error","name":"ERC1155InsufficientBalance","inputs":[{"name":"sender","type":"address","internalType":"address"},{"name":"balance","type":"uint256","internalType":"uint256"},{"name":"needed","type":"uint256","internalType":"uint256"},{"name":"tokenId","type":"uint256","internalType":"uint256"}]},{"type":"error","name":"ERC1155InvalidApprover","inputs":[{"name":"approver","type":"address","internalType":"address"}]},{"type":"error","name":"ERC1155InvalidArrayLength","inputs":[{"name":"idsLength","type":"uint256","internalType":"uint256"},{"name":"valuesLength","type":"uint256","internalType":"uint256"}]},{"type":"error","name":"ERC1155InvalidOperator","inputs":[{"name":"operator","type":"address","internalType":"address"}]},{"type":"error","name":"ERC1155InvalidReceiver","inputs":[{"name":"receiver","type":"address","internalType":"address"}]},{"type":"error","name":"ERC1155InvalidSender","inputs":[{"name":"sender","type":"address","internalType":"address"}]},{"type":"error","name":"ERC1155MissingApprovalForAll","inputs":[{"name":"operator","type":"address","internalType":"address"},{"name":"owner","type":"address","internalType":"address"}]},{"type":"error","name":"ERC1967InvalidImplementation","inputs":[{"name":"implementation","type":"address","internalType":"address"}]},{"type":"error","name":"ERC1967NonPayable","inputs":[]},{"type":"error","name":"EnforcedPause","inputs":[]},{"type":"error","name":"ExpectedPause","inputs":[]},{"type":"error","name":"FailedCall","inputs":[]},{"type":"error","name":"InvalidInitialization","inputs":[]},{"type":"error","name":"InvalidValue","inputs":[]},{"type":"error","name":"LengthMismatch","inputs":[]},{"type":"error","name":"NotInitializing","inputs":[]},{"type":"error","name":"UUPSUnauthorizedCallContext","inputs":[]},{"type":"error","name":"UUPSUnsupportedProxiableUUID","inputs":[{"name":"slot","type":"bytes32","internalType":"bytes32"}]},{"type":"error","name":"ZeroAddress","inputs":[]}],"bytecode":{"object":"0x60a080604052346100cc57306080527ff0c57e16840df040f15088dc2f81fe391c3923bec73e23a9662efc9c229c6a009081549060ff8260401c166100bd57506001600160401b036002600160401b031982821601610078575b604051612b2f90816100d18239608051818181610c1e0152610d930152f35b6001600160401b031990911681179091556040519081527fc7f505b2f371ae2175ee4913f4499e1f2633a7b5936321eed1cdaeb6115181d290602090a15f8080610059565b63f92ee8a960e01b8152600490fd5b5f80fdfe60806040526004361015610011575f80fd5b5f3560e01c8062fdd58e1461021357806301ffc9a71461020e57806302fe5305146102095780630e89341c1461020457806318160ddd146101ff5780631f7fdffa146101fa578063248a9ca3146101f5578063282c51f3146101f05780632eb2c2d6146101eb5780632f2ff15d146101e657806336568abe146101e15780633f4ba83a146101dc5780634e1273f4146101d75780634f1ef286146101d25780634f558e79146101cd57806352d1902d146101c85780635c975abb146101c3578063682d07d9146101be5780636b20c454146101b9578063731133e9146101b45780638456cb59146101af57806391d14854146101aa578063a217fddf146101a5578063a22cb465146101a0578063ad3cb1cc1461019b578063bd85b03914610196578063d539139314610191578063d547741f1461018c578063e985e9c514610187578063f242432a14610182578063f399e22e1461017d5763f5298aca14610178575f80fd5b6114d9565b611392565b611283565b611252565b611209565b6111cf565b611186565b61112f565b611099565b61107f565b611025565b610fc0565b610f01565b610e40565b610e06565b610dd8565b610d81565b610d36565b610bdf565b610b25565b610a6c565b610a25565b6109dc565b6108af565b610734565b6106fb565b6105d6565b61057d565b610498565b61038b565b6102d6565b61025c565b600435906001600160a01b038216820361022e57565b5f80fd5b602435906001600160a01b038216820361022e57565b35906001600160a01b038216820361022e57565b3461022e57604036600319011261022e5760206102bb61027a610218565b6024355f527f88be536d5240c274a3b1d3a1be54482fd9caa294f08c62a7cde569f49a3c4500835260405f209060018060a01b03165f5260205260405f2090565b54604051908152f35b6001600160e01b031981160361022e57565b3461022e57602036600319011261022e5760206004356102f5816102c4565b63ffffffff60e01b16637965db0b60e01b811490811561031b575b506040519015158152f35b636cdb3d1360e11b81149150811561034d575b811561033c575b505f610310565b6301ffc9a760e01b1490505f610335565b6303a24d0760e21b8114915061032e565b9181601f8401121561022e578235916001600160401b03831161022e576020838186019501011161022e57565b3461022e57602036600319011261022e576004356001600160401b03811161022e576103bb90369060040161035e565b335f9081527f16b4d71a6c9e1de8a962cd3ac1e5e756fa56ea53680fc7b59cd7576a99bb77b360205260409020547fa70a2d8710fed9f014c8c2af50c7c2f6b25748ae4cded822e03b7beed44cf3a89060ff16156104285761042661042136848661085e565b61198d565b005b6044906040519063e2517d3f60e01b82523360048301526024820152fd5b91908251928382525f5b848110610470575050825f602080949584010152601f8019910116010190565b602081830181015184830182015201610450565b906020610495928181520190610446565b90565b3461022e5760208060031936011261022e576040515f915f80516020612ada83398151915280546104c88161162f565b8085529160019180831690811561055b5750600114610502575b6104fe856104f2818903826107a2565b60405191829182610484565b0390f35b5f9081529294507ff429cb5e2ec84cbb765e76b31964a56ccde03e7a6122d6cc4afb19edc55edeed5b82841061054857505050816104fe936104f292820101935f6104e2565b805485850187015292850192810161052b565b60ff191686860152505050151560051b82010191506104f2816104fe5f6104e2565b3461022e575f36600319011261022e5760205f80516020612a9a83398151915254604051908152f35b9181601f8401121561022e578235916001600160401b03831161022e576020808501948460051b01011161022e57565b3461022e57608036600319011261022e576105ef610218565b602435906001600160401b0380831161022e57610611600493369085016105a6565b9160443581811161022e5761062990369087016105a6565b92909160643590811161022e57610643903690880161035e565b94909661064e611891565b6001600160a01b038716156106ec578482036106da5784156106cb575f5b8581106106a257505061069c9261068c61042698936106949336916107da565b9436916107da565b93369161085e565b92611a92565b6106ad81878761167b565b35156106bb5760010161066c565b50604051632a9ffab760e21b8152fd5b604051632a9ffab760e21b8152fd5b6040516001621398b960e31b03198152fd5b60405163d92e233d60e01b8152fd5b3461022e57602036600319011261022e576004355f525f80516020612a5a8339815191526020526020600160405f200154604051908152f35b3461022e575f36600319011261022e5760206040517f3c11d16cbaffd01df69ce1c404f6340ee057498f5f00246190ea54220576a8488152f35b634e487b7160e01b5f52604160045260245ffd5b602081019081106001600160401b0382111761079d57604052565b61076e565b90601f801991011681019081106001600160401b0382111761079d57604052565b6001600160401b03811161079d5760051b60200190565b92916107e5826107c3565b916107f360405193846107a2565b829481845260208094019160051b810192831161022e57905b8282106108195750505050565b8135815290830190830161080c565b9080601f8301121561022e57816020610495933591016107da565b6001600160401b03811161079d57601f01601f191660200190565b92919261086a82610843565b9161087860405193846107a2565b82948184528183011161022e578281602093845f960137010152565b9080601f8301121561022e578160206104959335910161085e565b3461022e5760a036600319011261022e576108c8610218565b6108d0610232565b90604435916001600160401b039081841161022e576108f460049436908601610828565b9060643583811161022e5761090c9036908701610828565b9260843590811161022e576109249036908701610894565b936001600160a01b038082169033821415806109af575b6109825783161561096b5715610955576104269550612033565b604051626a0d4560e21b81525f81880152602490fd5b604051632bfa23e760e11b81525f81890152602490fd5b6040805163711bec9160e11b815233818b019081526001600160a01b038616602082015290918291010390fd5b5060ff6109d4336109bf866115b0565b9060018060a01b03165f5260205260405f2090565b54161561093b565b3461022e57604036600319011261022e576104266004356109fb610232565b90805f525f80516020612a5a833981519152602052610a20600160405f2001546118e8565b611d14565b3461022e57604036600319011261022e57610a3e610232565b336001600160a01b03821603610a5a5761042690600435611d4a565b60405163334bd91960e11b8152600490fd5b3461022e575f36600319011261022e57610a846117de565b5f80516020612a7a833981519152805460ff811615610acf5760ff191690557f5db9ee0a495bf2e6ff9c91a7834c1ba4fdd244a5e8aa4e537bd38aeae4b073aa6020604051338152a1005b604051638dfc202b60e01b8152600490fd5b9081518082526020808093019301915f5b828110610b00575050505090565b835185529381019392810192600101610af2565b906020610495928181520190610ae1565b3461022e57604036600319011261022e576004356001600160401b0380821161022e573660238301121561022e578160040135610b61816107c3565b92610b6f60405194856107a2565b8184526020916024602086019160051b8301019136831161022e57602401905b828210610bc8578560243586811161022e576104fe91610bb6610bbc923690600401610828565b906116a4565b60405191829182610b14565b838091610bd484610248565b815201910190610b8f565b604036600319011261022e57610bf3610218565b6024356001600160401b03811161022e57610c12903690600401610894565b6001600160a01b0391907f00000000000000000000000000000000000000000000000000000000000000008316308114908115610d1b575b50610d09576020600493610c5c6117de565b6040516352d1902d60e01b8152948591829086165afa5f9381610cd8575b50610ca057604051634c9c8ce360e01b81526001600160a01b0383166004820152602490fd5b905f80516020612a3a8339815191528303610cbf576104269250612179565b604051632a87526960e21b815260048101849052602490fd5b610cfb91945060203d602011610d02575b610cf381836107a2565b810190611ddc565b925f610c7a565b503d610ce9565b60405163703e46dd60e11b8152600490fd5b9050835f80516020612a3a833981519152541614155f610c4a565b3461022e57602036600319011261022e576004355f527f4a593662ee04d27b6a00ebb31be7fe0c102c2ade82a7c5d764f2df05dc4e2800602052602060405f20541515604051908152f35b3461022e575f36600319011261022e577f00000000000000000000000000000000000000000000000000000000000000006001600160a01b03163003610d095760206040515f80516020612a3a8339815191528152f35b3461022e575f36600319011261022e57602060ff5f80516020612a7a83398151915254166040519015158152f35b3461022e575f36600319011261022e5760206040517fa70a2d8710fed9f014c8c2af50c7c2f6b25748ae4cded822e03b7beed44cf3a88152f35b3461022e57606036600319011261022e57610e59610218565b6001600160401b039060243582811161022e57610e7b600491369083016105a6565b91909360443590811161022e57610e9590369083016105a6565b929091610ea0611834565b6001600160a01b038516156106ec578382036106da5783156106cb575f5b848110610ee857505090610eda61042695610ee29336916107da565b9236916107da565b91611deb565b610ef381868661167b565b35156106bb57600101610ebe565b3461022e57608036600319011261022e57610f1a610218565b6044356064356001600160401b03811161022e57610f3c90369060040161035e565b9290610f46611891565b6001600160a01b03821615610fae578215610f9c57610f6d610f969161042695369161085e565b926024359160405192600184526020840152604083019160018352606084015260808301604052565b91611e0d565b604051632a9ffab760e21b8152600490fd5b60405163d92e233d60e01b8152600490fd5b3461022e575f36600319011261022e57610fd86117de565b610fe061221b565b5f80516020612a7a833981519152600160ff198254161790557f62e78cea01bee320cd4e420270b5ea74000d11b0c9f74754ebdbfc544b05a2586020604051338152a1005b3461022e57604036600319011261022e57602060ff611073611045610232565b6004355f525f80516020612a5a833981519152845260405f209060018060a01b03165f5260205260405f2090565b54166040519015158152f35b3461022e575f36600319011261022e5760206040515f8152f35b3461022e57604036600319011261022e576110b2610218565b60243580151580910361022e576001600160a01b038216918215611118576110dd906109bf336115b0565b60ff1981541660ff83161790556040519081527f17307eab39ab6107e8899845ad3d59bd9653f200f220920489ca2b5937696c3160203392a3005b60405162ced3e160e81b81525f6004820152602490fd5b3461022e575f36600319011261022e5760405160408101908082106001600160401b0383111761079d576104fe9160405260058152640352e302e360dc1b6020820152604051918291602083526020830190610446565b3461022e57602036600319011261022e576004355f527f4a593662ee04d27b6a00ebb31be7fe0c102c2ade82a7c5d764f2df05dc4e2800602052602060405f2054604051908152f35b3461022e575f36600319011261022e5760206040517f9f2df0fed2c77648de5860a4cc508cd0818c85b8b8a1ab4ceeef8d981c8956a68152f35b3461022e57604036600319011261022e57610426600435611228610232565b90805f525f80516020612a5a83398151915260205261124d600160405f2001546118e8565b611d4a565b3461022e57604036600319011261022e57602060ff611073611272610218565b6109bf61127d610232565b916115b0565b3461022e5760a036600319011261022e5761129c610218565b6112a4610232565b6084356001600160401b03811161022e576112c3903690600401610894565b906001600160a01b0383811690338214158061137a575b6113535782161561133b5715611324576104269261131c6064356044359160405192600184526020840152604083019160018352606084015260808301604052565b929091612033565b604051626a0d4560e21b81525f6004820152602490fd5b604051632bfa23e760e11b81525f6004820152602490fd5b60405163711bec9160e11b81523360048201526001600160a01b0386166024820152604490fd5b5060ff61138a336109bf886115b0565b5416156112da565b3461022e57604036600319011261022e576113ab610218565b6001600160401b039060243582811161022e576113cc90369060040161035e565b905f80516020612aba833981519152549360ff8560401c16159416801590816114d1575b60011490816114c7575b1590816114be575b506114ac575f80516020612aba833981519152805467ffffffffffffffff19166001179055611435928461148357611748565b61143b57005b5f80516020612aba833981519152805460ff60401b19169055604051600181527fc7f505b2f371ae2175ee4913f4499e1f2633a7b5936321eed1cdaeb6115181d290602090a1005b5f80516020612aba833981519152805460ff60401b191668010000000000000000179055611748565b60405163f92ee8a960e01b8152600490fd5b9050155f611402565b303b1591506113fa565b8591506113f0565b3461022e57606036600319011261022e576114f2610218565b604435906114fe611834565b6001600160a01b03811615610fae578115610f9c57611542610426926024359160405192600184526020840152604083019160018352606084015260808301604052565b915f60405161155081610782565b52611f56565b5f527f4a593662ee04d27b6a00ebb31be7fe0c102c2ade82a7c5d764f2df05dc4e280060205260405f2090565b5f527f88be536d5240c274a3b1d3a1be54482fd9caa294f08c62a7cde569f49a3c450060205260405f2090565b6001600160a01b03165f9081527f88be536d5240c274a3b1d3a1be54482fd9caa294f08c62a7cde569f49a3c45016020526040902090565b61162b915f527f88be536d5240c274a3b1d3a1be54482fd9caa294f08c62a7cde569f49a3c450060205260405f209060018060a01b03165f5260205260405f2090565b5490565b90600182811c9216801561165d575b602083101461164957565b634e487b7160e01b5f52602260045260245ffd5b91607f169161163e565b634e487b7160e01b5f52603260045260245ffd5b919081101561168b5760051b0190565b611667565b805182101561168b5760209160051b010190565b919091805183518082036117265750508051906116d96116c3836107c3565b926116d160405194856107a2565b8084526107c3565b60209190601f190136848401375f5b815181101561171e578061170d60019260051b85808287010151918a010151906115e8565b6117178287611690565b52016116e8565b509193505050565b604051635b05999160e01b815260048101919091526024810191909152604490fd5b906001600160a01b03821615610fae5761176a61177a916117db94369161085e565b611772612245565b610421612245565b611782612245565b61178a612245565b611792612245565b61179a612245565b5f80516020612a7a833981519152805460ff191690556117b8612245565b6117c181611aaf565b506117cb81611b60565b506117d581611c36565b50611ca5565b50565b335f9081527fb7db2dd08fcb62d0c9e08c51941cae53c267786a0b75803fb7960902fc8ef97d602052604090205460ff161561181657565b60405163e2517d3f60e01b81523360048201525f6024820152604490fd5b335f9081527ffcf1b2032b1187d9f2a29150c4a608b3b6f0bdf8dd007801f86a276af50cad92602052604090207f3c11d16cbaffd01df69ce1c404f6340ee057498f5f00246190ea54220576a8489060ff905b5416156104285750565b335f9081527f549fe2656c81d2947b3b913f0a53b9ea86c71e049f3a1b8aa23c09a8a05cb8d4602052604090207f9f2df0fed2c77648de5860a4cc508cd0818c85b8b8a1ab4ceeef8d981c8956a69060ff90611887565b5f8181525f80516020612a5a83398151915260209081526040808320338452909152902060ff90611887565b601f8111611920575050565b5f80516020612ada8339815191525f527ff429cb5e2ec84cbb765e76b31964a56ccde03e7a6122d6cc4afb19edc55edeed906020601f840160051c83019310611983575b601f0160051c01905b818110611978575050565b5f815560010161196d565b9091508190611964565b9081516001600160401b03811161079d575f80516020612ada833981519152906119c0816119bb845461162f565b611914565b602080601f8311600114611a01575081906119f29394955f926119f6575b50508160011b915f199060031b1c19161790565b9055565b015190505f806119de565b90601f19831695611a3f5f80516020612ada8339815191525f527ff429cb5e2ec84cbb765e76b31964a56ccde03e7a6122d6cc4afb19edc55edeed90565b925f905b888210611a7a57505083600195969710611a62575b505050811b019055565b01515f1960f88460031b161c191690555f8080611a58565b80600185968294968601518155019501930190611a43565b9291906001600160a01b0384161561133b57611aad93611e0d565b565b6001600160a01b0381165f9081527fb7db2dd08fcb62d0c9e08c51941cae53c267786a0b75803fb7960902fc8ef97d60205260409020545f80516020612a5a8339815191529060ff16611b5a575f808052602091825260408082206001600160a01b038516835290925220805460ff1916600117905533906001600160a01b03165f7f2f8788117e7eff1d82e926ec794901d17c78024a50270940304540a733656f0d8180a4600190565b50505f90565b6001600160a01b0381165f9081527f549fe2656c81d2947b3b913f0a53b9ea86c71e049f3a1b8aa23c09a8a05cb8d4602052604090207f9f2df0fed2c77648de5860a4cc508cd0818c85b8b8a1ab4ceeef8d981c8956a6905f80516020612a5a8339815191529060ff905b5416611c2f575f828152602091825260408082206001600160a01b038616835290925220805460ff1916600117905533916001600160a01b0316907f2f8788117e7eff1d82e926ec794901d17c78024a50270940304540a733656f0d5f80a4600190565b5050505f90565b6001600160a01b0381165f9081527ffcf1b2032b1187d9f2a29150c4a608b3b6f0bdf8dd007801f86a276af50cad92602052604090207f3c11d16cbaffd01df69ce1c404f6340ee057498f5f00246190ea54220576a848905f80516020612a5a8339815191529060ff90611bcb565b6001600160a01b0381165f9081527f16b4d71a6c9e1de8a962cd3ac1e5e756fa56ea53680fc7b59cd7576a99bb77b3602052604090207fa70a2d8710fed9f014c8c2af50c7c2f6b25748ae4cded822e03b7beed44cf3a8905f80516020612a5a8339815191529060ff90611bcb565b5f8181525f80516020612a5a833981519152602081815260408084206001600160a01b038716855290915290912060ff90611bcb565b5f8181525f80516020612a5a833981519152602081815260408084206001600160a01b03871685529091529091205460ff1615611c2f575f828152602091825260408082206001600160a01b038616835290925220805460ff1916905533916001600160a01b0316907ff6391f5c32d9c69d2a47ea670b442974b53935d1edc7fd64eb21e047a839171b5f80a4600190565b9081602091031261022e575190565b91906001600160a01b0383161561132457611aad925f60405161155081610782565b93919091611e1961221b565b611e2482848761265a565b5f94855b8451871015611e6b57611e636001918860051b90611e51602080848a010151938a010151611556565b611e5c8382546125b1565b90556125b1565b960195611e28565b909493919550611e9e611e8d5f80516020612a9a8339815191529283546125b1565b5f80516020612a9a83398151915255565b6001600160a01b038516159081611ef3575b5015611ebd575b50505050565b8051600103611ee45790602080611edb959301519101519133612528565b5f808080611eb7565b611eee9333612333565b611edb565b94909591935f965f975b8651891015611f32576001908960051b90611f23602080848b010151938b010151611556565b82815403905501980197611efd565b909296611f50929694985054035f80516020612a9a83398151915255565b5f611eb0565b929192611f6161221b565b611f6c848383612766565b6001600160a01b031615611fdd575b5f805b8251821015611fb3576001908260051b90611fa4602080848a0101519387010151611556565b82815403905501910190611f7e565b915050611aad9192505f80516020612a9a83398151915254035f80516020612a9a83398151915255565b5f805b8251821015612011576120096001918360051b90611e51602080848b0101519388010151611556565b910190611fe0565b61202e9150611e8d905f80516020612a9a833981519152546125b1565b611f7b565b9193929061203f61221b565b61204b828683866128b4565b6001600160a01b0383811615612116575b811615806120a9575b15612072575b5050505050565b84516001036120985760208061208e960151920151923361255d565b5f8080808061206b565b6120a49491923361242c565b61208e565b94935f939091845b86518610156120e6576001908660051b906120d7602080848a010151938b010151611556565b828154039055019501946120b1565b612111919396979295505f80516020612a9a83398151915254035f80516020612a9a83398151915255565b612065565b9591925f94915f955b8751871015612150576121486001918860051b90611e51602080848c010151938d010151611556565b96019561211f565b61217491939650611e8d9098929594985f80516020612a9a833981519152546125b1565b61205c565b90813b156121fa575f80516020612a3a83398151915280546001600160a01b0319166001600160a01b0384169081179091557fbc7cd75a20ee27fd9adebab32041f755214dbc6bffa90cc0225b39da2e5c2d3b5f80a28051156121df576117db91612594565b5050346121e857565b60405163b398979f60e01b8152600490fd5b604051634c9c8ce360e01b81526001600160a01b0383166004820152602490fd5b60ff5f80516020612a7a833981519152541661223357565b60405163d93c066560e01b8152600490fd5b60ff5f80516020612aba8339815191525460401c161561226157565b604051631afcd79f60e31b8152600490fd5b9081602091031261022e5751610495816102c4565b926122b661049595936122c49360018060a01b031686525f602087015260a0604087015260a0860190610ae1565b908482036060860152610ae1565b916080818403910152610446565b939061049595936122b6916122c49460018060a01b03809216885216602087015260a0604087015260a0860190610ae1565b3d1561232e573d9061231582610843565b9161232360405193846107a2565b82523d5f602084013e565b606090565b9293919093843b612345575050505050565b602091612368604051948593849363bc197c8160e01b9889865260048601612288565b03815f6001600160a01b0388165af15f91816123fb575b506123be578261238d612304565b80519190826123b757604051632bfa23e760e11b81526001600160a01b0383166004820152602490fd5b9050602001fd5b6001600160e01b031916036123d857505f8080808061206b565b604051632bfa23e760e11b81526001600160a01b03919091166004820152602490fd5b61241e91925060203d602011612425575b61241681836107a2565b810190612273565b905f61237f565b503d61240c565b939290949194853b612441575b505050505050565b612464602093604051958694859463bc197c8160e01b998a8752600487016122d2565b03815f6001600160a01b0388165af15f91816124a4575b50612489578261238d612304565b6001600160e01b031916036123d857505f8080808080612439565b6124be91925060203d6020116124255761241681836107a2565b905f61247b565b909260a0926104959594600180861b031683525f6020840152604083015260608201528160808201520190610446565b919261049595949160a094600180871b038092168552166020840152604083015260608201528160808201520190610446565b9293919093843b61253a575050505050565b602091612368604051948593849363f23a6e6160e01b98898652600486016124c5565b939290949194853b61257157505050505050565b612464602093604051958694859463f23a6e6160e01b998a8752600487016124f5565b5f8061049593602081519101845af46125ab612304565b916125d2565b919082018092116125be57565b634e487b7160e01b5f52601160045260245ffd5b906125f957508051156125e757805190602001fd5b60405163d6bda27560e01b8152600490fd5b8151158061262c575b61260a575090565b604051639996b31560e01b81526001600160a01b039091166004820152602490fd5b50803b15612602565b909161264c61049593604084526040840190610ae1565b916020818403910152610ae1565b91909182518251908181036117265750505f5b83518110156126c957600581901b84810160209081015191850101516001929184906001600160a01b0382166126a7575b5050500161266d565b6126bf916109bf6126b792611583565b9182546125b1565b90555f838161269e565b509160018151145f14612728576020908101519181015160408051938452918301526001600160a01b03909216915f9133917fc3d58168c5ae7397731d063d5bbf3d657854427343f4c083240f7aacaa2d0f629190819081015b0390a4565b7f4a39dc06d4c0dbc64b70af90fd698a233a518aa5d07e595d983b8c0526c8f7fb6127235f939460405191829160018060a01b031696339583612635565b92919080518251908181036117265750505f5b815181101561281657600581901b82810160209081015191850101516001600160a01b0387166127ae575b5050600101612779565b6127bb876109bf84611583565b548181106127df57876109bf60019594936127d7930393611583565b55905f6127a4565b6040516303dee4c560e01b81526001600160a01b038916600482015260248101919091526044810182905260648101839052608490fd5b50905f92939160018151148414612875576020908101519181015160408051938452918301526001600160a01b039092169133917fc3d58168c5ae7397731d063d5bbf3d657854427343f4c083240f7aacaa2d0f629181908101612723565b6040516001600160a01b039093169233927f4a39dc06d4c0dbc64b70af90fd698a233a518aa5d07e595d983b8c0526c8f7fb9282916127239183612635565b93929180518351908181036117265750505f5b815181101561299457600581901b82810160209081015191860101516001600160a01b0392918590898516612924575b600194821661290a575b505050016128c7565b61291a916109bf6126b792611583565b90555f8481612901565b9192939050612936896109bf84611583565b5483811061295d57918691846001969594036129558c6109bf85611583565b5594506128f7565b6040516303dee4c560e01b81526001600160a01b038b16600482015260248101919091526044810184905260648101839052608490fd5b5080519394939192916001036129f6576020908101519181015160408051938452918301526001600160a01b03928316939092169133917fc3d58168c5ae7397731d063d5bbf3d657854427343f4c083240f7aacaa2d0f629181908101612723565b6040516001600160a01b03938416949093169233927f4a39dc06d4c0dbc64b70af90fd698a233a518aa5d07e595d983b8c0526c8f7fb928291612723918361263556fe360894a13ba1a3210667c828492db98dca3e2076cc3735a920a3ca505d382bbc02dd7bc7dec4dceedda775e58dd541e08a116c6c53815c0bd028192f7b626800cd5ed15c6e187e77e9aee88184c21f4f2182ab5827cb3b7e07fbedcd63f033004a593662ee04d27b6a00ebb31be7fe0c102c2ade82a7c5d764f2df05dc4e2801f0c57e16840df040f15088dc2f81fe391c3923bec73e23a9662efc9c229c6a0088be536d5240c274a3b1d3a1be54482fd9caa294f08c62a7cde569f49a3c4502a26469706673582212202efcd14fd624a4c1e114de88f0b89ca655873c0bca9153b1e6c22af7a36b331b64736f6c63430008180033","linkReferences":{}},"methodIdentifiers":{"BURNER_ROLE()":"282c51f3","DEFAULT_ADMIN_ROLE()":"a217fddf","MINTER_ROLE()":"d5391393","UPGRADE_INTERFACE_VERSION()":"ad3cb1cc","URI_MANAGER_ROLE()":"682d07d9","balanceOf(address,uint256)":"00fdd58e","balanceOfBatch(address[],uint256[])":"4e1273f4","burn(address,uint256,uint256)":"f5298aca","burnBatch(address,uint256[],uint256[])":"6b20c454","exists(uint256)":"4f558e79","getRoleAdmin(bytes32)":"248a9ca3","grantRole(bytes32,address)":"2f2ff15d","hasRole(bytes32,address)":"91d14854","initialize(address,string)":"f399e22e","isApprovedForAll(address,address)":"e985e9c5","mint(address,uint256,uint256,bytes)":"731133e9","mintBatch(address,uint256[],uint256[],bytes)":"1f7fdffa","pause()":"8456cb59","paused()":"5c975abb","proxiableUUID()":"52d1902d","renounceRole(bytes32,address)":"36568abe","revokeRole(bytes32,address)":"d547741f","safeBatchTransferFrom(address,address,uint256[],uint256[],bytes)":"2eb2c2d6","safeTransferFrom(address,address,uint256,uint256,bytes)":"f242432a","setApprovalForAll(address,bool)":"a22cb465","setURI(string)":"02fe5305","supportsInterface(bytes4)":"01ffc9a7","totalSupply()":"18160ddd","totalSupply(uint256)":"bd85b039","unpause()":"3f4ba83a","upgradeToAndCall(address,bytes)":"4f1ef286","uri(uint256)":"0e89341c"},"id":1}