{"abi":[{"type":"constructor","inputs":[],"stateMutability":"nonpayable"},{"type":"function","name":"DEFAULT_ADMIN_ROLE","inputs":[],"outputs":[{"name":"","type":"bytes32","internalType":"bytes32"}],"stateMutability":"view"},{"type":"function","name":"GAME_ADMIN_ROLE","inputs":[],"outputs":[{"name":"","type":"bytes32","internalType":"bytes32"}],"stateMutability":"view"},{"type":"function","name":"UPGRADE_INTERFACE_VERSION","inputs":[],"outputs":[{"name":"","type":"string","internalType":"string"}],"stateMutability":"view"},{"type":"function","name":"getRoleAdmin","inputs":[{"name":"role","type":"bytes32","internalType":"bytes32"}],"outputs":[{"name":"","type":"bytes32","internalType":"bytes32"}],"stateMutability":"view"},{"type":"function","name":"getSeedConfig","inputs":[{"name":"seedType","type":"uint256","internalType":"uint256"}],"outputs":[{"name":"","type":"tuple","internalType":"struct SeedConfig","components":[{"name":"baseExp","type":"uint32","internalType":"uint32"},{"name":"growthSeconds","type":"uint32","internalType":"uint32"}]}],"stateMutability":"view"},{"type":"function","name":"getSeedConfigs","inputs":[{"name":"seedTypes","type":"uint256[]","internalType":"uint256[]"}],"outputs":[{"name":"configs","type":"tuple[]","internalType":"struct SeedConfig[]","components":[{"name":"baseExp","type":"uint32","internalType":"uint32"},{"name":"growthSeconds","type":"uint32","internalType":"uint32"}]}],"stateMutability":"view"},{"type":"function","name":"getShopItemConfig","inputs":[{"name":"itemKey","type":"bytes32","internalType":"bytes32"}],"outputs":[{"name":"","type":"tuple","internalType":"struct ShopItemConfig","components":[{"name":"price","type":"uint128","internalType":"uint128"},{"name":"active","type":"bool","internalType":"bool"}]}],"stateMutability":"view"},{"type":"function","name":"getToolSpeedBps","inputs":[{"name":"toolRarity","type":"uint256","internalType":"uint256"}],"outputs":[{"name":"","type":"uint16","internalType":"uint16"}],"stateMutability":"view"},{"type":"function","name":"getToolSpeedBpsBatch","inputs":[{"name":"toolRarities","type":"uint256[]","internalType":"uint256[]"}],"outputs":[{"name":"values","type":"uint16[]","internalType":"uint16[]"}],"stateMutability":"view"},{"type":"function","name":"grantGameAdmin","inputs":[{"name":"account","type":"address","internalType":"address"}],"outputs":[],"stateMutability":"nonpayable"},{"type":"function","name":"grantRole","inputs":[{"name":"role","type":"bytes32","internalType":"bytes32"},{"name":"account","type":"address","internalType":"address"}],"outputs":[],"stateMutability":"nonpayable"},{"type":"function","name":"hasRole","inputs":[{"name":"role","type":"bytes32","internalType":"bytes32"},{"name":"account","type":"address","internalType":"address"}],"outputs":[{"name":"","type":"bool","internalType":"bool"}],"stateMutability":"view"},{"type":"function","name":"initialize","inputs":[{"name":"admin","type":"address","internalType":"address"},{"name":"treasury_","type":"address","internalType":"address"},{"name":"maxPlotsPerHarvest_","type":"uint16","internalType":"uint16"},{"name":"xpRateLimitPerTx_","type":"uint256","internalType":"uint256"}],"outputs":[],"stateMutability":"nonpayable"},{"type":"function","name":"marketFeeBps","inputs":[],"outputs":[{"name":"","type":"uint16","internalType":"uint16"}],"stateMutability":"view"},{"type":"function","name":"maxPlotsPerHarvest","inputs":[],"outputs":[{"name":"","type":"uint16","internalType":"uint16"}],"stateMutability":"view"},{"type":"function","name":"proxiableUUID","inputs":[],"outputs":[{"name":"","type":"bytes32","internalType":"bytes32"}],"stateMutability":"view"},{"type":"function","name":"renounceRole","inputs":[{"name":"role","type":"bytes32","internalType":"bytes32"},{"name":"callerConfirmation","type":"address","internalType":"address"}],"outputs":[],"stateMutability":"nonpayable"},{"type":"function","name":"revokeGameAdmin","inputs":[{"name":"account","type":"address","internalType":"address"}],"outputs":[],"stateMutability":"nonpayable"},{"type":"function","name":"revokeRole","inputs":[{"name":"role","type":"bytes32","internalType":"bytes32"},{"name":"account","type":"address","internalType":"address"}],"outputs":[],"stateMutability":"nonpayable"},{"type":"function","name":"seasonBonusBps","inputs":[],"outputs":[{"name":"","type":"uint16","internalType":"uint16"}],"stateMutability":"view"},{"type":"function","name":"setMarketplaceFeeBps","inputs":[{"name":"newValue","type":"uint16","internalType":"uint16"}],"outputs":[],"stateMutability":"nonpayable"},{"type":"function","name":"setMaxPlotsPerHarvest","inputs":[{"name":"newValue","type":"uint16","internalType":"uint16"}],"outputs":[],"stateMutability":"nonpayable"},{"type":"function","name":"setSeasonBonusBps","inputs":[{"name":"newValue","type":"uint16","internalType":"uint16"}],"outputs":[],"stateMutability":"nonpayable"},{"type":"function","name":"setSeedConfig","inputs":[{"name":"seedType","type":"uint256","internalType":"uint256"},{"name":"baseExp","type":"uint32","internalType":"uint32"},{"name":"growthSeconds","type":"uint32","internalType":"uint32"}],"outputs":[],"stateMutability":"nonpayable"},{"type":"function","name":"setSeedConfigs","inputs":[{"name":"seedTypes","type":"uint256[]","internalType":"uint256[]"},{"name":"baseExps","type":"uint32[]","internalType":"uint32[]"},{"name":"growthSeconds","type":"uint32[]","internalType":"uint32[]"}],"outputs":[],"stateMutability":"nonpayable"},{"type":"function","name":"setShopItemConfig","inputs":[{"name":"itemKey","type":"bytes32","internalType":"bytes32"},{"name":"price","type":"uint128","internalType":"uint128"},{"name":"active","type":"bool","internalType":"bool"}],"outputs":[],"stateMutability":"nonpayable"},{"type":"function","name":"setShopItemConfigs","inputs":[{"name":"itemKeys","type":"bytes32[]","internalType":"bytes32[]"},{"name":"prices","type":"uint128[]","internalType":"uint128[]"},{"name":"actives","type":"bool[]","internalType":"bool[]"}],"outputs":[],"stateMutability":"nonpayable"},{"type":"function","name":"setToolSpeedBps","inputs":[{"name":"toolRarity","type":"uint256","internalType":"uint256"},{"name":"speedBps","type":"uint16","internalType":"uint16"}],"outputs":[],"stateMutability":"nonpayable"},{"type":"function","name":"setToolSpeedBpsBatch","inputs":[{"name":"toolRarities","type":"uint256[]","internalType":"uint256[]"},{"name":"speedBpsValues","type":"uint16[]","internalType":"uint16[]"}],"outputs":[],"stateMutability":"nonpayable"},{"type":"function","name":"setTreasury","inputs":[{"name":"newTreasury","type":"address","internalType":"address"}],"outputs":[],"stateMutability":"nonpayable"},{"type":"function","name":"setXpRateLimitPerTx","inputs":[{"name":"newValue","type":"uint256","internalType":"uint256"}],"outputs":[],"stateMutability":"nonpayable"},{"type":"function","name":"supportsInterface","inputs":[{"name":"interfaceId","type":"bytes4","internalType":"bytes4"}],"outputs":[{"name":"","type":"bool","internalType":"bool"}],"stateMutability":"view"},{"type":"function","name":"treasury","inputs":[],"outputs":[{"name":"","type":"address","internalType":"address"}],"stateMutability":"view"},{"type":"function","name":"upgradeToAndCall","inputs":[{"name":"newImplementation","type":"address","internalType":"address"},{"name":"data","type":"bytes","internalType":"bytes"}],"outputs":[],"stateMutability":"payable"},{"type":"function","name":"xpRateLimitPerTx","inputs":[],"outputs":[{"name":"","type":"uint256","internalType":"uint256"}],"stateMutability":"view"},{"type":"event","name":"Initialized","inputs":[{"name":"version","type":"uint64","indexed":false,"internalType":"uint64"}],"anonymous":false},{"type":"event","name":"MarketplaceFeeBpsUpdated","inputs":[{"name":"marketFeeBps","type":"uint16","indexed":false,"internalType":"uint16"}],"anonymous":false},{"type":"event","name":"MaxPlotsPerHarvestUpdated","inputs":[{"name":"maxPlotsPerHarvest","type":"uint16","indexed":false,"internalType":"uint16"}],"anonymous":false},{"type":"event","name":"RoleAdminChanged","inputs":[{"name":"role","type":"bytes32","indexed":true,"internalType":"bytes32"},{"name":"previousAdminRole","type":"bytes32","indexed":true,"internalType":"bytes32"},{"name":"newAdminRole","type":"bytes32","indexed":true,"internalType":"bytes32"}],"anonymous":false},{"type":"event","name":"RoleGranted","inputs":[{"name":"role","type":"bytes32","indexed":true,"internalType":"bytes32"},{"name":"account","type":"address","indexed":true,"internalType":"address"},{"name":"sender","type":"address","indexed":true,"internalType":"address"}],"anonymous":false},{"type":"event","name":"RoleRevoked","inputs":[{"name":"role","type":"bytes32","indexed":true,"internalType":"bytes32"},{"name":"account","type":"address","indexed":true,"internalType":"address"},{"name":"sender","type":"address","indexed":true,"internalType":"address"}],"anonymous":false},{"type":"event","name":"SeasonBonusBpsUpdated","inputs":[{"name":"seasonBonusBps","type":"uint16","indexed":false,"internalType":"uint16"}],"anonymous":false},{"type":"event","name":"SeedConfigUpdated","inputs":[{"name":"seedType","type":"uint256","indexed":true,"internalType":"uint256"},{"name":"baseExp","type":"uint32","indexed":false,"internalType":"uint32"},{"name":"growthSeconds","type":"uint32","indexed":false,"internalType":"uint32"}],"anonymous":false},{"type":"event","name":"ShopItemConfigUpdated","inputs":[{"name":"itemKey","type":"bytes32","indexed":true,"internalType":"bytes32"},{"name":"price","type":"uint128","indexed":false,"internalType":"uint128"},{"name":"active","type":"bool","indexed":false,"internalType":"bool"}],"anonymous":false},{"type":"event","name":"ToolSpeedBpsUpdated","inputs":[{"name":"toolRarity","type":"uint256","indexed":true,"internalType":"uint256"},{"name":"speedBps","type":"uint16","indexed":false,"internalType":"uint16"}],"anonymous":false},{"type":"event","name":"TreasuryUpdated","inputs":[{"name":"previousTreasury","type":"address","indexed":true,"internalType":"address"},{"name":"newTreasury","type":"address","indexed":true,"internalType":"address"}],"anonymous":false},{"type":"event","name":"Upgraded","inputs":[{"name":"implementation","type":"address","indexed":true,"internalType":"address"}],"anonymous":false},{"type":"event","name":"XpRateLimitPerTxUpdated","inputs":[{"name":"xpRateLimitPerTx","type":"uint256","indexed":false,"internalType":"uint256"}],"anonymous":false},{"type":"error","name":"AccessControlBadConfirmation","inputs":[]},{"type":"error","name":"AccessControlUnauthorizedAccount","inputs":[{"name":"account","type":"address","internalType":"address"},{"name":"neededRole","type":"bytes32","internalType":"bytes32"}]},{"type":"error","name":"AddressEmptyCode","inputs":[{"name":"target","type":"address","internalType":"address"}]},{"type":"error","name":"ERC1967InvalidImplementation","inputs":[{"name":"implementation","type":"address","internalType":"address"}]},{"type":"error","name":"ERC1967NonPayable","inputs":[]},{"type":"error","name":"FailedCall","inputs":[]},{"type":"error","name":"InvalidInitialization","inputs":[]},{"type":"error","name":"InvalidSeedType","inputs":[{"name":"seedType","type":"uint256","internalType":"uint256"}]},{"type":"error","name":"InvalidShopItem","inputs":[{"name":"itemKey","type":"bytes32","internalType":"bytes32"}]},{"type":"error","name":"InvalidToolRarity","inputs":[{"name":"toolRarity","type":"uint256","internalType":"uint256"}]},{"type":"error","name":"InvalidValue","inputs":[]},{"type":"error","name":"LengthMismatch","inputs":[]},{"type":"error","name":"NotInitializing","inputs":[]},{"type":"error","name":"UUPSUnauthorizedCallContext","inputs":[]},{"type":"error","name":"UUPSUnsupportedProxiableUUID","inputs":[{"name":"slot","type":"bytes32","internalType":"bytes32"}]},{"type":"error","name":"ZeroAddress","inputs":[]}],"bytecode":{"object":"0x60a080604052346100cc57306080527ff0c57e16840df040f15088dc2f81fe391c3923bec73e23a9662efc9c229c6a009081549060ff8260401c166100bd57506001600160401b036002600160401b031982821601610078575b604051611ba690816100d18239608051818181610b950152610c720152f35b6001600160401b031990911681179091556040519081527fc7f505b2f371ae2175ee4913f4499e1f2633a7b5936321eed1cdaeb6115181d290602090a15f8080610059565b63f92ee8a960e01b8152600490fd5b5f80fdfe608060409080825260049081361015610016575f80fd5b5f3560e01c90816301ffc9a7146111dc575080631b31b6091461113857806323d13d7b146110f7578063248a9ca3146110c057806325c52153146110255780632f2ff15d14610ffc57806334d42ef814610f8457806336568abe14610f3f5780633f5c3e8714610f1a57806342c5aa3214610ed657806345f5b43c14610e4e5780634f1ef28614610bf957806352d1902d14610b81578063548e467714610b5d5780635c18261d146109da5780635c9d8f761461096057806361d027b3146109385780636c0a39db1461091a578063799cba94146108c35780638137da551461086857806384b7b3c514610844578063901e13c01461081f57806391d14854146107ce578063a1febb2014610733578063a217fddf14610719578063a7524280146106e8578063ad3cb1cc1461066e578063be22d27d14610647578063d1782a86146105a1578063d2464c001461057f578063d547741f14610538578063db16fbfd14610427578063e9b3d7d114610398578063f0f442601461036d5763fec8157d146101a1575f80fd5b34610369576080366003190112610369576101ba6112db565b6101c26112c5565b9060443561ffff81169283820361036957606435927ff0c57e16840df040f15088dc2f81fe391c3923bec73e23a9662efc9c229c6a009586549560ff878a1c16159667ffffffffffffffff811680159081610361575b6001149081610357575b15908161034e575b5061033e5767ffffffffffffffff19811660011789558761031f575b506001600160a01b0383811615908115610314575b50610305571580156102fd575b6102ef5750916102a26102a79261029c6102ac9695610285611a8c565b61028d611a8c565b61029681611769565b506116bc565b50611a27565b6119ac565b6119f0565b6102b257005b805468ff00000000000000001916905551600181527fc7f505b2f371ae2175ee4913f4499e1f2633a7b5936321eed1cdaeb6115181d290602090a1005b8751632a9ffab760e21b8152fd5b508415610268565b50875163d92e233d60e01b8152fd5b90508416155f61025b565b68ffffffffffffffffff1916680100000000000000011788555f610246565b895163f92ee8a960e01b81528390fd5b9050155f61022a565b303b159150610222565b899150610218565b5f80fd5b34610369576020366003190112610369576103966103896112db565b610391611437565b611a27565b005b503461036957602090816003193601126103695780355f8385516103bb81611302565b8281520152805f526005835260ff845f20541615610411575f528152815f20908251916103e783611302565b5460ff826001600160801b03831694858152019160801c1615158152835192835251151590820152f35b835163dd0ff84f60e01b81529182015260249150fd5b5034610369576020908160031936011261036957803567ffffffffffffffff8111610369578261045b85923690850161122e565b919061046683611394565b9461047385519687611332565b83865261047f84611394565b8684019490601f19013686375f5b8181106104d8575050505082519384938285019183865251809252840192915f5b8281106104bd57505050500390f35b835161ffff16855286955093810193928101926001016104ae565b6104e78183869a98999a611370565b35805f526003865260ff895f2054161561052257906001915f526002865261ffff895f20541661051782896113ac565b52019695949661048d565b836024918a5191630352a27b60e01b8352820152fd5b509034610369578060031936011261036957610396913561057a600161055c6112c5565b93835f525f80516020611b518339815191526020525f20015461148d565b61192d565b8234610369575f3660031901126103695760209061ffff600654169051908152f35b509034610369576105b13661125f565b9496909293956105bf6113d1565b861561063a57828714801590610630575b6106205750505f5b8581106105e157005b8061061a6105f2600193898b611370565b3561060661060184878a611370565b6113c0565b610614610601858b8a611370565b91611531565b016105d8565b516001621398b960e31b03198152fd5b50858714156105d0565b51632a9ffab760e21b8152fd5b8234610369575f36600319011261036957602090515f80516020611b318339815191528152f35b8234610369575f3660031901126103695780519061068b82611302565b600582526020640352e302e360dc1b60208401528151928391602083528151918260208501525f5b8381106106d25750505f83830185015250601f01601f19168101030190f35b81810183015187820187015286945082016106b3565b509034610369573660031901126103695760243561ffff8116810361036957610396916107136113d1565b356114bb565b8234610369575f36600319011261036957602090515f8152f35b50346103695760209081600319360112610369578035905f83855161075781611302565b8281520152815f526001835260ff845f205416156107b957505f525f8152815f209082519161078583611302565b5463ffffffff908181168452821c16908201526107b7825180926020908163ffffffff91828151168552015116910152565bf35b60249184519163d5a721f960e01b8352820152fd5b5090346103695780600319360112610369576020916107eb6112c5565b90355f525f80516020611b518339815191528352815f209060018060a01b03165f52825260ff815f20541690519015158152f35b8234610369575f3660031901126103695760209061ffff60065460101c169051908152f35b503461036957602036600319011261036957610396906108626113d1565b356119f0565b823461036957602036600319011261036957610396906108be600161088b6112db565b92610894611437565b5f80516020611b318339815191525f525f80516020611b518339815191526020525f20015461148d565b611889565b509034610369576020366003190112610369578135805f52600360205260ff825f2054161561090557602092505f526002825261ffff815f2054169051908152f35b9051630352a27b60e01b815291820152602490fd5b8234610369575f366003190112610369576020906007549051908152f35b8234610369575f3660031901126103695760085490516001600160a01b039091168152602090f35b5090346103695760203660031901126103695761097b6112db565b91610984611437565b6001600160a01b038316156109cc57610396836109c76001855f80516020611b318339815191525f525f80516020611b518339815191526020525f20015461148d565b6116bc565b905163d92e233d60e01b8152fd5b5034610369576020918260031936011261036957813567ffffffffffffffff81116103695782610a0e85923690830161122e565b91610a1883611394565b92610a2586519485611332565b808452610a3181611394565b601f19015f5b818110610b325750505f5b818110610aae57505050508251928284938401908085528351809252808386019401925f905b838210610a755786860387f35b918496508286610a9e60019496988498516020908163ffffffff91828151168552015116910152565b0196019201869594929391610a68565b610abd81838699979899611370565b35805f526001885260ff865f20541615610b1c57906001915f525f8852855f20865190610ae982611302565b5463ffffffff9081811683528a1c1689820152610b0682896113ac565b52610b1181886113ac565b500195949395610a42565b8360249187519163d5a721f960e01b8352820152fd5b9580889697819951610b4381611302565b5f81525f8382015282828b01015201905096959496610a37565b3461036957602036600319011261036957610396610b796112f1565b6102a26113d1565b509034610369575f366003190112610369577f00000000000000000000000000000000000000000000000000000000000000006001600160a01b03163003610bec57602090517f360894a13ba1a3210667c828492db98dca3e2076cc3735a920a3ca505d382bbc8152f35b5163703e46dd60e11b8152fd5b508160031936011261036957610c0d6112db565b602492833567ffffffffffffffff811161036957366023820112156103695780840135610c3981611354565b93610c4684519586611332565b818552602091828601933689838301011161036957815f928a8693018737870101526001600160a01b037f00000000000000000000000000000000000000000000000000000000000000008116308114908115610e20575b50610e1057610cab611437565b81169484516352d1902d60e01b8152838189818a5afa5f9181610de1575b50610ce45750505050505191634c9c8ce360e01b8352820152fd5b9087878794938b7f360894a13ba1a3210667c828492db98dca3e2076cc3735a920a3ca505d382bbc91828103610dcc5750853b15610db8575080546001600160a01b031916821790558451907fbc7cd75a20ee27fd9adebab32041f755214dbc6bffa90cc0225b39da2e5c2d3b5f80a2825115610d9e5750505f6103969581925190845af4913d15610d94573d610d86610d7d82611354565b92519283611332565b81525f81943d92013e611acd565b5060609250611acd565b9450945050505034610dac57005b63b398979f60e01b8152fd5b8651634c9c8ce360e01b8152808501849052fd5b8751632a87526960e21b815280860191909152fd5b9091508481813d8311610e09575b610df98183611332565b810103126103695751905f610cc9565b503d610def565b845163703e46dd60e11b81528790fd5b9050817f360894a13ba1a3210667c828492db98dca3e2076cc3735a920a3ca505d382bbc541614155f610c9e565b50903461036957602036600319011261036957610e696112f1565b610e716113d1565b61ffff8116926127108411610ec8576008805461ffff60a01b191660a084901b61ffff60a01b1617905582518481527f840454eea1621f624addcf559d27fd62d5d704f82b4ade53a3a9c64ffb9d32a690602090a1005b8251632a9ffab760e21b8152fd5b5034610369576060366003190112610369576024356001600160801b0381168103610369576044359081151582036103695761039692610f146113d1565b356115de565b8234610369575f3660031901126103695760209061ffff60085460a01c169051908152f35b509034610369578060031936011261036957610f596112c5565b90336001600160a01b03831603610f755750610396913561192d565b5163334bd91960e11b81529050fd5b50903461036957602036600319011261036957610f9f6112f1565b610fa76113d1565b61ffff8116926127108411610ec8577fd6d759df334b6db70de9f9e533b73611556802010a882a7e8205b7f39933c527602085858563ffff00006006549160101b169063ffff000019161760065551908152a1005b5090346103695780600319360112610369576103969135611020600161055c6112c5565b611806565b5034610369576110343661125f565b939294919590966110436113d1565b831561063a578684148015906110b6575b6106205750505f5b82811061106557005b611070818484611370565b359061107d818888611370565b35916001600160801b03831683036103695761109a82878b611370565b358015158103610369576001936110b0926115de565b0161105c565b5084841415611054565b50903461036957602036600319011261036957602091355f525f80516020611b5183398151915282526001815f2001549051908152f35b50346103695760603660031901126103695763ffffffff602435818116810361036957604435918216820361036957610396926111326113d1565b35611531565b503461036957816003193601126103695767ffffffffffffffff813581811161036957611168903690840161122e565b9160243590811161036957611180903690850161122e565b93909461118b6113d1565b831561063a578484036106205750505f5b8281106111a557005b6111b0818484611370565b35906111bd818688611370565b359161ffff83168303610369576001926111d6916114bb565b0161119c565b823461036957602036600319011261036957359063ffffffff60e01b821680920361036957602091637965db0b60e01b811490811561121d575b5015158152f35b6301ffc9a760e01b14905083611216565b9181601f840112156103695782359167ffffffffffffffff8311610369576020808501948460051b01011161036957565b9060606003198301126103695767ffffffffffffffff600435818111610369578361128c9160040161122e565b9390939260243583811161036957826112a79160040161122e565b93909392604435918211610369576112c19160040161122e565b9091565b602435906001600160a01b038216820361036957565b600435906001600160a01b038216820361036957565b6004359061ffff8216820361036957565b6040810190811067ffffffffffffffff82111761131e57604052565b634e487b7160e01b5f52604160045260245ffd5b90601f8019910116810190811067ffffffffffffffff82111761131e57604052565b67ffffffffffffffff811161131e57601f01601f191660200190565b91908110156113805760051b0190565b634e487b7160e01b5f52603260045260245ffd5b67ffffffffffffffff811161131e5760051b60200190565b80518210156113805760209160051b010190565b3563ffffffff811681036103695790565b335f9081527f06dda7b87282a83d65b3ac2cc8886aa501caf3437daa5bb673345bee76aff18560205260409020545f80516020611b318339815191529060ff16156114195750565b6044906040519063e2517d3f60e01b82523360048301526024820152fd5b335f9081527fb7db2dd08fcb62d0c9e08c51941cae53c267786a0b75803fb7960902fc8ef97d602052604090205460ff161561146f57565b60405163e2517d3f60e01b81523360048201525f6024820152604490fd5b805f525f80516020611b5183398151915260205260405f20335f5260205260ff60405f205416156114195750565b9061ffff16612710811161151f5760207f2c99442a6bb777100e5c944fda2c88594987878df06e359066b6fcdf2fc72f3491835f526002825260405f208161ffff198254161790556003825260405f20600160ff19825416179055604051908152a2565b604051632a9ffab760e21b8152600490fd5b9163ffffffff809216801580156115d4575b61151f577faabd903a35d2a0d4769cc1dc96a33fb2ef3fdf7217a9620006cbf8895563c5489260409283519061157882611302565b8382528260208301911692838252875f525f602052855f2092511667ffffffff000000008354925160201b169167ffffffffffffffff1916171790556001602052825f20600160ff1982541617905582519182526020820152a2565b5082821615611543565b919082156116a3578180611692575b61151f577faedf9dbec5cd179aa42373bacf3b088971d0c7674fc6ebc755ff46fe27b5539b91604091825161162181611302565b6001600160801b03809216928382526020820190151592838252875f526004602052855f2092511682549160ff60801b9051151560801b169170ffffffffffffffffffffffffffffffffff1916171790556005602052825f20600160ff1982541617905582519182526020820152a2565b506001600160801b038116156115ed565b60405163dd0ff84f60e01b815260048101849052602490fd5b6001600160a01b03165f8181527f06dda7b87282a83d65b3ac2cc8886aa501caf3437daa5bb673345bee76aff18560205260409020545f80516020611b3183398151915291905f80516020611b518339815191529060ff1661176257825f5260205260405f20815f5260205260405f20600160ff1982541617905533917f2f8788117e7eff1d82e926ec794901d17c78024a50270940304540a733656f0d5f80a4600190565b5050505f90565b6001600160a01b03165f8181527fb7db2dd08fcb62d0c9e08c51941cae53c267786a0b75803fb7960902fc8ef97d60205260409020545f80516020611b518339815191529060ff16611800575f805260205260405f20815f5260205260405f20600160ff1982541617905533905f7f2f8788117e7eff1d82e926ec794901d17c78024a50270940304540a733656f0d8180a4600190565b50505f90565b90815f525f80516020611b518339815191528060205260405f209160018060a01b031691825f5260205260ff60405f205416155f1461176257825f5260205260405f20815f5260205260405f20600160ff1982541617905533917f2f8788117e7eff1d82e926ec794901d17c78024a50270940304540a733656f0d5f80a4600190565b6001600160a01b03165f8181527f06dda7b87282a83d65b3ac2cc8886aa501caf3437daa5bb673345bee76aff18560205260409020545f80516020611b3183398151915291905f80516020611b518339815191529060ff161561176257825f5260205260405f20815f5260205260405f2060ff19815416905533917ff6391f5c32d9c69d2a47ea670b442974b53935d1edc7fd64eb21e047a839171b5f80a4600190565b90815f525f80516020611b518339815191528060205260405f209160018060a01b031691825f5260205260ff60405f2054165f1461176257825f5260205260405f20815f5260205260405f2060ff19815416905533917ff6391f5c32d9c69d2a47ea670b442974b53935d1edc7fd64eb21e047a839171b5f80a4600190565b61ffff16801561151f576020817f17779ee1dd9074aeaed0d0488b344f60b165c081ca2ff8c5b397411683df759c9261ffff196006541617600655604051908152a1565b801561151f576020817fa0b9539af4299f339fd436bc5dc1d268cc82179e80293e9fab18e05515994ebe92600755604051908152a1565b6001600160a01b03908116908115611a7a57600854826bffffffffffffffffffffffff60a01b821617600855167f4ab5be82436d353e61ca18726e984e561f5c1cc7c6d38b29d2553c790434705a5f80a3565b60405163d92e233d60e01b8152600490fd5b60ff7ff0c57e16840df040f15088dc2f81fe391c3923bec73e23a9662efc9c229c6a005460401c1615611abb57565b604051631afcd79f60e31b8152600490fd5b90611af45750805115611ae257805190602001fd5b60405163d6bda27560e01b8152600490fd5b81511580611b27575b611b05575090565b604051639996b31560e01b81526001600160a01b039091166004820152602490fd5b50803b15611afd56fe9b7946abd96dccbe6cfc6cc2c13300ab429d93e16fa72dc459eeccda73817f0802dd7bc7dec4dceedda775e58dd541e08a116c6c53815c0bd028192f7b626800a26469706673582212209141bc5140853cead432c5d0aaa3d2bc261675c4476a1eb1bbe10cce3dd388a464736f6c63430008180033","linkReferences":{}},"methodIdentifiers":{"DEFAULT_ADMIN_ROLE()":"a217fddf","GAME_ADMIN_ROLE()":"be22d27d","UPGRADE_INTERFACE_VERSION()":"ad3cb1cc","getRoleAdmin(bytes32)":"248a9ca3","getSeedConfig(uint256)":"a1febb20","getSeedConfigs(uint256[])":"5c18261d","getShopItemConfig(bytes32)":"e9b3d7d1","getToolSpeedBps(uint256)":"799cba94","getToolSpeedBpsBatch(uint256[])":"db16fbfd","grantGameAdmin(address)":"5c9d8f76","grantRole(bytes32,address)":"2f2ff15d","hasRole(bytes32,address)":"91d14854","initialize(address,address,uint16,uint256)":"fec8157d","marketFeeBps()":"3f5c3e87","maxPlotsPerHarvest()":"d2464c00","proxiableUUID()":"52d1902d","renounceRole(bytes32,address)":"36568abe","revokeGameAdmin(address)":"8137da55","revokeRole(bytes32,address)":"d547741f","seasonBonusBps()":"901e13c0","setMarketplaceFeeBps(uint16)":"45f5b43c","setMaxPlotsPerHarvest(uint16)":"548e4677","setSeasonBonusBps(uint16)":"34d42ef8","setSeedConfig(uint256,uint32,uint32)":"23d13d7b","setSeedConfigs(uint256[],uint32[],uint32[])":"d1782a86","setShopItemConfig(bytes32,uint128,bool)":"42c5aa32","setShopItemConfigs(bytes32[],uint128[],bool[])":"25c52153","setToolSpeedBps(uint256,uint16)":"a7524280","setToolSpeedBpsBatch(uint256[],uint16[])":"1b31b609","setTreasury(address)":"f0f44260","setXpRateLimitPerTx(uint256)":"84b7b3c5","supportsInterface(bytes4)":"01ffc9a7","treasury()":"61d027b3","upgradeToAndCall(address,bytes)":"4f1ef286","xpRateLimitPerTx()":"6c0a39db"},"id":4}