{"abi":[{"type":"constructor","inputs":[{"name":"admin","type":"address","internalType":"address"},{"name":"coinFlipContract","type":"address","internalType":"address"},{"name":"treasuryAddress","type":"address","internalType":"address"},{"name":"feeBps","type":"uint16","internalType":"uint16"}],"stateMutability":"nonpayable"},{"type":"receive","stateMutability":"payable"},{"type":"function","name":"DEFAULT_ADMIN_ROLE","inputs":[],"outputs":[{"name":"","type":"bytes32","internalType":"bytes32"}],"stateMutability":"view"},{"type":"function","name":"adminRefundEscrow","inputs":[{"name":"sessionKey","type":"bytes32","internalType":"bytes32"},{"name":"recipient","type":"address","internalType":"address"}],"outputs":[],"stateMutability":"nonpayable"},{"type":"function","name":"balances","inputs":[{"name":"","type":"address","internalType":"address"}],"outputs":[{"name":"","type":"uint256","internalType":"uint256"}],"stateMutability":"view"},{"type":"function","name":"coinFlip","inputs":[],"outputs":[{"name":"","type":"address","internalType":"address"}],"stateMutability":"view"},{"type":"function","name":"emergencyWithdraw","inputs":[{"name":"recipient","type":"address","internalType":"address"}],"outputs":[],"stateMutability":"nonpayable"},{"type":"function","name":"escrow","inputs":[{"name":"","type":"bytes32","internalType":"bytes32"}],"outputs":[{"name":"","type":"uint256","internalType":"uint256"}],"stateMutability":"view"},{"type":"function","name":"gameId","inputs":[],"outputs":[{"name":"","type":"uint256","internalType":"uint256"}],"stateMutability":"view"},{"type":"function","name":"getRoleAdmin","inputs":[{"name":"role","type":"bytes32","internalType":"bytes32"}],"outputs":[{"name":"","type":"bytes32","internalType":"bytes32"}],"stateMutability":"view"},{"type":"function","name":"grantRole","inputs":[{"name":"role","type":"bytes32","internalType":"bytes32"},{"name":"account","type":"address","internalType":"address"}],"outputs":[],"stateMutability":"nonpayable"},{"type":"function","name":"hasRole","inputs":[{"name":"role","type":"bytes32","internalType":"bytes32"},{"name":"account","type":"address","internalType":"address"}],"outputs":[{"name":"","type":"bool","internalType":"bool"}],"stateMutability":"view"},{"type":"function","name":"houseFeeBps","inputs":[],"outputs":[{"name":"","type":"uint16","internalType":"uint16"}],"stateMutability":"view"},{"type":"function","name":"placeBet","inputs":[{"name":"sessionId","type":"uint64","internalType":"uint64"}],"outputs":[],"stateMutability":"payable"},{"type":"function","name":"renounceRole","inputs":[{"name":"role","type":"bytes32","internalType":"bytes32"},{"name":"callerConfirmation","type":"address","internalType":"address"}],"outputs":[],"stateMutability":"nonpayable"},{"type":"function","name":"revokeRole","inputs":[{"name":"role","type":"bytes32","internalType":"bytes32"},{"name":"account","type":"address","internalType":"address"}],"outputs":[],"stateMutability":"nonpayable"},{"type":"function","name":"setHouseFeeBps","inputs":[{"name":"newFeeBps","type":"uint16","internalType":"uint16"}],"outputs":[],"stateMutability":"nonpayable"},{"type":"function","name":"setTreasury","inputs":[{"name":"newTreasury","type":"address","internalType":"address"}],"outputs":[],"stateMutability":"nonpayable"},{"type":"function","name":"settle","inputs":[{"name":"user","type":"address","internalType":"address"},{"name":"sessionId","type":"uint64","internalType":"uint64"},{"name":"submittedGameId","type":"uint256","internalType":"uint256"},{"name":"multiplierX100","type":"uint256","internalType":"uint256"},{"name":"outcome","type":"uint8","internalType":"uint8"},{"name":"guess","type":"uint8","internalType":"uint8"}],"outputs":[],"stateMutability":"nonpayable"},{"type":"function","name":"settled","inputs":[{"name":"","type":"bytes32","internalType":"bytes32"}],"outputs":[{"name":"","type":"bool","internalType":"bool"}],"stateMutability":"view"},{"type":"function","name":"supportsInterface","inputs":[{"name":"interfaceId","type":"bytes4","internalType":"bytes4"}],"outputs":[{"name":"","type":"bool","internalType":"bool"}],"stateMutability":"view"},{"type":"function","name":"treasury","inputs":[],"outputs":[{"name":"","type":"address","internalType":"address"}],"stateMutability":"view"},{"type":"function","name":"withdraw","inputs":[{"name":"amount","type":"uint256","internalType":"uint256"}],"outputs":[],"stateMutability":"nonpayable"},{"type":"event","name":"BetPlaced","inputs":[{"name":"bettor","type":"address","indexed":true,"internalType":"address"},{"name":"sessionKey","type":"bytes32","indexed":true,"internalType":"bytes32"},{"name":"amount","type":"uint256","indexed":false,"internalType":"uint256"}],"anonymous":false},{"type":"event","name":"EmergencyWithdrawal","inputs":[{"name":"recipient","type":"address","indexed":true,"internalType":"address"},{"name":"amount","type":"uint256","indexed":false,"internalType":"uint256"}],"anonymous":false},{"type":"event","name":"EscrowRefunded","inputs":[{"name":"sessionKey","type":"bytes32","indexed":true,"internalType":"bytes32"},{"name":"recipient","type":"address","indexed":true,"internalType":"address"},{"name":"amount","type":"uint256","indexed":false,"internalType":"uint256"}],"anonymous":false},{"type":"event","name":"FeeUpdated","inputs":[{"name":"previousFeeBps","type":"uint16","indexed":false,"internalType":"uint16"},{"name":"newFeeBps","type":"uint16","indexed":false,"internalType":"uint16"}],"anonymous":false},{"type":"event","name":"RoleAdminChanged","inputs":[{"name":"role","type":"bytes32","indexed":true,"internalType":"bytes32"},{"name":"previousAdminRole","type":"bytes32","indexed":true,"internalType":"bytes32"},{"name":"newAdminRole","type":"bytes32","indexed":true,"internalType":"bytes32"}],"anonymous":false},{"type":"event","name":"RoleGranted","inputs":[{"name":"role","type":"bytes32","indexed":true,"internalType":"bytes32"},{"name":"account","type":"address","indexed":true,"internalType":"address"},{"name":"sender","type":"address","indexed":true,"internalType":"address"}],"anonymous":false},{"type":"event","name":"RoleRevoked","inputs":[{"name":"role","type":"bytes32","indexed":true,"internalType":"bytes32"},{"name":"account","type":"address","indexed":true,"internalType":"address"},{"name":"sender","type":"address","indexed":true,"internalType":"address"}],"anonymous":false},{"type":"event","name":"Settled","inputs":[{"name":"user","type":"address","indexed":true,"internalType":"address"},{"name":"sessionId","type":"uint64","indexed":true,"internalType":"uint64"},{"name":"gameId","type":"uint256","indexed":true,"internalType":"uint256"},{"name":"stake","type":"uint256","indexed":false,"internalType":"uint256"},{"name":"gross","type":"uint256","indexed":false,"internalType":"uint256"},{"name":"fee","type":"uint256","indexed":false,"internalType":"uint256"},{"name":"net","type":"uint256","indexed":false,"internalType":"uint256"},{"name":"outcome","type":"uint8","indexed":false,"internalType":"uint8"},{"name":"guess","type":"uint8","indexed":false,"internalType":"uint8"}],"anonymous":false},{"type":"event","name":"TreasuryUpdated","inputs":[{"name":"previousTreasury","type":"address","indexed":true,"internalType":"address"},{"name":"newTreasury","type":"address","indexed":true,"internalType":"address"}],"anonymous":false},{"type":"event","name":"Withdrawn","inputs":[{"name":"user","type":"address","indexed":true,"internalType":"address"},{"name":"amount","type":"uint256","indexed":false,"internalType":"uint256"}],"anonymous":false},{"type":"error","name":"AccessControlBadConfirmation","inputs":[]},{"type":"error","name":"AccessControlUnauthorizedAccount","inputs":[{"name":"account","type":"address","internalType":"address"},{"name":"neededRole","type":"bytes32","internalType":"bytes32"}]},{"type":"error","name":"AlreadySettled","inputs":[]},{"type":"error","name":"BetAlreadyPlaced","inputs":[]},{"type":"error","name":"InvalidAmount","inputs":[]},{"type":"error","name":"InvalidFee","inputs":[]},{"type":"error","name":"InvalidRecipient","inputs":[]},{"type":"error","name":"InvalidTreasury","inputs":[]},{"type":"error","name":"NoEscrow","inputs":[]},{"type":"error","name":"ReentrancyGuardReentrantCall","inputs":[]},{"type":"error","name":"SessionConsumed","inputs":[]},{"type":"error","name":"SessionNotVerified","inputs":[]}],"bytecode":{"object":"0x60c0604090808252346200018957608081620012ea8038038091620000258285620001d8565b83398101031262000189576200003b8162000210565b620000496020830162000210565b9060606200005985850162000210565b9301519161ffff8316938484036200018957600180556001600160a01b038381169590949086158015620001cd575b8015620001c2575b620001b15761271010620001a0576080839052600280546001600160b01b0319169286169290921760a09190911b61ffff60a01b16179055845163d7c81b5560e01b81529260209184916004918391165afa801562000196575f9062000157575b62000100925060a05262000225565b50330362000145575b516110229081620002a882396080518181816101fb015281816108e40152610a7e015260a05181818161022d0152818161056301526108ab0152f35b620001503362000225565b5062000109565b506020823d6020116200018d575b816200017460209383620001d8565b810103126200018957620001009151620000f1565b5f80fd5b3d915062000165565b84513d5f823e3d90fd5b86516358d620b360e01b8152600490fd5b87516302979eb960e31b8152600490fd5b508583161562000090565b508584161562000088565b601f909101601f19168101906001600160401b03821190821017620001fc57604052565b634e487b7160e01b5f52604160045260245ffd5b51906001600160a01b03821682036200018957565b6001600160a01b03165f8181525f80516020620012ca833981519152602052604090205460ff16620002a2575f8181525f80516020620012ca83398151915260205260408120805460ff191660011790553391907f2f8788117e7eff1d82e926ec794901d17c78024a50270940304540a733656f0d8180a4600190565b505f9056fe608060409080825260049081361015610022575b5050503615610020575f80fd5b005b5f3560e01c90816301ffc9a714610cfa575080630b4bf6f014610c67578063248a9ca314610c3d57806327e235e314610c075780632e1a7d4d14610b1b5780632f2ff15d14610af257806336568abe14610aad5780635ac947cb14610a6a57806361d027b314610a425780636796debf1461086d5780636ff1c9bc1461074b57806391d1485414610707578063a217fddf146106ed578063a7e75032146106c5578063af8cdd84146105c0578063d547741f14610586578063d7c81b551461054c578063d945af1d1461051f578063ee59d240146104fa578063f0e18def1461019d5763f0f44260146101155780610013565b346101995760203660031901126101995761012e610d4c565b90610137610e46565b6001600160a01b0391821692831561018c575050600254826bffffffffffffffffffffffff60a01b821617600255167f4ab5be82436d353e61ca18726e984e561f5c1cc7c6d38b29d2553c790434705a5f80a3005b516302979eb960e31b8152fd5b5f80fd5b5090346101995760c0366003190112610199576101b8610d4c565b9060243567ffffffffffffffff811692838203610199576044359460843560ff81168091036101995760a4359160ff83168093036101995760018060a01b0394857f000000000000000000000000000000000000000000000000000000000000000016968733036104b85761022b610edb565b7f00000000000000000000000000000000000000000000000000000000000000008a0361044357805163675676c960e11b81526001600160a01b03871684820190815260208181018d905267ffffffffffffffff909416604082015290989083908a9081906060010381845afa98891561047f575f99610489575b5082602491835192838092635baede1960e11b82528d898301525afa90811561047f575f91610452575b501561044357875f526005825260ff815f20541661043557875f5260038252805f205497881561042557917f273b796921b4ccaba27eaa11bf8a76d5264285955918636244b7a224c65957829795939160c09795935f5260058252805f20600160ff19825416179055600382525f81812055606461034f81358c610e26565b0461271061036661ffff60025460a01c1683610e26565b049283821061041e576103798483610d78565b945b85610401575b846103e2575b8c838181106103b7575b50505082519b8c528b01528901526060880152608087015260a08601521692a460018055005b6103c091610d78565b908a600254165f5282526103d8845f20918254610e39565b90555f8c83610391565b89600254165f52808252835f206103fa868254610e39565b9055610387565b8989165f52808252835f20610417878254610e39565b9055610381565b5f9461037b565b815163769cabf160e01b81528490fd5b5162560ff960e81b81529050fd5b51637c5f015360e01b81529050fd5b6104729150833d8511610478575b61046a8183610d99565b810190610e0e565b5f6102d0565b503d610460565b82513d5f823e3d90fd5b9098508281813d83116104b1575b6104a18183610d99565b81010312610199575197826102a6565b503d610497565b5162461bcd60e51b8152602081840181905260248201527f436f696e466c69705661756c743a206e6f742067616d6520636f6e74726163746044820152606490fd5b8234610199575f3660031901126101995760209061ffff60025460a01c169051908152f35b50903461019957602036600319011261019957602091355f526005825260ff815f20541690519015158152f35b8234610199575f36600319011261019957602090517f00000000000000000000000000000000000000000000000000000000000000008152f35b50903461019957806003193601126101995761002091356105bb60016105aa610d62565b93835f525f6020525f200154610e9c565b610f7a565b5090346101995780600319360112610199578135906105dd610d62565b906105e6610e46565b6105ee610edb565b6001600160a01b0382169384156106b757835f526003602052815f20549283156106a8575f8080868194898352600360205282888120555af161062f610dcf565b501561066657507ffc31a7ddbe933aa6e67f3c98c183fbc87addd2b602fcfb10238d2f85cf0266179160209151908152a360018055005b6020606492519162461bcd60e51b8352820152601c60248201527f436f696e466c69705661756c743a20726566756e64206661696c6564000000006044820152fd5b50905163769cabf160e01b8152fd5b9051634e46966960e11b8152fd5b50903461019957602036600319011261019957602091355f5260038252805f20549051908152f35b8234610199575f36600319011261019957602090515f8152f35b509034610199578060031936011261019957602091610724610d62565b90355f525f8352815f209060018060a01b03165f52825260ff815f20541690519015158152f35b50903461019957602036600319011261019957610766610d4c565b9061076f610e46565b610777610edb565b6001600160a01b0382169283156106b7574792831561082a575f80808681945af16107a0610dcf565b50156107d757507f23d6711a1d031134a36921253c75aa59e967d38e369ac625992824315e204f209160209151908152a260018055005b6020608492519162461bcd60e51b8352820152602860248201527f436f696e466c69705661756c743a20656d657267656e637920776974686472616044820152671dc819985a5b195960c21b6064820152fd5b506020606492519162461bcd60e51b8352820152601760248201527f436f696e466c69705661756c743a206e6f2066756e64730000000000000000006044820152fd5b50906020908160031936011261019957823567ffffffffffffffff81168103610199573415610a3257815163675676c960e11b8152338186019081527f0000000000000000000000000000000000000000000000000000000000000000602082015267ffffffffffffffff909216604083015293907f00000000000000000000000000000000000000000000000000000000000000006001600160a01b0316908490869081906060010381845afa9485156109eb575f95610a03575b50845f526005845260ff835f2054166109f55783602491845192838092635baede1960e11b825289878301525afa9081156109eb575f916109ce575b506109c057835f5260038352815f20546109b257507fe9a2cbce8726843bc0e7ed0322f7fdfbc3a351f26352fcd9c6eb888b57d3daff90835f526003835234815f205551913483523392a3005b90516318ade6cb60e21b8152fd5b905163c41aba6f60e01b8152fd5b6109e59150843d86116104785761046a8183610d99565b5f610965565b83513d5f823e3d90fd5b50905162560ff960e81b8152fd5b9094508381813d8311610a2b575b610a1b8183610d99565b810103126101995751935f610929565b503d610a11565b815163162908e360e11b81528490fd5b8234610199575f3660031901126101995760025490516001600160a01b039091168152602090f35b8234610199575f36600319011261019957517f00000000000000000000000000000000000000000000000000000000000000006001600160a01b03168152602090f35b509034610199578060031936011261019957610ac7610d62565b90336001600160a01b03831603610ae357506100209135610f7a565b5163334bd91960e11b81529050fd5b5090346101995780600319360112610199576100209135610b1660016105aa610d62565b610efe565b50903461019957602036600319011261019957813591610b39610edb565b82158015610bf4575b610be657335f5280602052815f20610b5b848254610d78565b90555f80808086335af1610b6d610dcf565b5015610ba45750519081527f7084f5476618d8e60b11ef0d7d3f06914655adb8793e28ff7f018d4c76d505d560203392a260018055005b6020606492519162461bcd60e51b8352820152601e60248201527f436f696e466c69705661756c743a207769746864726177206661696c656400006044820152fd5b905163162908e360e11b8152fd5b50335f5280602052815f20548311610b42565b509034610199576020366003190112610199576020916001600160a01b03610c2d610d4c565b165f528252805f20549051908152f35b50903461019957602036600319011261019957602091355f525f82526001815f2001549051908152f35b50903461019957602036600319011261019957813561ffff8082169081830361019957610c92610e46565b6127108211610cea576002805461ffff60a01b19811660a095861b61ffff60a01b16179091558451931c16825260208201527f2e7c4279000925b8ff0bca0e7109cbc47fc6f6c4edfb831ffe7466cf0af07fa09250a1005b505050516358d620b360e01b8152fd5b823461019957602036600319011261019957359063ffffffff60e01b821680920361019957602091637965db0b60e01b8114908115610d3b575b5015158152f35b6301ffc9a760e01b14905083610d34565b600435906001600160a01b038216820361019957565b602435906001600160a01b038216820361019957565b91908203918211610d8557565b634e487b7160e01b5f52601160045260245ffd5b90601f8019910116810190811067ffffffffffffffff821117610dbb57604052565b634e487b7160e01b5f52604160045260245ffd5b3d15610e09573d9067ffffffffffffffff8211610dbb5760405191610dfe601f8201601f191660200184610d99565b82523d5f602084013e565b606090565b90816020910312610199575180151581036101995790565b81810292918115918404141715610d8557565b91908201809211610d8557565b335f9081527fad3228b676f7d3cd4284a5443f17f1962b36e491b30a40b2405849e597ba5fb5602052604090205460ff1615610e7e57565b60405163e2517d3f60e01b81523360048201525f6024820152604490fd5b805f525f60205260405f20335f5260205260ff60405f20541615610ebd5750565b6044906040519063e2517d3f60e01b82523360048301526024820152fd5b600260015414610eec576002600155565b604051633ee5aeb560e01b8152600490fd5b90815f525f60205260405f209060018060a01b031690815f5260205260ff60405f205416155f14610f7457815f525f60205260405f20815f5260205260405f20600160ff1982541617905533917f2f8788117e7eff1d82e926ec794901d17c78024a50270940304540a733656f0d5f80a4600190565b50505f90565b90815f525f60205260405f209060018060a01b031690815f5260205260ff60405f2054165f14610f7457815f525f60205260405f20815f5260205260405f2060ff19815416905533917ff6391f5c32d9c69d2a47ea670b442974b53935d1edc7fd64eb21e047a839171b5f80a460019056fea2646970667358221220f4af23d666a1725d7abf3d08e6404a0610f8da06b674d79b3257cc71fd221d8c64736f6c63430008180033ad3228b676f7d3cd4284a5443f17f1962b36e491b30a40b2405849e597ba5fb5","linkReferences":{}},"methodIdentifiers":{"DEFAULT_ADMIN_ROLE()":"a217fddf","adminRefundEscrow(bytes32,address)":"af8cdd84","balances(address)":"27e235e3","coinFlip()":"5ac947cb","emergencyWithdraw(address)":"6ff1c9bc","escrow(bytes32)":"a7e75032","gameId()":"d7c81b55","getRoleAdmin(bytes32)":"248a9ca3","grantRole(bytes32,address)":"2f2ff15d","hasRole(bytes32,address)":"91d14854","houseFeeBps()":"ee59d240","placeBet(uint64)":"6796debf","renounceRole(bytes32,address)":"36568abe","revokeRole(bytes32,address)":"d547741f","setHouseFeeBps(uint16)":"0b4bf6f0","setTreasury(address)":"f0f44260","settle(address,uint64,uint256,uint256,uint8,uint8)":"f0e18def","settled(bytes32)":"d945af1d","supportsInterface(bytes4)":"01ffc9a7","treasury()":"61d027b3","withdraw(uint256)":"2e1a7d4d"},"id":55}