{"abi":[{"type":"constructor","inputs":[{"name":"admin","type":"address","internalType":"address"},{"name":"initialGameSigner","type":"address","internalType":"address"},{"name":"registryProxy","type":"address","internalType":"address"},{"name":"gameId_","type":"uint256","internalType":"uint256"}],"stateMutability":"nonpayable"},{"type":"function","name":"DEFAULT_ADMIN_ROLE","inputs":[],"outputs":[{"name":"","type":"bytes32","internalType":"bytes32"}],"stateMutability":"view"},{"type":"function","name":"GAME_ID","inputs":[],"outputs":[{"name":"","type":"uint256","internalType":"uint256"}],"stateMutability":"view"},{"type":"function","name":"REGISTRY","inputs":[],"outputs":[{"name":"","type":"address","internalType":"contract IXPRegistry"}],"stateMutability":"view"},{"type":"function","name":"RESULT_TYPEHASH","inputs":[],"outputs":[{"name":"","type":"bytes32","internalType":"bytes32"}],"stateMutability":"view"},{"type":"function","name":"domainSeparator","inputs":[],"outputs":[{"name":"","type":"bytes32","internalType":"bytes32"}],"stateMutability":"view"},{"type":"function","name":"eip712Domain","inputs":[],"outputs":[{"name":"fields","type":"bytes1","internalType":"bytes1"},{"name":"name","type":"string","internalType":"string"},{"name":"version","type":"string","internalType":"string"},{"name":"chainId","type":"uint256","internalType":"uint256"},{"name":"verifyingContract","type":"address","internalType":"address"},{"name":"salt","type":"bytes32","internalType":"bytes32"},{"name":"extensions","type":"uint256[]","internalType":"uint256[]"}],"stateMutability":"view"},{"type":"function","name":"gameId","inputs":[],"outputs":[{"name":"","type":"uint256","internalType":"uint256"}],"stateMutability":"view"},{"type":"function","name":"gameSigner","inputs":[],"outputs":[{"name":"","type":"address","internalType":"address"}],"stateMutability":"view"},{"type":"function","name":"getRoleAdmin","inputs":[{"name":"role","type":"bytes32","internalType":"bytes32"}],"outputs":[{"name":"","type":"bytes32","internalType":"bytes32"}],"stateMutability":"view"},{"type":"function","name":"grantRole","inputs":[{"name":"role","type":"bytes32","internalType":"bytes32"},{"name":"account","type":"address","internalType":"address"}],"outputs":[],"stateMutability":"nonpayable"},{"type":"function","name":"hasRole","inputs":[{"name":"role","type":"bytes32","internalType":"bytes32"},{"name":"account","type":"address","internalType":"address"}],"outputs":[{"name":"","type":"bool","internalType":"bool"}],"stateMutability":"view"},{"type":"function","name":"hashResult","inputs":[{"name":"result","type":"tuple","internalType":"struct Degenshoot.Result","components":[{"name":"user","type":"address","internalType":"address"},{"name":"gameId","type":"uint256","internalType":"uint256"},{"name":"sessionId","type":"uint64","internalType":"uint64"},{"name":"score","type":"uint32","internalType":"uint32"},{"name":"kills","type":"uint32","internalType":"uint32"},{"name":"timeAlive","type":"uint32","internalType":"uint32"},{"name":"wager","type":"uint256","internalType":"uint256"},{"name":"multiplierX100","type":"uint256","internalType":"uint256"},{"name":"xp","type":"uint256","internalType":"uint256"},{"name":"deadline","type":"uint256","internalType":"uint256"}]}],"outputs":[{"name":"","type":"bytes32","internalType":"bytes32"}],"stateMutability":"view"},{"type":"function","name":"pause","inputs":[],"outputs":[],"stateMutability":"nonpayable"},{"type":"function","name":"paused","inputs":[],"outputs":[{"name":"","type":"bool","internalType":"bool"}],"stateMutability":"view"},{"type":"function","name":"renounceRole","inputs":[{"name":"role","type":"bytes32","internalType":"bytes32"},{"name":"callerConfirmation","type":"address","internalType":"address"}],"outputs":[],"stateMutability":"nonpayable"},{"type":"function","name":"revokeRole","inputs":[{"name":"role","type":"bytes32","internalType":"bytes32"},{"name":"account","type":"address","internalType":"address"}],"outputs":[],"stateMutability":"nonpayable"},{"type":"function","name":"sessionKey","inputs":[{"name":"user","type":"address","internalType":"address"},{"name":"gameId_","type":"uint256","internalType":"uint256"},{"name":"sessionId","type":"uint64","internalType":"uint64"}],"outputs":[{"name":"","type":"bytes32","internalType":"bytes32"}],"stateMutability":"pure"},{"type":"function","name":"sessionUsed","inputs":[{"name":"","type":"bytes32","internalType":"bytes32"}],"outputs":[{"name":"","type":"bool","internalType":"bool"}],"stateMutability":"view"},{"type":"function","name":"setGameSigner","inputs":[{"name":"newSigner","type":"address","internalType":"address"}],"outputs":[],"stateMutability":"nonpayable"},{"type":"function","name":"setWagerVault","inputs":[{"name":"newVault","type":"address","internalType":"address"}],"outputs":[],"stateMutability":"nonpayable"},{"type":"function","name":"submitResultAndClaimXP","inputs":[{"name":"result","type":"tuple","internalType":"struct Degenshoot.Result","components":[{"name":"user","type":"address","internalType":"address"},{"name":"gameId","type":"uint256","internalType":"uint256"},{"name":"sessionId","type":"uint64","internalType":"uint64"},{"name":"score","type":"uint32","internalType":"uint32"},{"name":"kills","type":"uint32","internalType":"uint32"},{"name":"timeAlive","type":"uint32","internalType":"uint32"},{"name":"wager","type":"uint256","internalType":"uint256"},{"name":"multiplierX100","type":"uint256","internalType":"uint256"},{"name":"xp","type":"uint256","internalType":"uint256"},{"name":"deadline","type":"uint256","internalType":"uint256"}]},{"name":"resultSignature","type":"bytes","internalType":"bytes"},{"name":"xpDeadline","type":"uint256","internalType":"uint256"},{"name":"xpSignature","type":"bytes","internalType":"bytes"}],"outputs":[],"stateMutability":"nonpayable"},{"type":"function","name":"supportsInterface","inputs":[{"name":"interfaceId","type":"bytes4","internalType":"bytes4"}],"outputs":[{"name":"","type":"bool","internalType":"bool"}],"stateMutability":"view"},{"type":"function","name":"unpause","inputs":[],"outputs":[],"stateMutability":"nonpayable"},{"type":"function","name":"wagerVault","inputs":[],"outputs":[{"name":"","type":"address","internalType":"contract IWagerVault"}],"stateMutability":"view"},{"type":"event","name":"EIP712DomainChanged","inputs":[],"anonymous":false},{"type":"event","name":"GameSignerUpdated","inputs":[{"name":"previousSigner","type":"address","indexed":true,"internalType":"address"},{"name":"newSigner","type":"address","indexed":true,"internalType":"address"}],"anonymous":false},{"type":"event","name":"Paused","inputs":[{"name":"account","type":"address","indexed":false,"internalType":"address"}],"anonymous":false},{"type":"event","name":"ResultAccepted","inputs":[{"name":"user","type":"address","indexed":true,"internalType":"address"},{"name":"sessionId","type":"uint64","indexed":true,"internalType":"uint64"},{"name":"xp","type":"uint256","indexed":false,"internalType":"uint256"},{"name":"gameId","type":"uint256","indexed":true,"internalType":"uint256"}],"anonymous":false},{"type":"event","name":"RoleAdminChanged","inputs":[{"name":"role","type":"bytes32","indexed":true,"internalType":"bytes32"},{"name":"previousAdminRole","type":"bytes32","indexed":true,"internalType":"bytes32"},{"name":"newAdminRole","type":"bytes32","indexed":true,"internalType":"bytes32"}],"anonymous":false},{"type":"event","name":"RoleGranted","inputs":[{"name":"role","type":"bytes32","indexed":true,"internalType":"bytes32"},{"name":"account","type":"address","indexed":true,"internalType":"address"},{"name":"sender","type":"address","indexed":true,"internalType":"address"}],"anonymous":false},{"type":"event","name":"RoleRevoked","inputs":[{"name":"role","type":"bytes32","indexed":true,"internalType":"bytes32"},{"name":"account","type":"address","indexed":true,"internalType":"address"},{"name":"sender","type":"address","indexed":true,"internalType":"address"}],"anonymous":false},{"type":"event","name":"SessionConsumed","inputs":[{"name":"key","type":"bytes32","indexed":true,"internalType":"bytes32"}],"anonymous":false},{"type":"event","name":"Unpaused","inputs":[{"name":"account","type":"address","indexed":false,"internalType":"address"}],"anonymous":false},{"type":"event","name":"WagerVaultUpdated","inputs":[{"name":"previousVault","type":"address","indexed":true,"internalType":"address"},{"name":"newVault","type":"address","indexed":true,"internalType":"address"}],"anonymous":false},{"type":"error","name":"AccessControlBadConfirmation","inputs":[]},{"type":"error","name":"AccessControlUnauthorizedAccount","inputs":[{"name":"account","type":"address","internalType":"address"},{"name":"neededRole","type":"bytes32","internalType":"bytes32"}]},{"type":"error","name":"ECDSAInvalidSignature","inputs":[]},{"type":"error","name":"ECDSAInvalidSignatureLength","inputs":[{"name":"length","type":"uint256","internalType":"uint256"}]},{"type":"error","name":"ECDSAInvalidSignatureS","inputs":[{"name":"s","type":"bytes32","internalType":"bytes32"}]},{"type":"error","name":"EnforcedPause","inputs":[]},{"type":"error","name":"ExpectedPause","inputs":[]},{"type":"error","name":"InvalidResult","inputs":[]},{"type":"error","name":"InvalidResultSignature","inputs":[]},{"type":"error","name":"InvalidShortString","inputs":[]},{"type":"error","name":"InvalidVault","inputs":[]},{"type":"error","name":"ReentrancyGuardReentrantCall","inputs":[]},{"type":"error","name":"ResultExpired","inputs":[]},{"type":"error","name":"SessionAlreadyConsumed","inputs":[]},{"type":"error","name":"StringTooLong","inputs":[{"name":"str","type":"string","internalType":"string"}]}],"bytecode":{"object":"0x6101a03462000277576001600160401b0390601f62001b8138819003918201601f19168301919084831184841017620002635781608092859260409586528339810103126200027757620000538262000297565b91620000626020820162000297565b9360606200007284840162000297565b9201519280519162000084836200027b565b600a8352602083019569111959d95b9cda1bdbdd60b21b8752825197620000ab896200027b565b6001895260208901603160f81b815260ff19600154166001556001600255620000d4866200032e565b98610120998a52620000e68b620004fa565b96610140978852519020998a60e0525190209861010099808b524660a05285519060208201927f8b73c3c69bb8fe3d512ecc4cf759cc79239f7b179b0ffacaa9a75d522b39400f84528783015260608201524660808201523060a082015260a0815260c08101948186109086111762000263578486525190206080523060c0526001600160a01b03828116939091908415801562000258575b80156200024d575b6200023f575090620001b9929181610160981688526101809889521660018060a01b03196005541617600555620002ac565b5033036200022d575b51936114a89586620006b9873960805186611048015260a05186611113015260c05186611012015260e05186611097015251856110bd015251846103200152518361034a01525182818161081b0152610b4d0152518181816104ff015281816109650152610c7d0152f35b6200023833620002ac565b50620001c2565b62f8b33f60e71b8152600490fd5b508288161562000187565b50828216156200017f565b634e487b7160e01b5f52604160045260245ffd5b5f80fd5b604081019081106001600160401b038211176200026357604052565b51906001600160a01b03821682036200027757565b6001600160a01b03165f8181525f8051602062001b61833981519152602052604090205460ff1662000329575f8181525f8051602062001b6183398151915260205260408120805460ff191660011790553391907f2f8788117e7eff1d82e926ec794901d17c78024a50270940304540a733656f0d8180a4600190565b505f90565b80516020919082811015620003ca575090601f8251116200036b57808251920151908083106200035d57501790565b825f19910360031b1b161790565b90604051809263305a27a960e01b82528060048301528251908160248401525f935b828510620003b0575050604492505f838284010152601f80199101168101030190fd5b84810182015186860160440152938101938593506200038d565b6001600160401b03811162000263576003928354926001938481811c91168015620004ef575b83821014620004db57601f8111620004a5575b5081601f84116001146200044057509282939183925f9462000434575b50501b915f1990841b1c191617905560ff90565b015192505f8062000420565b919083601f198116875f52845f20945f905b888383106200048a575050501062000472575b505050811b01905560ff90565b01515f1983861b60f8161c191690555f808062000465565b85870151885590960195948501948793509081019062000452565b855f5284601f845f20920160051c820191601f860160051c015b828110620004cf57505062000403565b5f8155018590620004bf565b634e487b7160e01b5f52602260045260245ffd5b90607f1690620003f0565b8051602091908281101562000588575090601f8251116200052957808251920151908083106200035d57501790565b90604051809263305a27a960e01b82528060048301528251908160248401525f935b8285106200056e575050604492505f838284010152601f80199101168101030190fd5b84810182015186860160440152938101938593506200054b565b6001600160401b03811162000263576004928354926001938481811c91168015620006ad575b838210146200069a57601f811162000664575b5081601f8411600114620005ff57509282939183925f94620005f3575b50501b915f199060031b1c191617905560ff90565b015192505f80620005de565b919083601f198116875f52845f20945f905b888383106200064957505050106200063057505050811b01905560ff90565b01515f1960f88460031b161c191690555f808062000465565b85870151885590960195948501948793509081019062000611565b855f5284601f845f20920160051c820191601f860160051c015b8281106200068e575050620005c1565b5f81550185906200067e565b602286634e487b7160e01b5f525260245ffd5b90607f1690620005ae56fe6080806040526004361015610012575f80fd5b5f803560e01c91826301ffc9a714610b7c5750816306433b1b14610b385781630e94377014610b1c578163123f8e9f14610ae2578163248a9ca314610ab65781632f2ff15d14610a7a57816336568abe14610a3157816337d01f7a14610a095781633f4ba83a146109a0578163451dd508146105b85781634ba8c8ba146104a55781635c975abb146104835781638456cb591461042a57816384b0196e1461030b57816384df5d84146102e357816391d148541461029b578163a217fddf14610280578163b75dbc3214610252578163ceaced9214610216578163d547741f146101d6578163d7c81b5514610126578163f698da25146101b4578163f6c4c1f21461012b575063fdcdb06b14610126575f80fd5b610c66565b346101b15760203660031901126101b157610144610be5565b61014c610e6e565b6001600160a01b039081169081156101a057600554826bffffffffffffffffffffffff60a01b821617600555167f95bf77405dc98a9827fe9646d660121020e20cf0915f7a9bb43ef9ad22e9858c8380a380f35b60405162f8b33f60e71b8152600490fd5b80fd5b346101b157806003193601126101b15760206101ce61100f565b604051908152f35b346101b15760403660031901126101b1576102126004356101f5610bcf565b908084528360205261020d6001604086200154610ec4565b610f7f565b5080f35b346101b15760603660031901126101b15761022f610be5565b604435916001600160401b03831683036101b15760206101ce8460243585610d1b565b346101b15760203660031901126101b15760ff60406020926004358152600784522054166040519015158152f35b346101b157806003193601126101b157602090604051908152f35b346101b15760403660031901126101b15760406102b6610bcf565b91600435815280602052209060018060a01b03165f52602052602060ff60405f2054166040519015158152f35b346101b157806003193601126101b1576006546040516001600160a01b039091168152602090f35b346101b157806003193601126101b1576103447f00000000000000000000000000000000000000000000000000000000000000006111f6565b9061036e7f000000000000000000000000000000000000000000000000000000000000000061131d565b906040519060209060208301938385106001600160401b038611176104165792849260206103cc88966103be98604052858552604051988998600f60f81b8a5260e0858b015260e08a0190610c28565b9088820360408a0152610c28565b924660608801523060808801528460a088015286840360c088015251928381520193925b8281106103ff57505050500390f35b8351855286955093810193928101926001016103f0565b634e487b7160e01b5f52604160045260245ffd5b346101b157806003193601126101b157610442610e6e565b61044a610ff1565b600160ff19815416176001557f62e78cea01bee320cd4e420270b5ea74000d11b0c9f74754ebdbfc544b05a2586020604051338152a180f35b346101b157806003193601126101b157602060ff600154166040519015158152f35b346101b15760203660031901126101b1576104be610be5565b6104c6610e6e565b6001600160a01b039081169081156105655760405163d7c81b5560e01b8152602081600481865afa9081156105ad578491610577575b507f00000000000000000000000000000000000000000000000000000000000000000361056557600654826bffffffffffffffffffffffff60a01b821617600655167f105ff14ef8e5079e00eb38267ac5c65986de3c484334ea7386dfdd85990aa0998380a380f35b604051630681d31960e51b8152600490fd5b90506020813d6020116105a5575b8161059260209383610cfa565b810103126105a15751846104fc565b8380fd5b3d9150610585565b6040513d86823e3d90fd5b346109115736600319016101a08112610911576101401361091157610144356001600160401b038111610911576105f3903690600401610bfb565b610184929192356001600160401b03811161091157610616903690600401610bfb565b939091610621610ff1565b600280541461098e57600280556001600160a01b0361063e610ca0565b16158015610962575b8015610957575b6101a057610124354211801561094b575b6109395761068061066e610ca0565b610676610cb6565b9060243590610d1b565b91825f52600760205260ff60405f2054166109275761069d610d61565b6001600160401b03831161041657604051906106c3601f8501601f191660200183610cfa565b8382523684840111610911575f6020856106f1966106e8968387013784010152611139565b90929192611173565b6005546001600160a01b0390811691160361091557805f52600760205260405f20600160ff19825416179055604051907f3a7183231e66566c6b2b23b548622350178be0897a7db09e0ebbc5fb9b017a675f80a261074d610ca0565b610755610cb6565b610104358352602435926001600160401b03909116916001600160a01b0316907ff538f3e42d4d37e8c5e454e9e5f593d1372cdf345158eb552fb9ccd6e145d7aa90602090a46006546001600160a01b03168015610565576107b5610ca0565b6107bd610cb6565b823b156109115760845f92836001600160401b039560405196879586946310debffd60e11b865260018060a01b03166004860152166024840152602435604484015260e43560648401525af18015610906576108f3575b50909182917f00000000000000000000000000000000000000000000000000000000000000006001600160a01b031661084b610ca0565b90803b156108ef5784928360c4869460405197889687958693635f1befb360e11b855260018060a01b03166004850152602435602485015261010435604485015261016435606485015260a060848501528160a4850152848401378181018301849052601f01601f191681010301925af180156108e4576108d0575b50600160025580f35b6108d990610ccc565b6101b15780826108c7565b6040513d84823e3d90fd5b8480fd5b6108fe919250610ccc565b5f9083610814565b6040513d5f823e3d90fd5b5f80fd5b60405163e8e500cf60e01b8152600490fd5b604051630205868160e61b8152600490fd5b6040516322cafab360e01b8152600490fd5b5061016435421161065f565b50610104351561064e565b507f00000000000000000000000000000000000000000000000000000000000000006024351415610647565b604051633ee5aeb560e01b8152600490fd5b34610911575f366003190112610911576109b8610e6e565b60015460ff8116156109f75760ff19166001557f5db9ee0a495bf2e6ff9c91a7834c1ba4fdd244a5e8aa4e537bd38aeae4b073aa6020604051338152a1005b604051638dfc202b60e01b8152600490fd5b34610911575f366003190112610911576005546040516001600160a01b039091168152602090f35b3461091157604036600319011261091157610a4a610bcf565b336001600160a01b03821603610a6857610a6690600435610f7f565b005b60405163334bd91960e11b8152600490fd5b3461091157604036600319011261091157610a66600435610a99610bcf565b90805f525f602052610ab1600160405f200154610ec4565b610f03565b34610911576020366003190112610911576004355f525f6020526020600160405f200154604051908152f35b34610911575f3660031901126109115760206040517fc0969fb8597d7cceb2fe6e22ccc24a5907ec2758aa646095fb356be693f8fb218152f35b34610911576101403660031901126109115760206101ce610d61565b34610911575f366003190112610911576040517f00000000000000000000000000000000000000000000000000000000000000006001600160a01b03168152602090f35b34610911576020366003190112610911576004359063ffffffff60e01b821680920361091157602091637965db0b60e01b8114908115610bbe575b5015158152f35b6301ffc9a760e01b14905083610bb7565b602435906001600160a01b038216820361091157565b600435906001600160a01b038216820361091157565b9181601f84011215610911578235916001600160401b038311610911576020838186019501011161091157565b91908251928382525f5b848110610c52575050825f602080949584010152601f8019910116010190565b602081830181015184830182015201610c32565b34610911575f3660031901126109115760206040517f00000000000000000000000000000000000000000000000000000000000000008152f35b6004356001600160a01b03811681036109115790565b6044356001600160401b03811681036109115790565b6001600160401b03811161041657604052565b604081019081106001600160401b0382111761041657604052565b90601f801991011681019081106001600160401b0382111761041657604052565b9160405191602083019360018060a01b0316845260408301526001600160401b038091166060830152606082526080820190828210908211176104165760405251902090565b6004356001600160a01b0381169081900361091157604435906001600160401b03918281168091036109115760643563ffffffff9081811680910361091157608435908282168092036109115760a435928316809303610911576040519360208501957fc0969fb8597d7cceb2fe6e22ccc24a5907ec2758aa646095fb356be693f8fb21875260408601526024356060860152608085015260a084015260c083015260e082015260c43561010082015260e43561012082015261010435610140820152610160610124358183015281526101808101928184109084111761041657604292604052519020610e5361100f565b906040519161190160f01b8352600283015260228201522090565b335f9081527fad3228b676f7d3cd4284a5443f17f1962b36e491b30a40b2405849e597ba5fb5602052604090205460ff1615610ea657565b60405163e2517d3f60e01b81523360048201525f6024820152604490fd5b805f525f60205260405f20335f5260205260ff60405f20541615610ee55750565b6044906040519063e2517d3f60e01b82523360048301526024820152fd5b90815f525f60205260405f209060018060a01b031690815f5260205260ff60405f205416155f14610f7957815f525f60205260405f20815f5260205260405f20600160ff1982541617905533917f2f8788117e7eff1d82e926ec794901d17c78024a50270940304540a733656f0d5f80a4600190565b50505f90565b90815f525f60205260405f209060018060a01b031690815f5260205260ff60405f2054165f14610f7957815f525f60205260405f20815f5260205260405f2060ff19815416905533917ff6391f5c32d9c69d2a47ea670b442974b53935d1edc7fd64eb21e047a839171b5f80a4600190565b60ff60015416610ffd57565b60405163d93c066560e01b8152600490fd5b307f00000000000000000000000000000000000000000000000000000000000000006001600160a01b03161480611110575b1561106a577f000000000000000000000000000000000000000000000000000000000000000090565b60405160208101907f8b73c3c69bb8fe3d512ecc4cf759cc79239f7b179b0ffacaa9a75d522b39400f82527f000000000000000000000000000000000000000000000000000000000000000060408201527f000000000000000000000000000000000000000000000000000000000000000060608201524660808201523060a082015260a0815260c081018181106001600160401b038211176104165760405251902090565b507f00000000000000000000000000000000000000000000000000000000000000004614611041565b8151919060418303611169576111629250602082015190606060408401519301515f1a906113f0565b9192909190565b50505f9160029190565b60048110156111e25780611185575050565b6001810361119f5760405163f645eedf60e01b8152600490fd5b600281036111c05760405163fce698f760e01b815260048101839052602490fd5b6003146111ca5750565b602490604051906335e2f38360e21b82526004820152fd5b634e487b7160e01b5f52602160045260245ffd5b60ff81146112345760ff811690601f8211611222576040519161121883610cdf565b8252602082015290565b604051632cd44ac360e21b8152600490fd5b506040515f600354906001908260011c60018416928315611313575b60209485831085146112ff5782875286949081156112df5750600114611282575b505061127f92500382610cfa565b90565b9093915060035f527fc2575a0e9e593c00f959f8c92f12db2869c3395a3b0502d05e2516446f71f85b935f915b8183106112c757505061127f93508201015f80611271565b855487840185015294850194869450918301916112af565b91505061127f94925060ff191682840152151560051b8201015f80611271565b634e487b7160e01b5f52602260045260245ffd5b90607f1690611250565b60ff811461133f5760ff811690601f8211611222576040519161121883610cdf565b506040515f600454906001908260011c600184169283156113e6575b60209485831085146112ff5782875286949081156112df575060011461138957505061127f92500382610cfa565b9093915060045f527f8a35acfbc15ff81a39ae7d344fd709f28e8600b4aa8c65c6b64bfe7fe36bd19b935f915b8183106113ce57505061127f93508201015f80611271565b855487840185015294850194869450918301916113b6565b90607f169061135b565b91907f7fffffffffffffffffffffffffffffff5d576e7357a4501ddfe92f46681b20a08411611467579160209360809260ff5f9560405194855216868401526040830152606082015282805260015afa15610906575f516001600160a01b0381161561145d57905f905f90565b505f906001905f90565b5050505f916003919056fea2646970667358221220c96ebcb84703003c0900c2dc770a47e3db49ecdf9104e234c53642a9ece553e264736f6c63430008180033ad3228b676f7d3cd4284a5443f17f1962b36e491b30a40b2405849e597ba5fb5","linkReferences":{}},"methodIdentifiers":{"DEFAULT_ADMIN_ROLE()":"a217fddf","GAME_ID()":"fdcdb06b","REGISTRY()":"06433b1b","RESULT_TYPEHASH()":"123f8e9f","domainSeparator()":"f698da25","eip712Domain()":"84b0196e","gameId()":"d7c81b55","gameSigner()":"37d01f7a","getRoleAdmin(bytes32)":"248a9ca3","grantRole(bytes32,address)":"2f2ff15d","hasRole(bytes32,address)":"91d14854","hashResult((address,uint256,uint64,uint32,uint32,uint32,uint256,uint256,uint256,uint256))":"0e943770","pause()":"8456cb59","paused()":"5c975abb","renounceRole(bytes32,address)":"36568abe","revokeRole(bytes32,address)":"d547741f","sessionKey(address,uint256,uint64)":"ceaced92","sessionUsed(bytes32)":"b75dbc32","setGameSigner(address)":"f6c4c1f2","setWagerVault(address)":"4ba8c8ba","submitResultAndClaimXP((address,uint256,uint64,uint32,uint32,uint32,uint256,uint256,uint256,uint256),bytes,uint256,bytes)":"451dd508","supportsInterface(bytes4)":"01ffc9a7","unpause()":"3f4ba83a","wagerVault()":"84df5d84"},"id":6}