{"abi":[{"type":"function","name":"DEFAULT_ADMIN_ROLE","inputs":[],"outputs":[{"name":"","type":"bytes32","internalType":"bytes32"}],"stateMutability":"view"},{"type":"function","name":"UPGRADE_INTERFACE_VERSION","inputs":[],"outputs":[{"name":"","type":"string","internalType":"string"}],"stateMutability":"view"},{"type":"function","name":"XP_ADD_TYPEHASH","inputs":[],"outputs":[{"name":"","type":"bytes32","internalType":"bytes32"}],"stateMutability":"view"},{"type":"function","name":"addXPWithSig","inputs":[{"name":"user","type":"address","internalType":"address"},{"name":"gameId","type":"uint256","internalType":"uint256"},{"name":"amount","type":"uint256","internalType":"uint256"},{"name":"deadline","type":"uint256","internalType":"uint256"},{"name":"signature","type":"bytes","internalType":"bytes"}],"outputs":[],"stateMutability":"nonpayable"},{"type":"function","name":"addXpWithSig","inputs":[{"name":"user","type":"address","internalType":"address"},{"name":"gameId","type":"uint256","internalType":"uint256"},{"name":"amount","type":"uint256","internalType":"uint256"},{"name":"deadline","type":"uint256","internalType":"uint256"},{"name":"signature","type":"bytes","internalType":"bytes"}],"outputs":[],"stateMutability":"nonpayable"},{"type":"function","name":"domainSeparator","inputs":[],"outputs":[{"name":"","type":"bytes32","internalType":"bytes32"}],"stateMutability":"view"},{"type":"function","name":"eip712Domain","inputs":[],"outputs":[{"name":"fields","type":"bytes1","internalType":"bytes1"},{"name":"name","type":"string","internalType":"string"},{"name":"version","type":"string","internalType":"string"},{"name":"chainId","type":"uint256","internalType":"uint256"},{"name":"verifyingContract","type":"address","internalType":"address"},{"name":"salt","type":"bytes32","internalType":"bytes32"},{"name":"extensions","type":"uint256[]","internalType":"uint256[]"}],"stateMutability":"view"},{"type":"function","name":"emergencySetGameSigner","inputs":[{"name":"gameId","type":"uint256","internalType":"uint256"},{"name":"newSigner","type":"address","internalType":"address"}],"outputs":[],"stateMutability":"nonpayable"},{"type":"function","name":"games","inputs":[{"name":"","type":"uint256","internalType":"uint256"}],"outputs":[{"name":"name","type":"string","internalType":"string"},{"name":"signer","type":"address","internalType":"address"},{"name":"isActive","type":"bool","internalType":"bool"}],"stateMutability":"view"},{"type":"function","name":"getDigest","inputs":[{"name":"user","type":"address","internalType":"address"},{"name":"gameId","type":"uint256","internalType":"uint256"},{"name":"amount","type":"uint256","internalType":"uint256"},{"name":"nonce","type":"uint256","internalType":"uint256"},{"name":"deadline","type":"uint256","internalType":"uint256"}],"outputs":[{"name":"","type":"bytes32","internalType":"bytes32"}],"stateMutability":"view"},{"type":"function","name":"getNonce","inputs":[{"name":"account","type":"address","internalType":"address"},{"name":"gameId","type":"uint256","internalType":"uint256"}],"outputs":[{"name":"","type":"uint256","internalType":"uint256"}],"stateMutability":"view"},{"type":"function","name":"getRoleAdmin","inputs":[{"name":"role","type":"bytes32","internalType":"bytes32"}],"outputs":[{"name":"","type":"bytes32","internalType":"bytes32"}],"stateMutability":"view"},{"type":"function","name":"grantRole","inputs":[{"name":"role","type":"bytes32","internalType":"bytes32"},{"name":"account","type":"address","internalType":"address"}],"outputs":[],"stateMutability":"nonpayable"},{"type":"function","name":"hasRole","inputs":[{"name":"role","type":"bytes32","internalType":"bytes32"},{"name":"account","type":"address","internalType":"address"}],"outputs":[{"name":"","type":"bool","internalType":"bool"}],"stateMutability":"view"},{"type":"function","name":"hashXPAddStruct","inputs":[{"name":"user","type":"address","internalType":"address"},{"name":"gameId","type":"uint256","internalType":"uint256"},{"name":"amount","type":"uint256","internalType":"uint256"},{"name":"nonce","type":"uint256","internalType":"uint256"},{"name":"deadline","type":"uint256","internalType":"uint256"}],"outputs":[{"name":"","type":"bytes32","internalType":"bytes32"}],"stateMutability":"pure"},{"type":"function","name":"initialize","inputs":[{"name":"admin","type":"address","internalType":"address"}],"outputs":[],"stateMutability":"nonpayable"},{"type":"function","name":"maxAmountPerTx","inputs":[{"name":"","type":"uint256","internalType":"uint256"}],"outputs":[{"name":"","type":"uint256","internalType":"uint256"}],"stateMutability":"view"},{"type":"function","name":"nonces","inputs":[{"name":"","type":"address","internalType":"address"},{"name":"","type":"uint256","internalType":"uint256"}],"outputs":[{"name":"","type":"uint256","internalType":"uint256"}],"stateMutability":"view"},{"type":"function","name":"pause","inputs":[],"outputs":[],"stateMutability":"nonpayable"},{"type":"function","name":"paused","inputs":[],"outputs":[{"name":"","type":"bool","internalType":"bool"}],"stateMutability":"view"},{"type":"function","name":"proxiableUUID","inputs":[],"outputs":[{"name":"","type":"bytes32","internalType":"bytes32"}],"stateMutability":"view"},{"type":"function","name":"registerGame","inputs":[{"name":"gameId","type":"uint256","internalType":"uint256"},{"name":"name","type":"string","internalType":"string"},{"name":"signer","type":"address","internalType":"address"}],"outputs":[],"stateMutability":"nonpayable"},{"type":"function","name":"renounceRole","inputs":[{"name":"role","type":"bytes32","internalType":"bytes32"},{"name":"callerConfirmation","type":"address","internalType":"address"}],"outputs":[],"stateMutability":"nonpayable"},{"type":"function","name":"revokeRole","inputs":[{"name":"role","type":"bytes32","internalType":"bytes32"},{"name":"account","type":"address","internalType":"address"}],"outputs":[],"stateMutability":"nonpayable"},{"type":"function","name":"setGameActive","inputs":[{"name":"gameId","type":"uint256","internalType":"uint256"},{"name":"active","type":"bool","internalType":"bool"}],"outputs":[],"stateMutability":"nonpayable"},{"type":"function","name":"setGameRateLimit","inputs":[{"name":"gameId","type":"uint256","internalType":"uint256"},{"name":"maxAmountPerTx_","type":"uint256","internalType":"uint256"}],"outputs":[],"stateMutability":"nonpayable"},{"type":"function","name":"setGameSigner","inputs":[{"name":"gameId","type":"uint256","internalType":"uint256"},{"name":"newSigner","type":"address","internalType":"address"}],"outputs":[],"stateMutability":"nonpayable"},{"type":"function","name":"supportsInterface","inputs":[{"name":"interfaceId","type":"bytes4","internalType":"bytes4"}],"outputs":[{"name":"","type":"bool","internalType":"bool"}],"stateMutability":"view"},{"type":"function","name":"totalXP","inputs":[{"name":"","type":"address","internalType":"address"}],"outputs":[{"name":"","type":"uint256","internalType":"uint256"}],"stateMutability":"view"},{"type":"function","name":"transferAdmin","inputs":[{"name":"newAdmin","type":"address","internalType":"address"}],"outputs":[],"stateMutability":"nonpayable"},{"type":"function","name":"unpause","inputs":[],"outputs":[],"stateMutability":"nonpayable"},{"type":"function","name":"upgradeToAndCall","inputs":[{"name":"newImplementation","type":"address","internalType":"address"},{"name":"data","type":"bytes","internalType":"bytes"}],"outputs":[],"stateMutability":"payable"},{"type":"function","name":"xp","inputs":[{"name":"","type":"address","internalType":"address"},{"name":"","type":"uint256","internalType":"uint256"}],"outputs":[{"name":"","type":"uint256","internalType":"uint256"}],"stateMutability":"view"},{"type":"event","name":"AdminTransferred","inputs":[{"name":"previousAdmin","type":"address","indexed":true,"internalType":"address"},{"name":"newAdmin","type":"address","indexed":true,"internalType":"address"}],"anonymous":false},{"type":"event","name":"EIP712DomainChanged","inputs":[],"anonymous":false},{"type":"event","name":"GameActiveUpdated","inputs":[{"name":"gameId","type":"uint256","indexed":true,"internalType":"uint256"},{"name":"active","type":"bool","indexed":false,"internalType":"bool"}],"anonymous":false},{"type":"event","name":"GameRateLimitUpdated","inputs":[{"name":"gameId","type":"uint256","indexed":true,"internalType":"uint256"},{"name":"maxAmount","type":"uint256","indexed":false,"internalType":"uint256"}],"anonymous":false},{"type":"event","name":"GameRegistered","inputs":[{"name":"gameId","type":"uint256","indexed":true,"internalType":"uint256"},{"name":"name","type":"string","indexed":false,"internalType":"string"},{"name":"signer","type":"address","indexed":true,"internalType":"address"},{"name":"active","type":"bool","indexed":false,"internalType":"bool"}],"anonymous":false},{"type":"event","name":"GameSignerUpdated","inputs":[{"name":"gameId","type":"uint256","indexed":true,"internalType":"uint256"},{"name":"previousSigner","type":"address","indexed":true,"internalType":"address"},{"name":"newSigner","type":"address","indexed":true,"internalType":"address"}],"anonymous":false},{"type":"event","name":"Initialized","inputs":[{"name":"version","type":"uint64","indexed":false,"internalType":"uint64"}],"anonymous":false},{"type":"event","name":"NonceUsed","inputs":[{"name":"user","type":"address","indexed":true,"internalType":"address"},{"name":"gameId","type":"uint256","indexed":true,"internalType":"uint256"},{"name":"nonce","type":"uint256","indexed":false,"internalType":"uint256"}],"anonymous":false},{"type":"event","name":"Paused","inputs":[{"name":"account","type":"address","indexed":false,"internalType":"address"}],"anonymous":false},{"type":"event","name":"RoleAdminChanged","inputs":[{"name":"role","type":"bytes32","indexed":true,"internalType":"bytes32"},{"name":"previousAdminRole","type":"bytes32","indexed":true,"internalType":"bytes32"},{"name":"newAdminRole","type":"bytes32","indexed":true,"internalType":"bytes32"}],"anonymous":false},{"type":"event","name":"RoleGranted","inputs":[{"name":"role","type":"bytes32","indexed":true,"internalType":"bytes32"},{"name":"account","type":"address","indexed":true,"internalType":"address"},{"name":"sender","type":"address","indexed":true,"internalType":"address"}],"anonymous":false},{"type":"event","name":"RoleRevoked","inputs":[{"name":"role","type":"bytes32","indexed":true,"internalType":"bytes32"},{"name":"account","type":"address","indexed":true,"internalType":"address"},{"name":"sender","type":"address","indexed":true,"internalType":"address"}],"anonymous":false},{"type":"event","name":"Unpaused","inputs":[{"name":"account","type":"address","indexed":false,"internalType":"address"}],"anonymous":false},{"type":"event","name":"Upgraded","inputs":[{"name":"implementation","type":"address","indexed":true,"internalType":"address"}],"anonymous":false},{"type":"event","name":"XPIncreased","inputs":[{"name":"user","type":"address","indexed":true,"internalType":"address"},{"name":"gameId","type":"uint256","indexed":true,"internalType":"uint256"},{"name":"amount","type":"uint256","indexed":false,"internalType":"uint256"},{"name":"nonce","type":"uint256","indexed":false,"internalType":"uint256"},{"name":"newGameXP","type":"uint256","indexed":false,"internalType":"uint256"},{"name":"newTotalXP","type":"uint256","indexed":false,"internalType":"uint256"}],"anonymous":false},{"type":"error","name":"AccessControlBadConfirmation","inputs":[]},{"type":"error","name":"AccessControlUnauthorizedAccount","inputs":[{"name":"account","type":"address","internalType":"address"},{"name":"neededRole","type":"bytes32","internalType":"bytes32"}]},{"type":"error","name":"AddressEmptyCode","inputs":[{"name":"target","type":"address","internalType":"address"}]},{"type":"error","name":"AmountExceedsLimit","inputs":[{"name":"amount","type":"uint256","internalType":"uint256"},{"name":"limit","type":"uint256","internalType":"uint256"}]},{"type":"error","name":"DeadlineExpired","inputs":[{"name":"deadline","type":"uint256","internalType":"uint256"}]},{"type":"error","name":"ECDSAInvalidSignature","inputs":[]},{"type":"error","name":"ECDSAInvalidSignatureLength","inputs":[{"name":"length","type":"uint256","internalType":"uint256"}]},{"type":"error","name":"ECDSAInvalidSignatureS","inputs":[{"name":"s","type":"bytes32","internalType":"bytes32"}]},{"type":"error","name":"ERC1967InvalidImplementation","inputs":[{"name":"implementation","type":"address","internalType":"address"}]},{"type":"error","name":"ERC1967NonPayable","inputs":[]},{"type":"error","name":"EnforcedPause","inputs":[]},{"type":"error","name":"ExpectedPause","inputs":[]},{"type":"error","name":"FailedCall","inputs":[]},{"type":"error","name":"GameAlreadyRegistered","inputs":[{"name":"gameId","type":"uint256","internalType":"uint256"}]},{"type":"error","name":"GameNotActive","inputs":[{"name":"gameId","type":"uint256","internalType":"uint256"}]},{"type":"error","name":"GameNotRegistered","inputs":[{"name":"gameId","type":"uint256","internalType":"uint256"}]},{"type":"error","name":"InvalidAmount","inputs":[{"name":"amount","type":"uint256","internalType":"uint256"}]},{"type":"error","name":"InvalidGameName","inputs":[]},{"type":"error","name":"InvalidInitialization","inputs":[]},{"type":"error","name":"InvalidSignature","inputs":[{"name":"recovered","type":"address","internalType":"address"},{"name":"expected","type":"address","internalType":"address"}]},{"type":"error","name":"NotInitializing","inputs":[]},{"type":"error","name":"ReentrancyGuardReentrantCall","inputs":[]},{"type":"error","name":"SignerZeroAddress","inputs":[]},{"type":"error","name":"UUPSUnauthorizedCallContext","inputs":[]},{"type":"error","name":"UUPSUnsupportedProxiableUUID","inputs":[{"name":"slot","type":"bytes32","internalType":"bytes32"}]}],"bytecode":{"object":"0x60a0806040523461002a573060805261230b908161002f8239608051818181610c600152610d150152f35b5f80fdfe6080604090808252600480361015610015575f80fd5b5f3560e01c91826301ffc9a7146114695750816307d6e10914611409578163117a5b9014611322578163194729b81461130d5781631c518d6a146112e7578163248a9ca3146112b157816328452dc61461080a5781632f2ff15d1461128957816336568abe146112455781633f4ba83a146111e35781634c912bb214610f175781634f1ef28614610cc4578163502e1a16146108e157816352d1902d14610c4d5781635c975abb14610c1e57816367e5bcdd14610bdf57816375829def14610b61578163787df6d914610ae05781638456cb5914610a7b57816384b0196e1461092157816389535803146108e157816391d1485414610891578163a217fddf14610877578163ad3cb1cc1461082f578163be37df661461080a578163c4d66de8146102e8578163cd255b45146102c2578163d547741f1461027c578163dc0158e71461024f578163e7e0a11414610215578163ee2f3a47146101e857508063f698da25146101c55763fee99c721461018b575f80fd5b346101c15760203660031901126101c1576020906001600160a01b036101af611740565b165f5260018252805f20549051908152f35b5f80fd5b50346101c1575f3660031901126101c1576020906101e1611fc3565b9051908152f35b82346101c1573660031901126101c1576102139061020461172a565b9061020d611bd1565b35611b79565b005b82346101c1575f3660031901126101c157602090517f9b9739486d97bd5c7ba0716d69bd79d24c7a084679dcada38531a7bddc4d61858152f35b82346101c1573660031901126101c1576102139061026b61172a565b90610274611bd1565b61020d611f57565b82346101c157806003193601126101c15761021391356102bd600161029f61172a565b93835f525f805160206122968339815191526020525f200154611c27565b611eb2565b82346101c1576020906101e16102e36102da36611756565b939290926118a8565b611f31565b82346101c157602090816003193601126101c157610304611740565b907ff0c57e16840df040f15088dc2f81fe391c3923bec73e23a9662efc9c229c6a009384549260ff84841c16159167ffffffffffffffff80861695861580610803575b600180981490816107f9575b1590816107f0575b506107e05767ffffffffffffffff19811687178955846107c1575b506001600160a01b038316156107b25761038e611f82565b610396611f82565b61039e611f82565b5f805160206122b6833981519152805460ff191690556103bc611f82565b6103c4611f82565b857f9b779b17422d0df92223018b32b4d1fa46e071723d6817e2486d003becc55f005584516103f2816114f3565b600a8152695850526567697374727960b01b88820152855192610414846114f3565b878452603160f81b89850152610428611f82565b610430611f82565b815183811161079f577fa16a46d94261c7517cc8ff89f61c0ce93598e3c849801011dee649a6a557d102908061046683546114bb565b948c601f96878111610730575b50508c908683116001146106a7575f9261069c575b50505f19600383901b1c1916908a1b1790555b835192831161068957507fa16a46d94261c7517cc8ff89f61c0ce93598e3c849801011dee649a6a557d103926104d184546114bb565b828111610628575b50889183116001146105a55761055a949392915f918361059a575b50505f19600383901b1c191690871b1790555b5f7fa16a46d94261c7517cc8ff89f61c0ce93598e3c849801011dee649a6a557d100555f7fa16a46d94261c7517cc8ff89f61c0ce93598e3c849801011dee649a6a557d10155610555611f82565b611cf6565b5061056157005b7fc7f505b2f371ae2175ee4913f4499e1f2633a7b5936321eed1cdaeb6115181d29368ff000000000000000019815416905551908152a1005b015190508a806104f4565b9392918791601f19821690845f527f5f9ce34815f8e11431c7bb75a8e6886a91478f7ffc1dbb0a98dc240fddd76b75915f5b8c828210610612575050968361055a98106105fa575b505050811b019055610507565b01515f1960f88460031b161c191690558a80806105ed565b838a015185558c969094019392830192016105d7565b845f527f5f9ce34815f8e11431c7bb75a8e6886a91478f7ffc1dbb0a98dc240fddd76b758380860160051c8201928c8710610680575b0160051c019089905b8281106106755750506104d9565b5f8155018990610667565b9250819261065e565b604190634e487b7160e01b5f525260245ffd5b015190508d80610488565b8c9350908d91601f198416865f527f42ad5d3e1f2e6e70edcf6d991b8a3023d3fca8047a131592f9edb9fd9b89d57d935f905b82821061070f57505084116106f7575b505050811b01905561049b565b01515f1960f88460031b161c191690558d80806106ea565b91929395968291958786015181550195019301908f918f96959493926106da565b90919250845f52867f42ad5d3e1f2e6e70edcf6d991b8a3023d3fca8047a131592f9edb9fd9b89d57d9181860160051c8301938610610796575b918e91869594930160051c01915b82811061078857508e9150610473565b5f81558594508e9101610778565b9250819261076a565b604182634e487b7160e01b5f525260245ffd5b5083516392e3146d60e01b8152fd5b68ffffffffffffffffff19166801000000000000000117885588610376565b855163f92ee8a960e01b81528390fd5b9050158a61035b565b303b159150610353565b5084610347565b346101c15761021361081b366117b6565b9461082a949194939293611cab565b6118d6565b82346101c1575f3660031901126101c15780516108739161084f826114f3565b60058252640352e302e360dc1b6020830152519182916020835260208301906116ec565b0390f35b82346101c1575f3660031901126101c157602090515f8152f35b82346101c157806003193601126101c1576020916108ad61172a565b90355f525f805160206122968339815191528352815f209060018060a01b03165f52825260ff815f20541690519015158152f35b82346101c157806003193601126101c1576020906001600160a01b03610905611740565b165f5260028252805f206024355f528252805f20549051908152f35b9050346101c1575f3660031901126101c1577fa16a46d94261c7517cc8ff89f61c0ce93598e3c849801011dee649a6a557d100541580610a52575b15610a1857610969611545565b9161097261162d565b815191602091602084019484861067ffffffffffffffff87111761068957506109cd82602092876109c099989795525f85528151988998600f60f81b8a5260e0868b015260e08a01906116ec565b91888303908901526116ec565b914660608701523060808701525f60a087015285830360c087015251918281520192915f5b828110610a0157505050500390f35b8351855286955093810193928101926001016109f2565b6020606492519162461bcd60e51b835282015260156024820152741152540dcc4c8e88155b9a5b9a5d1a585b1a5e9959605a1b6044820152fd5b507fa16a46d94261c7517cc8ff89f61c0ce93598e3c849801011dee649a6a557d101541561095c565b82346101c1575f3660031901126101c15760207f62e78cea01bee320cd4e420270b5ea74000d11b0c9f74754ebdbfc544b05a25891610ab8611bd1565b610ac0611cab565b5f805160206122b6833981519152805460ff1916600117905551338152a1005b9050346101c157816003193601126101c15735906024358015158082036101c1577fe0d0e4ad0cc2fd9a1b3fe0ddc54a82d9e5528b3ddf3203739aa0f70d824b22de92610b5a602093610b31611bd1565b6001610b3c88611c73565b01805460ff60a01b191691151560a01b60ff60a01b16919091179055565b51908152a2005b9050346101c15760203660031901126101c157610b7c611740565b90610b85611bd1565b6001600160a01b038216928315610bd25783610ba084611cf6565b50610baa33611e1d565b50337ff8ccb027dfcd135e000e9d45e6cc2d662578a8825d4c45b5e32e0adf67e79ec65f80a3005b516392e3146d60e01b8152fd5b82346101c157806003193601126101c1576020906001600160a01b03610c03611740565b165f525f8252805f206024355f528252805f20549051908152f35b82346101c1575f3660031901126101c15760209060ff5f805160206122b6833981519152541690519015158152f35b82346101c1575f3660031901126101c1577f00000000000000000000000000000000000000000000000000000000000000006001600160a01b03163003610cb757602090517f360894a13ba1a3210667c828492db98dca3e2076cc3735a920a3ca505d382bbc8152f35b5163703e46dd60e11b8152fd5b9050816003193601126101c157610cd9611740565b9160243567ffffffffffffffff81116101c157366023820112156101c157610d0a9036906024818601359101611821565b906001600160a01b037f00000000000000000000000000000000000000000000000000000000000000008116308114908115610ee9575b50610ed957610d4e611bd1565b8416918151946352d1902d60e01b865260209081878781885afa5f9781610eaa575b50610d8c578351634c9c8ce360e01b8152808701869052602490fd5b919490937f360894a13ba1a3210667c828492db98dca3e2076cc3735a920a3ca505d382bbc877fc9f76b5ec45e5cdef99837d7b6d2467235c1df8933c8ca56df5c35afa2c7d4448101610e945750833b15610e7d5780546001600160a01b031916821790558351907fbc7cd75a20ee27fd9adebab32041f755214dbc6bffa90cc0225b39da2e5c2d3b5f80a2855115610e645750505f80858561021397519101845af4913d15610e5a573d610e4c610e4382611805565b92519283611523565b81525f81943d92013e612232565b5060609250612232565b93509350505034610e7157005b63b398979f60e01b8152fd5b8451634c9c8ce360e01b8152808401839052602490fd5b83602491875191632a87526960e21b8352820152fd5b9097508281813d8311610ed2575b610ec28183611523565b810103126101c15751965f610d70565b503d610eb8565b815163703e46dd60e11b81528490fd5b9050817f360894a13ba1a3210667c828492db98dca3e2076cc3735a920a3ca505d382bbc541614155f610d41565b9050346101c15760603660031901126101c1578035906024359267ffffffffffffffff938481116101c157610f4f9036908401611788565b6044356001600160a01b0381811697929593918890036101c157610f71611bd1565b85156111d35787156111c357865f5260209260038452610f93865f20546114bb565b6111ac578551916060830183811083821117611199578752610fb6368986611821565b8352848301928a8452878101926001978885528b5f5260038852895f2092519081519283116106895750610fea83546114bb565b601f8111611153575b508790601f83116001146110bf57948b9a9895948a8c9995857f2f40410fa8647f03b48153ec0162afdedcea2229fd2322bf132f0a1d75701c1a9f989660609e9b9661108c985f926110b4575b50505f19600383901b1c191690831b1781555b019251166bffffffffffffffffffffffff60a01b83541617825551151581549060ff60a01b90151560a01b169060ff60a01b1916179055565b8551978689978852870152868601375f848401860152830152601f01601f19168101030190a3005b015190505f80611040565b90601f19831691845f52895f20925f5b81811061113e57509a8d9c9a979295817f2f40410fa8647f03b48153ec0162afdedcea2229fd2322bf132f0a1d75701c1a9f9b9796819b9660609f988e9b968361108c9b10611126575b505050811b018155611053565b01515f1960f88460031b161c191690555f8080611119565b828401518555938c0193928b01928b016110cf565b835f52885f20601f840160051c8101918a851061118f575b601f0160051c01908a905b828110611184575050610ff3565b5f8155018a90611176565b909150819061116b565b604187634e487b7160e01b5f525260245ffd5b85516306fe408560e21b8152808601899052602490fd5b84516392e3146d60e01b81528490fd5b8451631b3ffe5d60e11b81528490fd5b82346101c1575f3660031901126101c15760207f5db9ee0a495bf2e6ff9c91a7834c1ba4fdd244a5e8aa4e537bd38aeae4b073aa91611220611bd1565b611228611f57565b5f805160206122b6833981519152805460ff1916905551338152a1005b82346101c157806003193601126101c15761125e61172a565b90336001600160a01b0383160361127a57506102139135611eb2565b5163334bd91960e11b81529050fd5b82346101c157806003193601126101c15761021391356112ac600161029f61172a565b611d93565b82346101c15760203660031901126101c157602091355f525f8051602061229683398151915282526001815f2001549051908152f35b82346101c15760203660031901126101c15781602092355f528252805f20549051908152f35b82346101c1576020906101e16102da36611756565b82346101c157602091826003193601126101c157355f5260038252805f20918151915f8454611350816114bb565b808652906001908181169081156113ea57506001146113b4575b50506001611395956113808660ff940387611523565b015482519586956060875260608701906116ec565b6001600160a01b0382169486019490945260a01c161515908301520390f35b5f8781528581209093505b8284106113d75750505083018201600161139561136a565b80548785018701529285019281016113bf565b60ff1916878701525050151560051b840183019050600161139561136a565b9050346101c157816003193601126101c1576020817f10300f5caf1bc32e911cc2741be9f3dd345bc7ec34bee7cc7d8482ece912e6399235936024359161144e611bd1565b61145786611c73565b50855f52835281815f205551908152a2005b90346101c15760203660031901126101c157359063ffffffff60e01b82168092036101c157602091637965db0b60e01b81149081156114aa575b5015158152f35b6301ffc9a760e01b149050836114a3565b90600182811c921680156114e9575b60208310146114d557565b634e487b7160e01b5f52602260045260245ffd5b91607f16916114ca565b6040810190811067ffffffffffffffff82111761150f57604052565b634e487b7160e01b5f52604160045260245ffd5b90601f8019910116810190811067ffffffffffffffff82111761150f57604052565b604051905f827fa16a46d94261c7517cc8ff89f61c0ce93598e3c849801011dee649a6a557d10291825492611579846114bb565b8084529360209160019182811690811561160757506001146115a7575b5050506115a592500383611523565b565b5f9081527f42ad5d3e1f2e6e70edcf6d991b8a3023d3fca8047a131592f9edb9fd9b89d57d9590935091905b8284106115ef57506115a59450505081016020015f8080611596565b855488850183015294850194879450928101926115d3565b92505050602092506115a594915060ff191682840152151560051b8201015f8080611596565b604051905f827fa16a46d94261c7517cc8ff89f61c0ce93598e3c849801011dee649a6a557d10391825492611661846114bb565b80845293602091600191828116908115611607575060011461168c575050506115a592500383611523565b5f9081527f5f9ce34815f8e11431c7bb75a8e6886a91478f7ffc1dbb0a98dc240fddd76b759590935091905b8284106116d457506115a59450505081016020015f8080611596565b855488850183015294850194879450928101926116b8565b91908251928382525f5b848110611716575050825f602080949584010152601f8019910116010190565b6020818301810151848301820152016116f6565b602435906001600160a01b03821682036101c157565b600435906001600160a01b03821682036101c157565b60a09060031901126101c1576004356001600160a01b03811681036101c1579060243590604435906064359060843590565b9181601f840112156101c15782359167ffffffffffffffff83116101c157602083818601950101116101c157565b60a06003198201126101c1576004356001600160a01b03811681036101c157916024359160443591606435916084359067ffffffffffffffff82116101c15761180191600401611788565b9091565b67ffffffffffffffff811161150f57601f01601f191660200190565b92919261182d82611805565b9161183b6040519384611523565b8294818452818301116101c1578281602093845f960137010152565b919260a093969594919660c08401977f9b9739486d97bd5c7ba0716d69bd79d24c7a084679dcada38531a7bddc4d61858552600180871b031660208501526040840152606083015260808201520152565b604051602081019590946118d09486946118c29489611857565b03601f198101835282611523565b51902090565b9594919092937f9b779b17422d0df92223018b32b4d1fa46e071723d6817e2486d003becc55f00946002865414611b6757600286556001600160a01b0388811694908515611b4a578415611b3157428310611b1857600161193688611c73565b015460ff8160a01c1615611aff578116918215611aed57865f52602094600286528860409c8d96875f20835f528952875f20549751918291898c8c85019661197e9488611857565b03601f19810182526119909082611523565b51902061199c90611f31565b9136906119a892611821565b6119b191612039565b6119ba91612073565b1690808203611ad0575050845f5260048252875f205480151580611ac7575b611aaa5750916080917fc4db3d815fb9a89a8c7c1317082359742b20e9fd40b2fe7e2f06c4124b8e140a9360019899865f5260028352805f20885f528352898201815f205587877f3fde1edb52bbe023081a01c60e06e15396e067be4699a5044fdfa793f67bfc28858451868152a3865f525f8352805f20885f528352611a6384825f2054611cd5565b91875f528a8452611a7785835f2054611cd5565b93885f525f8152825f208a5f52815283835f2055885f528b815284835f205582519586528501528301526060820152a355565b836044918a519163f76aa3d760e01b835260048301526024820152fd5b508084116119d9565b604492508951916310b5d43760e21b835260048301526024820152fd5b6040516392e3146d60e01b8152600490fd5b604051633ffe5d2d60e11b815260048101899052602490fd5b60405163bc3088ef60e01b815260048101849052602490fd5b604051633728b83d60e01b815260048101869052602490fd5b60446040516310b5d43760e21b81525f60048201525f6024820152fd5b604051633ee5aeb560e01b8152600490fd5b6001600160a01b03918216918215611aed576001611b9683611c73565b0180546001600160a01b03198116851790915516907fec97f38459d69547da129e856ab65f06a0c3ca3e686f3e2c17d334328ae50deb5f80a4565b335f9081527fb7db2dd08fcb62d0c9e08c51941cae53c267786a0b75803fb7960902fc8ef97d602052604090205460ff1615611c0957565b60405163e2517d3f60e01b81523360048201525f6024820152604490fd5b805f525f8051602061229683398151915260205260405f20335f5260205260ff60405f20541615611c555750565b6044906040519063e2517d3f60e01b82523360048301526024820152fd5b90815f52600360205260405f2091611c8b83546114bb565b15611c935750565b602490604051906320f7460360e21b82526004820152fd5b60ff5f805160206122b68339815191525416611cc357565b60405163d93c066560e01b8152600490fd5b91908201809211611ce257565b634e487b7160e01b5f52601160045260245ffd5b6001600160a01b03165f8181527fb7db2dd08fcb62d0c9e08c51941cae53c267786a0b75803fb7960902fc8ef97d60205260409020545f805160206122968339815191529060ff16611d8d575f805260205260405f20815f5260205260405f20600160ff1982541617905533905f7f2f8788117e7eff1d82e926ec794901d17c78024a50270940304540a733656f0d8180a4600190565b50505f90565b90815f525f805160206122968339815191528060205260405f209160018060a01b031691825f5260205260ff60405f205416155f14611e1657825f5260205260405f20815f5260205260405f20600160ff1982541617905533917f2f8788117e7eff1d82e926ec794901d17c78024a50270940304540a733656f0d5f80a4600190565b5050505f90565b6001600160a01b03165f8181527fb7db2dd08fcb62d0c9e08c51941cae53c267786a0b75803fb7960902fc8ef97d60205260409020545f805160206122968339815191529060ff1615611d8d575f805260205260405f20815f5260205260405f2060ff19815416905533905f7ff6391f5c32d9c69d2a47ea670b442974b53935d1edc7fd64eb21e047a839171b8180a4600190565b90815f525f805160206122968339815191528060205260405f209160018060a01b031691825f5260205260ff60405f2054165f14611e1657825f5260205260405f20815f5260205260405f2060ff19815416905533917ff6391f5c32d9c69d2a47ea670b442974b53935d1edc7fd64eb21e047a839171b5f80a4600190565b604290611f3c611fc3565b906040519161190160f01b8352600283015260228201522090565b60ff5f805160206122b6833981519152541615611f7057565b604051638dfc202b60e01b8152600490fd5b60ff7ff0c57e16840df040f15088dc2f81fe391c3923bec73e23a9662efc9c229c6a005460401c1615611fb157565b604051631afcd79f60e31b8152600490fd5b611fcb6120f6565b611fd3612160565b6040519060208201927f8b73c3c69bb8fe3d512ecc4cf759cc79239f7b179b0ffacaa9a75d522b39400f8452604083015260608201524660808201523060a082015260a0815260c0810181811067ffffffffffffffff82111761150f5760405251902090565b8151919060418303612069576120629250602082015190606060408401519301515f1a906121a5565b9192909190565b50505f9160029190565b60048110156120e25780612085575050565b6001810361209f5760405163f645eedf60e01b8152600490fd5b600281036120c05760405163fce698f760e01b815260048101839052602490fd5b6003146120ca5750565b602490604051906335e2f38360e21b82526004820152fd5b634e487b7160e01b5f52602160045260245ffd5b6120fe611545565b805190811561210e576020012090565b50507fa16a46d94261c7517cc8ff89f61c0ce93598e3c849801011dee649a6a557d10054801561213b5790565b507fc5d2460186f7233c927e7db2dcc703c0e500b653ca82273b7bfad8045d85a47090565b61216861162d565b8051908115612178576020012090565b50507fa16a46d94261c7517cc8ff89f61c0ce93598e3c849801011dee649a6a557d10154801561213b5790565b91907f7fffffffffffffffffffffffffffffff5d576e7357a4501ddfe92f46681b20a08411612227579160209360809260ff5f9560405194855216868401526040830152606082015282805260015afa1561221c575f516001600160a01b0381161561221257905f905f90565b505f906001905f90565b6040513d5f823e3d90fd5b5050505f9160039190565b90612259575080511561224757805190602001fd5b60405163d6bda27560e01b8152600490fd5b8151158061228c575b61226a575090565b604051639996b31560e01b81526001600160a01b039091166004820152602490fd5b50803b1561226256fe02dd7bc7dec4dceedda775e58dd541e08a116c6c53815c0bd028192f7b626800cd5ed15c6e187e77e9aee88184c21f4f2182ab5827cb3b7e07fbedcd63f03300a264697066735822122081423b32374d5153ef805d5b8b77b47ed8ca1d3115760b4e43e2b61a3d03a8f864736f6c63430008180033","linkReferences":{}},"methodIdentifiers":{"DEFAULT_ADMIN_ROLE()":"a217fddf","UPGRADE_INTERFACE_VERSION()":"ad3cb1cc","XP_ADD_TYPEHASH()":"e7e0a114","addXPWithSig(address,uint256,uint256,uint256,bytes)":"28452dc6","addXpWithSig(address,uint256,uint256,uint256,bytes)":"be37df66","domainSeparator()":"f698da25","eip712Domain()":"84b0196e","emergencySetGameSigner(uint256,address)":"dc0158e7","games(uint256)":"117a5b90","getDigest(address,uint256,uint256,uint256,uint256)":"cd255b45","getNonce(address,uint256)":"89535803","getRoleAdmin(bytes32)":"248a9ca3","grantRole(bytes32,address)":"2f2ff15d","hasRole(bytes32,address)":"91d14854","hashXPAddStruct(address,uint256,uint256,uint256,uint256)":"194729b8","initialize(address)":"c4d66de8","maxAmountPerTx(uint256)":"1c518d6a","nonces(address,uint256)":"502e1a16","pause()":"8456cb59","paused()":"5c975abb","proxiableUUID()":"52d1902d","registerGame(uint256,string,address)":"4c912bb2","renounceRole(bytes32,address)":"36568abe","revokeRole(bytes32,address)":"d547741f","setGameActive(uint256,bool)":"787df6d9","setGameRateLimit(uint256,uint256)":"07d6e109","setGameSigner(uint256,address)":"ee2f3a47","supportsInterface(bytes4)":"01ffc9a7","totalXP(address)":"fee99c72","transferAdmin(address)":"75829def","unpause()":"3f4ba83a","upgradeToAndCall(address,bytes)":"4f1ef286","xp(address,uint256)":"67e5bcdd"},"id":63}