{"abi":[{"type":"constructor","inputs":[],"stateMutability":"nonpayable"},{"type":"function","name":"DEFAULT_ADMIN_ROLE","inputs":[],"outputs":[{"name":"","type":"bytes32","internalType":"bytes32"}],"stateMutability":"view"},{"type":"function","name":"MAX_LAND_PER_USER","inputs":[],"outputs":[{"name":"","type":"uint256","internalType":"uint256"}],"stateMutability":"view"},{"type":"function","name":"METADATA_ROLE","inputs":[],"outputs":[{"name":"","type":"bytes32","internalType":"bytes32"}],"stateMutability":"view"},{"type":"function","name":"MINTER_ROLE","inputs":[],"outputs":[{"name":"","type":"bytes32","internalType":"bytes32"}],"stateMutability":"view"},{"type":"function","name":"UPGRADE_INTERFACE_VERSION","inputs":[],"outputs":[{"name":"","type":"string","internalType":"string"}],"stateMutability":"view"},{"type":"function","name":"approve","inputs":[{"name":"to","type":"address","internalType":"address"},{"name":"tokenId","type":"uint256","internalType":"uint256"}],"outputs":[],"stateMutability":"nonpayable"},{"type":"function","name":"balanceOf","inputs":[{"name":"owner","type":"address","internalType":"address"}],"outputs":[{"name":"","type":"uint256","internalType":"uint256"}],"stateMutability":"view"},{"type":"function","name":"getApproved","inputs":[{"name":"tokenId","type":"uint256","internalType":"uint256"}],"outputs":[{"name":"","type":"address","internalType":"address"}],"stateMutability":"view"},{"type":"function","name":"getRoleAdmin","inputs":[{"name":"role","type":"bytes32","internalType":"bytes32"}],"outputs":[{"name":"","type":"bytes32","internalType":"bytes32"}],"stateMutability":"view"},{"type":"function","name":"grantRole","inputs":[{"name":"role","type":"bytes32","internalType":"bytes32"},{"name":"account","type":"address","internalType":"address"}],"outputs":[],"stateMutability":"nonpayable"},{"type":"function","name":"hasRole","inputs":[{"name":"role","type":"bytes32","internalType":"bytes32"},{"name":"account","type":"address","internalType":"address"}],"outputs":[{"name":"","type":"bool","internalType":"bool"}],"stateMutability":"view"},{"type":"function","name":"initialize","inputs":[{"name":"admin","type":"address","internalType":"address"},{"name":"name_","type":"string","internalType":"string"},{"name":"symbol_","type":"string","internalType":"string"},{"name":"baseTokenURI_","type":"string","internalType":"string"}],"outputs":[],"stateMutability":"nonpayable"},{"type":"function","name":"isApprovedForAll","inputs":[{"name":"owner","type":"address","internalType":"address"},{"name":"operator","type":"address","internalType":"address"}],"outputs":[{"name":"","type":"bool","internalType":"bool"}],"stateMutability":"view"},{"type":"function","name":"mint","inputs":[{"name":"to","type":"address","internalType":"address"}],"outputs":[{"name":"tokenId","type":"uint256","internalType":"uint256"}],"stateMutability":"nonpayable"},{"type":"function","name":"mintBatch","inputs":[{"name":"to","type":"address","internalType":"address"},{"name":"quantity","type":"uint256","internalType":"uint256"}],"outputs":[{"name":"tokenIds","type":"uint256[]","internalType":"uint256[]"}],"stateMutability":"nonpayable"},{"type":"function","name":"name","inputs":[],"outputs":[{"name":"","type":"string","internalType":"string"}],"stateMutability":"view"},{"type":"function","name":"nextTokenId","inputs":[],"outputs":[{"name":"","type":"uint256","internalType":"uint256"}],"stateMutability":"view"},{"type":"function","name":"ownerOf","inputs":[{"name":"tokenId","type":"uint256","internalType":"uint256"}],"outputs":[{"name":"","type":"address","internalType":"address"}],"stateMutability":"view"},{"type":"function","name":"pause","inputs":[],"outputs":[],"stateMutability":"nonpayable"},{"type":"function","name":"paused","inputs":[],"outputs":[{"name":"","type":"bool","internalType":"bool"}],"stateMutability":"view"},{"type":"function","name":"proxiableUUID","inputs":[],"outputs":[{"name":"","type":"bytes32","internalType":"bytes32"}],"stateMutability":"view"},{"type":"function","name":"renounceRole","inputs":[{"name":"role","type":"bytes32","internalType":"bytes32"},{"name":"callerConfirmation","type":"address","internalType":"address"}],"outputs":[],"stateMutability":"nonpayable"},{"type":"function","name":"revokeRole","inputs":[{"name":"role","type":"bytes32","internalType":"bytes32"},{"name":"account","type":"address","internalType":"address"}],"outputs":[],"stateMutability":"nonpayable"},{"type":"function","name":"safeTransferFrom","inputs":[{"name":"from","type":"address","internalType":"address"},{"name":"to","type":"address","internalType":"address"},{"name":"tokenId","type":"uint256","internalType":"uint256"}],"outputs":[],"stateMutability":"nonpayable"},{"type":"function","name":"safeTransferFrom","inputs":[{"name":"from","type":"address","internalType":"address"},{"name":"to","type":"address","internalType":"address"},{"name":"tokenId","type":"uint256","internalType":"uint256"},{"name":"data","type":"bytes","internalType":"bytes"}],"outputs":[],"stateMutability":"nonpayable"},{"type":"function","name":"setApprovalForAll","inputs":[{"name":"operator","type":"address","internalType":"address"},{"name":"approved","type":"bool","internalType":"bool"}],"outputs":[],"stateMutability":"nonpayable"},{"type":"function","name":"setBaseURI","inputs":[{"name":"newBaseURI","type":"string","internalType":"string"}],"outputs":[],"stateMutability":"nonpayable"},{"type":"function","name":"supportsInterface","inputs":[{"name":"interfaceId","type":"bytes4","internalType":"bytes4"}],"outputs":[{"name":"","type":"bool","internalType":"bool"}],"stateMutability":"view"},{"type":"function","name":"symbol","inputs":[],"outputs":[{"name":"","type":"string","internalType":"string"}],"stateMutability":"view"},{"type":"function","name":"tokenByIndex","inputs":[{"name":"index","type":"uint256","internalType":"uint256"}],"outputs":[{"name":"","type":"uint256","internalType":"uint256"}],"stateMutability":"view"},{"type":"function","name":"tokenOfOwnerByIndex","inputs":[{"name":"owner","type":"address","internalType":"address"},{"name":"index","type":"uint256","internalType":"uint256"}],"outputs":[{"name":"","type":"uint256","internalType":"uint256"}],"stateMutability":"view"},{"type":"function","name":"tokenURI","inputs":[{"name":"tokenId","type":"uint256","internalType":"uint256"}],"outputs":[{"name":"","type":"string","internalType":"string"}],"stateMutability":"view"},{"type":"function","name":"totalSupply","inputs":[],"outputs":[{"name":"","type":"uint256","internalType":"uint256"}],"stateMutability":"view"},{"type":"function","name":"transferFrom","inputs":[{"name":"from","type":"address","internalType":"address"},{"name":"to","type":"address","internalType":"address"},{"name":"tokenId","type":"uint256","internalType":"uint256"}],"outputs":[],"stateMutability":"nonpayable"},{"type":"function","name":"unpause","inputs":[],"outputs":[],"stateMutability":"nonpayable"},{"type":"function","name":"upgradeToAndCall","inputs":[{"name":"newImplementation","type":"address","internalType":"address"},{"name":"data","type":"bytes","internalType":"bytes"}],"outputs":[],"stateMutability":"payable"},{"type":"event","name":"Approval","inputs":[{"name":"owner","type":"address","indexed":true,"internalType":"address"},{"name":"approved","type":"address","indexed":true,"internalType":"address"},{"name":"tokenId","type":"uint256","indexed":true,"internalType":"uint256"}],"anonymous":false},{"type":"event","name":"ApprovalForAll","inputs":[{"name":"owner","type":"address","indexed":true,"internalType":"address"},{"name":"operator","type":"address","indexed":true,"internalType":"address"},{"name":"approved","type":"bool","indexed":false,"internalType":"bool"}],"anonymous":false},{"type":"event","name":"Initialized","inputs":[{"name":"version","type":"uint64","indexed":false,"internalType":"uint64"}],"anonymous":false},{"type":"event","name":"LandMinted","inputs":[{"name":"to","type":"address","indexed":true,"internalType":"address"},{"name":"landId","type":"uint256","indexed":true,"internalType":"uint256"}],"anonymous":false},{"type":"event","name":"Paused","inputs":[{"name":"account","type":"address","indexed":false,"internalType":"address"}],"anonymous":false},{"type":"event","name":"RoleAdminChanged","inputs":[{"name":"role","type":"bytes32","indexed":true,"internalType":"bytes32"},{"name":"previousAdminRole","type":"bytes32","indexed":true,"internalType":"bytes32"},{"name":"newAdminRole","type":"bytes32","indexed":true,"internalType":"bytes32"}],"anonymous":false},{"type":"event","name":"RoleGranted","inputs":[{"name":"role","type":"bytes32","indexed":true,"internalType":"bytes32"},{"name":"account","type":"address","indexed":true,"internalType":"address"},{"name":"sender","type":"address","indexed":true,"internalType":"address"}],"anonymous":false},{"type":"event","name":"RoleRevoked","inputs":[{"name":"role","type":"bytes32","indexed":true,"internalType":"bytes32"},{"name":"account","type":"address","indexed":true,"internalType":"address"},{"name":"sender","type":"address","indexed":true,"internalType":"address"}],"anonymous":false},{"type":"event","name":"Transfer","inputs":[{"name":"from","type":"address","indexed":true,"internalType":"address"},{"name":"to","type":"address","indexed":true,"internalType":"address"},{"name":"tokenId","type":"uint256","indexed":true,"internalType":"uint256"}],"anonymous":false},{"type":"event","name":"Unpaused","inputs":[{"name":"account","type":"address","indexed":false,"internalType":"address"}],"anonymous":false},{"type":"event","name":"Upgraded","inputs":[{"name":"implementation","type":"address","indexed":true,"internalType":"address"}],"anonymous":false},{"type":"error","name":"AccessControlBadConfirmation","inputs":[]},{"type":"error","name":"AccessControlUnauthorizedAccount","inputs":[{"name":"account","type":"address","internalType":"address"},{"name":"neededRole","type":"bytes32","internalType":"bytes32"}]},{"type":"error","name":"AddressEmptyCode","inputs":[{"name":"target","type":"address","internalType":"address"}]},{"type":"error","name":"ERC1967InvalidImplementation","inputs":[{"name":"implementation","type":"address","internalType":"address"}]},{"type":"error","name":"ERC1967NonPayable","inputs":[]},{"type":"error","name":"ERC721EnumerableForbiddenBatchMint","inputs":[]},{"type":"error","name":"ERC721IncorrectOwner","inputs":[{"name":"sender","type":"address","internalType":"address"},{"name":"tokenId","type":"uint256","internalType":"uint256"},{"name":"owner","type":"address","internalType":"address"}]},{"type":"error","name":"ERC721InsufficientApproval","inputs":[{"name":"operator","type":"address","internalType":"address"},{"name":"tokenId","type":"uint256","internalType":"uint256"}]},{"type":"error","name":"ERC721InvalidApprover","inputs":[{"name":"approver","type":"address","internalType":"address"}]},{"type":"error","name":"ERC721InvalidOperator","inputs":[{"name":"operator","type":"address","internalType":"address"}]},{"type":"error","name":"ERC721InvalidOwner","inputs":[{"name":"owner","type":"address","internalType":"address"}]},{"type":"error","name":"ERC721InvalidReceiver","inputs":[{"name":"receiver","type":"address","internalType":"address"}]},{"type":"error","name":"ERC721InvalidSender","inputs":[{"name":"sender","type":"address","internalType":"address"}]},{"type":"error","name":"ERC721NonexistentToken","inputs":[{"name":"tokenId","type":"uint256","internalType":"uint256"}]},{"type":"error","name":"ERC721OutOfBoundsIndex","inputs":[{"name":"owner","type":"address","internalType":"address"},{"name":"index","type":"uint256","internalType":"uint256"}]},{"type":"error","name":"EnforcedPause","inputs":[]},{"type":"error","name":"ExpectedPause","inputs":[]},{"type":"error","name":"FailedCall","inputs":[]},{"type":"error","name":"InvalidInitialization","inputs":[]},{"type":"error","name":"InvalidValue","inputs":[]},{"type":"error","name":"LandLimitReached","inputs":[{"name":"account","type":"address","internalType":"address"}]},{"type":"error","name":"NotInitializing","inputs":[]},{"type":"error","name":"UUPSUnauthorizedCallContext","inputs":[]},{"type":"error","name":"UUPSUnsupportedProxiableUUID","inputs":[{"name":"slot","type":"bytes32","internalType":"bytes32"}]},{"type":"error","name":"ZeroAddress","inputs":[]}],"bytecode":{"object":"0x60a080604052346100cc57306080527ff0c57e16840df040f15088dc2f81fe391c3923bec73e23a9662efc9c229c6a009081549060ff8260401c166100bd57506001600160401b036002600160401b031982821601610078575b604051612b6790816100d182396080518181816110c601526111ca0152f35b6001600160401b031990911681179091556040519081527fc7f505b2f371ae2175ee4913f4499e1f2633a7b5936321eed1cdaeb6115181d290602090a15f8080610059565b63f92ee8a960e01b8152600490fd5b5f80fdfe6080604090808252600480361015610015575f80fd5b5f3560e01c91826301ffc9a71461195d5750816306fdde031461188a578163081812fc14611845578163095ea7b31461176457816318160ddd1461173a57816323b872dd14611723578163248a9ca3146116ed578163248b71fc146115585781632f2ff15d146115305781632f745c59146114a657816336568abe1461146257816338841782146114285781633f4ba83a146113b357816342842e0e146113855781634f1ef2861461118b5781634f6ccce71461112a57816352d1902d146110b357816355f804b314610f555781635c975abb14610f265781635f1e6f6d1461097b5781636352211e1461094c5781636a6278421461089c57816370a082311461087057816375794a3c146108535781637ce7924a146108385781638456cb59146107d357816391d148541461078357816395d89b4114610688578163a217fddf1461066e578163a22cb465146105d5578163ad3cb1cc1461056d578163b88d4fde14610514578163c87b56dd1461027b578163d539139314610241578163d547741f146101f9575063e985e9c5146101ac575f80fd5b346101f557806003193601126101f5576020906101c7611a41565b6101d86101d2611a57565b91611f35565b9060018060a01b03165f52825260ff815f20541690519015158152f35b5f80fd5b82346101f557806003193601126101f55761023f913561023a600161021c611a57565b93835f525f80516020612ab28339815191526020525f2001546121b3565b61279c565b005b82346101f5575f3660031901126101f557602090517f9f2df0fed2c77648de5860a4cc508cd0818c85b8b8a1ab4ceeef8d981c8956a68152f35b9050346101f557602090816003193601126101f55781813561029c8161208b565b508451925f600191858354926102b184611b92565b808352878301948887821691825f146104f75750506001146104b5575b50906102db910387611ad2565b855115610498578384915f957a184f03e93ff9f4daa797ed6e38ed64bf6a1f010000000000000000908181101561048b575b5050866d04ee2d6d415b85acef81000000008085101561047d575b5050662386f26fc100008084101561046e575b506305f5e1008084101561045f575b5061271080841015610451575b50506064821015610441575b600a80921015610438575b92889381602161039782890161038f61038682611af4565b9951998a611ad2565b808952611af4565b878a019890601f1901368a37870101905b610403575b50505050936103ee926103d394926103e26103ff978a51978895518092888801906119fb565b840191518093868401906119fb565b01038084520182611ad2565b925b51928284938452830190611a1c565b0390f35b5f19019083906f181899199a1a9b1b9c1cb0b131b232b360811b8282061a835304918215610433579190826103a8565b6103ad565b9383019361036e565b9390606460029104910193610363565b950194909104905f80610357565b6008919693049201945f61034a565b6010919693049201945f61033b565b96019590920491865f610328565b8b97500492505f8061030d565b5050505050506103ff82516104ac81611aa2565b5f8152926103f0565b5f86815291505f80516020612ad28339815191525b8183106104df575050810186016102db6102ce565b8054838b018a01528a988a94509092019186016104ca565b60ff1916875291151560051b840190910191506102db90506102ce565b346101f55760803660031901126101f55761052d611a41565b610535611a57565b6044359060643567ffffffffffffffff81116101f55761023f9461055b91369101611b46565b92610567838383611bca565b3361284a565b82346101f5575f3660031901126101f55780519080820182811067ffffffffffffffff8211176105c2576103ff9350815260058252640352e302e360dc1b602083015251918291602083526020830190611a1c565b604184634e487b7160e01b5f525260245ffd5b82346101f557806003193601126101f5576105ee611a41565b90602435918215158093036101f5576001600160a01b0316928315610659575061061733611f35565b835f52602052805f2060ff1981541660ff8416179055519081527f17307eab39ab6107e8899845ad3d59bd9653f200f220920489ca2b5937696c3160203392a3005b836024925191630b61174360e31b8352820152fd5b82346101f5575f3660031901126101f557602090515f8152f35b82346101f5575f3660031901126101f5578051905f90827f80bb2b638cc20bc4d0a60d66940f3ab4a00c1d7b313497ca82fb0b4ab00793019283546106cc81611b92565b90818452602095600191876001821691825f1461075c575050600114610700575b5050506103ff92916103f0910385611ad2565b5f90815286935091907ff4bad0a69248f59680a4f2b3000328cec71a413447c96781cfe5996daa8c456e5b82841061074457505050820101816103f06103ff6106ed565b8054848a01860152889550879490930192810161072b565b60ff19168782015293151560051b860190930193508492506103f091506103ff90506106ed565b82346101f557806003193601126101f55760209161079f611a57565b90355f525f80516020612ab28339815191528352815f209060018060a01b03165f52825260ff815f20541690519015158152f35b82346101f5575f3660031901126101f55760207f62e78cea01bee320cd4e420270b5ea74000d11b0c9f74754ebdbfc544b05a2589161081061215d565b6108186129a4565b5f80516020612af2833981519152805460ff1916600117905551338152a1005b9050346101f5575f3660031901126101f55760209151908152f35b82346101f5575f3660031901126101f5576020905f549051908152f35b82346101f55760203660031901126101f557602090610895610890611a41565b612057565b9051908152f35b9050346101f55760203660031901126101f5576108b7611a41565b916108c06120e4565b6001600160a01b03831691821561093e57806108db85612057565b101561092957506020926108ff915f54928380936108f882611f27565b5f556121e1565b51927f9437df90ca295e7b4571f9dab7a5e9c099bab4bec6fcf50b21443b395c42e9d05f80a38152f35b8260249251916333a879f160e21b8352820152fd5b905163d92e233d60e01b8152fd5b82346101f55760203660031901126101f55761096a6020923561208b565b90516001600160a01b039091168152f35b9050346101f55760803660031901126101f557610996611a41565b67ffffffffffffffff6024358181116101f5576109b69036908501611b64565b9190926044358281116101f5576109d09036908701611b64565b9190956064358481116101f5576109ea9036908301611b64565b9490927ff0c57e16840df040f15088dc2f81fe391c3923bec73e23a9662efc9c229c6a009889549860ff8a8d1c161598848b169a8b1580610f1f575b6001809d149081610f15575b159081610f0c575b50610efc5767ffffffffffffffff1981168c178d558a610edd575b506001600160a01b03841615610ecd57610a7d9291610a75913691611b10565b963691611b10565b610a85612963565b610a8d612963565b8551838111610dd2577f80bb2b638cc20bc4d0a60d66940f3ab4a00c1d7b313497ca82fb0b4ab007930090610ac28254611b92565b97601f98898111610e6b575b50602090898311600114610de557610afd92915f9183610ce2575b50508160011b915f199060031b1c19161790565b90555b8051838111610dd2577f80bb2b638cc20bc4d0a60d66940f3ab4a00c1d7b313497ca82fb0b4ab007930191610b358354611b92565b888111610d70575b50602090888311600114610ced579180610b7192610bcb9695945f92610ce25750508160011b915f199060031b1c19161790565b90555b610b7c612963565b610b84612963565b610b8c612963565b5f80516020612af2833981519152805460ff19169055610baa612963565b610bb2612963565b610bbb8161254f565b50610bc5816125d9565b50612686565b508411610ccf5750610be683610be18754611b92565b611ff9565b5f918311600114610c6457610c1192915f9183610c595750508160011b915f199060031b1c19161790565b82555b815f55610c1d57005b7fc7f505b2f371ae2175ee4913f4499e1f2633a7b5936321eed1cdaeb6115181d29260209268ff000000000000000019815416905551908152a1005b013590505f80610ae9565b5f8581528593925f80516020612ad28339815191529291601f198516905b818110610cb757508411610c9e575b505050811b018255610c14565b01355f19600384901b60f8161c191690555f8080610c91565b82840135855588969094019360209283019201610c82565b604190634e487b7160e01b5f525260245ffd5b015190505f80610ae9565b9392918b91601f19821690845f527ff4bad0a69248f59680a4f2b3000328cec71a413447c96781cfe5996daa8c456e915f5b818110610d5857509683610bcb9810610d40575b505050811b019055610b74565b01515f1960f88460031b161c191690555f8080610d33565b8289015184558f959093019260209283019201610d1f565b835f527ff4bad0a69248f59680a4f2b3000328cec71a413447c96781cfe5996daa8c456e8980850160051c82019260208610610dc9575b0160051c01908c905b828110610dbe575050610b3d565b5f8155018c90610db0565b92508192610da7565b604185634e487b7160e01b5f525260245ffd5b8c9291601f19831691855f527f37c58c799b6609234b945e882912ee9ad34948a1dfaa20a97485e1a7752bbf81925f5b818110610e4957508411610e31575b505050811b019055610b00565b01515f1960f88460031b161c191690555f8080610e24565b93839596602092939491839286015181550195019301908f9594939291610e15565b835f527f37c58c799b6609234b945e882912ee9ad34948a1dfaa20a97485e1a7752bbf818a80850160051c82019260208610610ec4575b0160051c01908d905b828110610eb9575050610ace565b5f8155018d90610eab565b92508192610ea2565b8c5163d92e233d60e01b81528690fd5b68ffffffffffffffffff191668010000000000000001178c555f610a55565b8d5163f92ee8a960e01b81528790fd5b9050155f610a3a565b303b159150610a32565b508a610a26565b82346101f5575f3660031901126101f55760209060ff5f80516020612af2833981519152541690519015158152f35b82346101f55760209160206003193601126101f55767ffffffffffffffff9080358281116101f557610f8a9036908301611b64565b9290937f6bd6b5318a46e5fff572d5e4258a20774aab40cc35ac7680654b9081fcc82f8090815f525f80516020612ab2833981519152602052805f20335f5260205260ff815f205416156110955750508211610ccf5750600191610ff282610be18554611b92565b5f93601f83116001146110305750611021929382915f926110255750508160011b915f199060031b1c19161790565b9055005b013590508480610ae9565b601f198316945f80516020612ad283398151915292915f905b87821061107e57505083859610611065575b505050811b019055005b01355f19600384901b60f8161c1916905583808061105b565b808784968294958701358155019501920190611049565b5163e2517d3f60e01b81523393810193909352602483015250604490fd5b82346101f5575f3660031901126101f5577f00000000000000000000000000000000000000000000000000000000000000006001600160a01b0316300361111d57602090517f360894a13ba1a3210667c828492db98dca3e2076cc3735a920a3ca505d382bbc8152f35b5163703e46dd60e11b8152fd5b9050346101f55760203660031901126101f5578035905f80516020612a92833981519152548210156111705760208361116284611fa5565b91905490519160031b1c8152f35b905f604493519263295f44f760e21b84528301526024820152fd5b9050816003193601126101f5576111a0611a41565b60243567ffffffffffffffff81116101f5576111bf9036908401611b46565b926001600160a01b037f00000000000000000000000000000000000000000000000000000000000000008116308114908115611357575b506113475761120361215d565b82169181516352d1902d60e01b81526020818681875afa5f9181611313575b5061123e57505051634c9c8ce360e01b81529182015260249150fd5b7f360894a13ba1a3210667c828492db98dca3e2076cc3735a920a3ca505d382bbc9493929194908181036112fd5750843b156112e75780546001600160a01b0319168317905551907fbc7cd75a20ee27fd9adebab32041f755214dbc6bffa90cc0225b39da2e5c2d3b5f80a28351156112d05750505f8083602061023f95519101845af46112ca61281b565b916129ce565b91509150346112db57005b63b398979f60e01b8152fd5b5051634c9c8ce360e01b81529182015260249150fd5b84602491845191632a87526960e21b8352820152fd5b9091506020813d60201161133f575b8161132f60209383611ad2565b810103126101f55751905f611222565b3d9150611322565b815163703e46dd60e11b81528490fd5b9050817f360894a13ba1a3210667c828492db98dca3e2076cc3735a920a3ca505d382bbc541614155f6111f6565b82346101f55761023f9061139836611a6d565b919251926113a584611aa2565b5f8452610567838383611bca565b82346101f5575f3660031901126101f5576113cc61215d565b5f80516020612af28339815191529182549060ff82161561141a577f5db9ee0a495bf2e6ff9c91a7834c1ba4fdd244a5e8aa4e537bd38aeae4b073aa602084868560ff1916905551338152a1005b8251638dfc202b60e01b8152fd5b82346101f5575f3660031901126101f557602090517f6bd6b5318a46e5fff572d5e4258a20774aab40cc35ac7680654b9081fcc82f808152f35b82346101f557806003193601126101f55761147b611a57565b90336001600160a01b03831603611497575061023f913561279c565b5163334bd91960e11b81529050fd5b82346101f557806003193601126101f5576114bf611a41565b91602435906114cd84612057565b821015611505575060209260018060a01b03165f525f80516020612a728339815191528352815f20905f528252805f20549051908152f35b915163295f44f760e21b81526001600160a01b03909316918301918252602082015281906040010390fd5b82346101f557806003193601126101f55761023f9135611553600161021c611a57565b61272c565b9050346101f557816003193601126101f557611572611a41565b9060248035926115806120e4565b6001600160a01b0381169384156116dd5780156116cd576115a082612057565b8181018091116116ba5784106116a3576115bd8196959496611f0f565b956115ca86519788611ad2565b8187526115d682611f0f565b9460209485890196601f19013688375f5b8481106116305750505050505082519384938285019183865251809252840192915f5b82811061161957505050500390f35b83518552869550938101939281019260010161160a565b5f999798995461163f81611f27565b5f558851821015611691579081600192898360051b8c01015261166281896121e1565b847f9437df90ca295e7b4571f9dab7a5e9c099bab4bec6fcf50b21443b395c42e9d05f80a301989796986115e7565b82603286634e487b7160e01b5f52525ffd5b85516333a879f160e21b8152808501869052602490fd5b601185634e487b7160e01b5f525260245ffd5b8551632a9ffab760e21b81528490fd5b855163d92e233d60e01b81528490fd5b82346101f55760203660031901126101f557602091355f525f80516020612ab283398151915282526001815f2001549051908152f35b346101f55761023f61173436611a6d565b91611bca565b82346101f5575f3660031901126101f5576020905f80516020612a92833981519152549051908152f35b82346101f557806003193601126101f55761177d611a41565b916024359061178b8261208b565b9033151580611832575b80611815575b6117fe57506001600160a01b039384169382918591167f8c5be1e5ebec7d5bd14f71427d1e84f3dd0314c0f7b2291e5b200ac8c7c3b9255f80a45f9081525f80516020612b128339815191526020522080546001600160a01b0319169091179055005b60249084519063a9fbf51f60e01b82523390820152fd5b5061181f82611f35565b335f5260205260ff845f2054161561179b565b506001600160a01b038216331415611795565b82346101f55760203660031901126101f557602091356118648161208b565b505f525f80516020612b12833981519152825260018060a01b03815f2054169051908152f35b82346101f5575f3660031901126101f5578051905f90827f80bb2b638cc20bc4d0a60d66940f3ab4a00c1d7b313497ca82fb0b4ab00793009283546118ce81611b92565b90818452602095600191876001821691825f1461075c575050600114611901575050506103ff92916103f0910385611ad2565b5f90815286935091907f37c58c799b6609234b945e882912ee9ad34948a1dfaa20a97485e1a7752bbf815b82841061194557505050820101816103f06103ff6106ed565b8054848a01860152889550879490930192810161192c565b90346101f55760203660031901126101f557359063ffffffff60e01b82168092036101f557602091637965db0b60e01b811490811561199e575b5015158152f35b63780e9d6360e01b8114915081156119b8575b5083611997565b6380ac58cd60e01b8114915081156119ea575b81156119d9575b50836119b1565b6301ffc9a760e01b149050836119d2565b635b5e139f60e01b811491506119cb565b5f5b838110611a0c5750505f910152565b81810151838201526020016119fd565b90602091611a35815180928185528580860191016119fb565b601f01601f1916010190565b600435906001600160a01b03821682036101f557565b602435906001600160a01b03821682036101f557565b60609060031901126101f5576001600160a01b039060043582811681036101f5579160243590811681036101f5579060443590565b6020810190811067ffffffffffffffff821117611abe57604052565b634e487b7160e01b5f52604160045260245ffd5b90601f8019910116810190811067ffffffffffffffff821117611abe57604052565b67ffffffffffffffff8111611abe57601f01601f191660200190565b929192611b1c82611af4565b91611b2a6040519384611ad2565b8294818452818301116101f5578281602093845f960137010152565b9080601f830112156101f557816020611b6193359101611b10565b90565b9181601f840112156101f55782359167ffffffffffffffff83116101f557602083818601950101116101f557565b90600182811c92168015611bc0575b6020831014611bac57565b634e487b7160e01b5f52602260045260245ffd5b91607f1691611ba1565b90916001600160a01b03808416928315611ef757611be66129a4565b825f527f80bb2b638cc20bc4d0a60d66940f3ab4a00c1d7b313497ca82fb0b4ab00793029360209085825260409684885f2054169633151580611e5e575b508715908115611e22575b611c3883611f6d565b60018154019055875f528452885f20836bffffffffffffffffffffffff60a01b8254161790558683897fddf252ad1be2c89b69c2b068fc378daa952ba7f163c4a11628f55a4df523b3ef5f80a415611d9f575f80516020612a928339815191528054875f527f645e039705490088daad89bae25049a34f4a9072d398537b1ab2425f24cbed038552808a5f2055600160401b811015611abe57611ce581611cfd9360018b94019055611fa5565b90919082549060031b91821b915f19901b1916179055565b818703611d38575b5050501692838303611d175750505050565b6064945051926364283d7b60e01b8452600484015260248301526044820152fd5b611d4190612057565b5f19810192908311611d8b575f80516020612a52833981519152915f525f80516020612a728339815191528152875f20835f52815285885f2055855f5252855f20555f8080611d05565b634e487b7160e01b5f52601160045260245ffd5b868214611cfd57611daf87612057565b865f525f80516020612a5283398151915290818552895f205491895f525f80516020612a7283398151915286528a5f2092828103611e01575b50885f5285525f8a8120555f5283525f88812055611cfd565b825f528387528b5f2054815f52808d5f20555f528187528b5f20555f611de8565b5f8881525f80516020612b128339815191526020526040902080546001600160a01b0319169055611e5289611f6d565b80545f19019055611c2f565b80611eab575b15611e6f575f611c24565b888789611e8c576024915190637e27328960e01b82526004820152fd5b905163177e802f60e01b81523360048201526024810191909152604490fd5b503388148015611edc575b80611e645750865f525f80516020612b12833981519152845233868a5f20541614611e64565b50611ee688611f35565b335f52845260ff895f205416611eb6565b604051633250574960e11b81525f6004820152602490fd5b67ffffffffffffffff8111611abe5760051b60200190565b5f198114611d8b5760010190565b6001600160a01b03165f9081527f80bb2b638cc20bc4d0a60d66940f3ab4a00c1d7b313497ca82fb0b4ab00793056020526040902090565b6001600160a01b03165f9081527f80bb2b638cc20bc4d0a60d66940f3ab4a00c1d7b313497ca82fb0b4ab00793036020526040902090565b5f80516020612a928339815191528054821015611fe5575f527fa42f15e5d656f8155fd7419d740a6073999f19cd6e061449ce4a257150545bf201905f90565b634e487b7160e01b5f52603260045260245ffd5b90601f8211612006575050565b60019160015f525f80516020612ad2833981519152906020601f840160051c8301931061204d575b601f0160051c01905b81811061204357505050565b5f81558201612037565b909150819061202e565b6001600160a01b038116156120735761206f90611f6d565b5490565b6040516322718ad960e21b81525f6004820152602490fd5b5f8181527f80bb2b638cc20bc4d0a60d66940f3ab4a00c1d7b313497ca82fb0b4ab007930260205260409020546001600160a01b03169081156120cc575090565b60249060405190637e27328960e01b82526004820152fd5b335f9081527f549fe2656c81d2947b3b913f0a53b9ea86c71e049f3a1b8aa23c09a8a05cb8d460205260409020547f9f2df0fed2c77648de5860a4cc508cd0818c85b8b8a1ab4ceeef8d981c8956a69060ff161561213f5750565b6044906040519063e2517d3f60e01b82523360048301526024820152fd5b335f9081527fb7db2dd08fcb62d0c9e08c51941cae53c267786a0b75803fb7960902fc8ef97d602052604090205460ff161561219557565b60405163e2517d3f60e01b81523360048201525f6024820152604490fd5b805f525f80516020612ab283398151915260205260405f20335f5260205260ff60405f2054161561213f5750565b60408051926121ef84611aa2565b5f84526001600160a01b03938385169384156125385761220d6129a4565b825f527f80bb2b638cc20bc4d0a60d66940f3ab4a00c1d7b313497ca82fb0b4ab0079302602096818852855f205416868115801593846124fc575b61225186611f6d565b60018154019055875f528a52875f20826bffffffffffffffffffffffff60a01b8254161790558682847fddf252ad1be2c89b69c2b068fc378daa952ba7f163c4a11628f55a4df523b3ef5f80a41561247857505f80516020612a9283398151915290815491865f527f645e039705490088daad89bae25049a34f4a9072d398537b1ab2425f24cbed038a5282885f2055600160401b831015611abe5786611ce5846123029360018d97019055611fa5565b03612428575b612411573b612319575b5050505050565b846123569184959697945180938192630a85bd0160e11b968784523360048501525f60248501526044840152608060648401526084830190611a1c565b03815f895af15f91816123d1575b5061239a5750505061237461281b565b80519384612394578251633250574960e11b815260048101859052602490fd5b84925001fd5b9194506001600160e01b0319909116036123ba5750505f80808080612312565b602492505190633250574960e11b82526004820152fd5b9091508681813d831161240a575b6123e98183611ad2565b810103126101f557516001600160e01b0319811681036101f557905f612364565b503d6123df565b83516339e3563760e11b81525f6004820152602490fd5b61243182612057565b5f198101908111611d8b57865f525f80516020612a728339815191528852855f20815f52885284865f2055845f525f80516020612a528339815191528852855f2055612308565b908082146123025761248981612057565b865f525f80516020612a5283398151915290818b52885f205491835f525f80516020612a728339815191528c52895f20928281036124db575b50885f528b525f898120555f5289525f87812055612302565b825f52838d528a5f2054815f52808c5f20555f52818d528a5f20555f6124c2565b5f8881525f80516020612b128339815191526020526040902080546001600160a01b031916905561252c84611f6d565b80545f19019055612248565b8351633250574960e11b81525f6004820152602490fd5b6001600160a01b03165f8181527fb7db2dd08fcb62d0c9e08c51941cae53c267786a0b75803fb7960902fc8ef97d60205260409020545f80516020612ab28339815191529060ff166125d3575f805260205260405f20815f5260205260405f20600160ff1982541617905533905f5f80516020612a328339815191528180a4600190565b50505f90565b6001600160a01b03165f8181527f549fe2656c81d2947b3b913f0a53b9ea86c71e049f3a1b8aa23c09a8a05cb8d460205260409020547f9f2df0fed2c77648de5860a4cc508cd0818c85b8b8a1ab4ceeef8d981c8956a691905f80516020612ab28339815191529060ff1661267f57825f5260205260405f20815f5260205260405f20600160ff1982541617905533915f80516020612a328339815191525f80a4600190565b5050505f90565b6001600160a01b03165f8181527f346ea48353bbdc2e80638cf011e77aca0dd1af6f3da3c30f4696b491ab173fd860205260409020547f6bd6b5318a46e5fff572d5e4258a20774aab40cc35ac7680654b9081fcc82f8091905f80516020612ab28339815191529060ff1661267f57825f5260205260405f20815f5260205260405f20600160ff1982541617905533915f80516020612a328339815191525f80a4600190565b90815f525f80516020612ab28339815191528060205260405f209160018060a01b031691825f5260205260ff60405f205416155f1461267f57825f5260205260405f20815f5260205260405f20600160ff1982541617905533915f80516020612a328339815191525f80a4600190565b90815f525f80516020612ab28339815191528060205260405f209160018060a01b031691825f5260205260ff60405f2054165f1461267f57825f5260205260405f20815f5260205260405f2060ff19815416905533917ff6391f5c32d9c69d2a47ea670b442974b53935d1edc7fd64eb21e047a839171b5f80a4600190565b3d15612845573d9061282c82611af4565b9161283a6040519384611ad2565b82523d5f602084013e565b606090565b9291803b612859575050505050565b604051630a85bd0160e11b8082526001600160a01b039586166004830152928516602482015260448101939093526080606484015290921692602090829081906128a7906084830190611a1c565b03815f875af15f918161291e575b506128ec57826128c361281b565b80519190826128e557604051633250574960e11b815260048101839052602490fd5b9050602001fd5b6001600160e01b0319160361290657505f80808080612312565b60249060405190633250574960e11b82526004820152fd5b9091506020813d60201161295b575b8161293a60209383611ad2565b810103126101f557516001600160e01b0319811681036101f557905f6128b5565b3d915061292d565b60ff7ff0c57e16840df040f15088dc2f81fe391c3923bec73e23a9662efc9c229c6a005460401c161561299257565b604051631afcd79f60e31b8152600490fd5b60ff5f80516020612af283398151915254166129bc57565b60405163d93c066560e01b8152600490fd5b906129f557508051156129e357805190602001fd5b60405163d6bda27560e01b8152600490fd5b81511580612a28575b612a06575090565b604051639996b31560e01b81526001600160a01b039091166004820152602490fd5b50803b156129fe56fe2f8788117e7eff1d82e926ec794901d17c78024a50270940304540a733656f0d645e039705490088daad89bae25049a34f4a9072d398537b1ab2425f24cbed01645e039705490088daad89bae25049a34f4a9072d398537b1ab2425f24cbed00645e039705490088daad89bae25049a34f4a9072d398537b1ab2425f24cbed0202dd7bc7dec4dceedda775e58dd541e08a116c6c53815c0bd028192f7b626800b10e2d527612073b26eecdfd717e6a320cf44b4afac2b0732d9fcbe2b7fa0cf6cd5ed15c6e187e77e9aee88184c21f4f2182ab5827cb3b7e07fbedcd63f0330080bb2b638cc20bc4d0a60d66940f3ab4a00c1d7b313497ca82fb0b4ab0079304a26469706673582212205f5b0027df74bafa7331cb40220370faff5c75e5094cf0c64fd81c780c3116c164736f6c63430008180033","linkReferences":{}},"methodIdentifiers":{"DEFAULT_ADMIN_ROLE()":"a217fddf","MAX_LAND_PER_USER()":"7ce7924a","METADATA_ROLE()":"38841782","MINTER_ROLE()":"d5391393","UPGRADE_INTERFACE_VERSION()":"ad3cb1cc","approve(address,uint256)":"095ea7b3","balanceOf(address)":"70a08231","getApproved(uint256)":"081812fc","getRoleAdmin(bytes32)":"248a9ca3","grantRole(bytes32,address)":"2f2ff15d","hasRole(bytes32,address)":"91d14854","initialize(address,string,string,string)":"5f1e6f6d","isApprovedForAll(address,address)":"e985e9c5","mint(address)":"6a627842","mintBatch(address,uint256)":"248b71fc","name()":"06fdde03","nextTokenId()":"75794a3c","ownerOf(uint256)":"6352211e","pause()":"8456cb59","paused()":"5c975abb","proxiableUUID()":"52d1902d","renounceRole(bytes32,address)":"36568abe","revokeRole(bytes32,address)":"d547741f","safeTransferFrom(address,address,uint256)":"42842e0e","safeTransferFrom(address,address,uint256,bytes)":"b88d4fde","setApprovalForAll(address,bool)":"a22cb465","setBaseURI(string)":"55f804b3","supportsInterface(bytes4)":"01ffc9a7","symbol()":"95d89b41","tokenByIndex(uint256)":"4f6ccce7","tokenOfOwnerByIndex(address,uint256)":"2f745c59","tokenURI(uint256)":"c87b56dd","totalSupply()":"18160ddd","transferFrom(address,address,uint256)":"23b872dd","unpause()":"3f4ba83a","upgradeToAndCall(address,bytes)":"4f1ef286"},"id":2}