{"abi":[{"type":"constructor","inputs":[],"stateMutability":"nonpayable"},{"type":"fallback","stateMutability":"payable"},{"type":"receive","stateMutability":"payable"},{"type":"function","name":"DEFAULT_ADMIN_ROLE","inputs":[],"outputs":[{"name":"","type":"bytes32","internalType":"bytes32"}],"stateMutability":"view"},{"type":"function","name":"MANAGER_ROLE","inputs":[],"outputs":[{"name":"","type":"bytes32","internalType":"bytes32"}],"stateMutability":"view"},{"type":"function","name":"UPGRADE_INTERFACE_VERSION","inputs":[],"outputs":[{"name":"","type":"string","internalType":"string"}],"stateMutability":"view"},{"type":"function","name":"buy1155","inputs":[{"name":"listingId","type":"uint256","internalType":"uint256"},{"name":"quantity","type":"uint64","internalType":"uint64"}],"outputs":[],"stateMutability":"payable"},{"type":"function","name":"buy721","inputs":[{"name":"listingId","type":"uint256","internalType":"uint256"}],"outputs":[],"stateMutability":"payable"},{"type":"function","name":"cancelListing","inputs":[{"name":"listingId","type":"uint256","internalType":"uint256"}],"outputs":[],"stateMutability":"nonpayable"},{"type":"function","name":"getListing","inputs":[{"name":"listingId","type":"uint256","internalType":"uint256"}],"outputs":[{"name":"","type":"tuple","internalType":"struct MarketplaceListing","components":[{"name":"seller","type":"address","internalType":"address"},{"name":"asset","type":"address","internalType":"address"},{"name":"tokenId","type":"uint256","internalType":"uint256"},{"name":"pricePerUnit","type":"uint128","internalType":"uint128"},{"name":"amount","type":"uint64","internalType":"uint64"},{"name":"expiry","type":"uint64","internalType":"uint64"},{"name":"is1155","type":"bool","internalType":"bool"}]}],"stateMutability":"view"},{"type":"function","name":"getRoleAdmin","inputs":[{"name":"role","type":"bytes32","internalType":"bytes32"}],"outputs":[{"name":"","type":"bytes32","internalType":"bytes32"}],"stateMutability":"view"},{"type":"function","name":"grantRole","inputs":[{"name":"role","type":"bytes32","internalType":"bytes32"},{"name":"account","type":"address","internalType":"address"}],"outputs":[],"stateMutability":"nonpayable"},{"type":"function","name":"hasRole","inputs":[{"name":"role","type":"bytes32","internalType":"bytes32"},{"name":"account","type":"address","internalType":"address"}],"outputs":[{"name":"","type":"bool","internalType":"bool"}],"stateMutability":"view"},{"type":"function","name":"initialize","inputs":[{"name":"admin","type":"address","internalType":"address"},{"name":"parameterRegistry_","type":"address","internalType":"address"},{"name":"item1155_","type":"address","internalType":"address"},{"name":"land721_","type":"address","internalType":"address"}],"outputs":[],"stateMutability":"nonpayable"},{"type":"function","name":"item1155","inputs":[],"outputs":[{"name":"","type":"address","internalType":"contract Item1155"}],"stateMutability":"view"},{"type":"function","name":"land721","inputs":[],"outputs":[{"name":"","type":"address","internalType":"contract Land721"}],"stateMutability":"view"},{"type":"function","name":"list1155","inputs":[{"name":"tokenId","type":"uint256","internalType":"uint256"},{"name":"amount","type":"uint64","internalType":"uint64"},{"name":"pricePerUnit","type":"uint128","internalType":"uint128"},{"name":"expiry","type":"uint64","internalType":"uint64"}],"outputs":[{"name":"listingId","type":"uint256","internalType":"uint256"}],"stateMutability":"nonpayable"},{"type":"function","name":"list721","inputs":[{"name":"tokenId","type":"uint256","internalType":"uint256"},{"name":"price","type":"uint128","internalType":"uint128"},{"name":"expiry","type":"uint64","internalType":"uint64"}],"outputs":[{"name":"listingId","type":"uint256","internalType":"uint256"}],"stateMutability":"nonpayable"},{"type":"function","name":"onERC1155BatchReceived","inputs":[{"name":"","type":"address","internalType":"address"},{"name":"","type":"address","internalType":"address"},{"name":"","type":"uint256[]","internalType":"uint256[]"},{"name":"","type":"uint256[]","internalType":"uint256[]"},{"name":"","type":"bytes","internalType":"bytes"}],"outputs":[{"name":"","type":"bytes4","internalType":"bytes4"}],"stateMutability":"nonpayable"},{"type":"function","name":"onERC1155Received","inputs":[{"name":"","type":"address","internalType":"address"},{"name":"","type":"address","internalType":"address"},{"name":"","type":"uint256","internalType":"uint256"},{"name":"","type":"uint256","internalType":"uint256"},{"name":"","type":"bytes","internalType":"bytes"}],"outputs":[{"name":"","type":"bytes4","internalType":"bytes4"}],"stateMutability":"nonpayable"},{"type":"function","name":"onERC721Received","inputs":[{"name":"","type":"address","internalType":"address"},{"name":"","type":"address","internalType":"address"},{"name":"","type":"uint256","internalType":"uint256"},{"name":"","type":"bytes","internalType":"bytes"}],"outputs":[{"name":"","type":"bytes4","internalType":"bytes4"}],"stateMutability":"nonpayable"},{"type":"function","name":"parameterRegistry","inputs":[],"outputs":[{"name":"","type":"address","internalType":"contract ParameterRegistry"}],"stateMutability":"view"},{"type":"function","name":"pause","inputs":[],"outputs":[],"stateMutability":"nonpayable"},{"type":"function","name":"paused","inputs":[],"outputs":[{"name":"","type":"bool","internalType":"bool"}],"stateMutability":"view"},{"type":"function","name":"proxiableUUID","inputs":[],"outputs":[{"name":"","type":"bytes32","internalType":"bytes32"}],"stateMutability":"view"},{"type":"function","name":"renounceRole","inputs":[{"name":"role","type":"bytes32","internalType":"bytes32"},{"name":"callerConfirmation","type":"address","internalType":"address"}],"outputs":[],"stateMutability":"nonpayable"},{"type":"function","name":"revokeRole","inputs":[{"name":"role","type":"bytes32","internalType":"bytes32"},{"name":"account","type":"address","internalType":"address"}],"outputs":[],"stateMutability":"nonpayable"},{"type":"function","name":"supportsInterface","inputs":[{"name":"interfaceId","type":"bytes4","internalType":"bytes4"}],"outputs":[{"name":"","type":"bool","internalType":"bool"}],"stateMutability":"view"},{"type":"function","name":"unpause","inputs":[],"outputs":[],"stateMutability":"nonpayable"},{"type":"function","name":"updateDependencies","inputs":[{"name":"newParameterRegistry","type":"address","internalType":"address"},{"name":"newItem1155","type":"address","internalType":"address"},{"name":"newLand721","type":"address","internalType":"address"}],"outputs":[],"stateMutability":"nonpayable"},{"type":"function","name":"upgradeToAndCall","inputs":[{"name":"newImplementation","type":"address","internalType":"address"},{"name":"data","type":"bytes","internalType":"bytes"}],"outputs":[],"stateMutability":"payable"},{"type":"event","name":"Initialized","inputs":[{"name":"version","type":"uint64","indexed":false,"internalType":"uint64"}],"anonymous":false},{"type":"event","name":"MarketplaceListingCancelled","inputs":[{"name":"listingId","type":"bytes32","indexed":true,"internalType":"bytes32"},{"name":"seller","type":"address","indexed":true,"internalType":"address"}],"anonymous":false},{"type":"event","name":"MarketplaceListingCreated","inputs":[{"name":"listingId","type":"bytes32","indexed":true,"internalType":"bytes32"},{"name":"seller","type":"address","indexed":true,"internalType":"address"},{"name":"asset","type":"address","indexed":true,"internalType":"address"},{"name":"tokenId","type":"uint256","indexed":false,"internalType":"uint256"},{"name":"amount","type":"uint256","indexed":false,"internalType":"uint256"},{"name":"pricePerUnit","type":"uint128","indexed":false,"internalType":"uint128"},{"name":"currency","type":"address","indexed":false,"internalType":"address"},{"name":"expiry","type":"uint64","indexed":false,"internalType":"uint64"}],"anonymous":false},{"type":"event","name":"MarketplacePurchase","inputs":[{"name":"listingId","type":"bytes32","indexed":true,"internalType":"bytes32"},{"name":"buyer","type":"address","indexed":true,"internalType":"address"},{"name":"amountFilled","type":"uint256","indexed":false,"internalType":"uint256"},{"name":"totalPaid","type":"uint256","indexed":false,"internalType":"uint256"},{"name":"feeRecipient","type":"address","indexed":false,"internalType":"address"},{"name":"feeAmount","type":"uint256","indexed":false,"internalType":"uint256"}],"anonymous":false},{"type":"event","name":"Paused","inputs":[{"name":"account","type":"address","indexed":false,"internalType":"address"}],"anonymous":false},{"type":"event","name":"RoleAdminChanged","inputs":[{"name":"role","type":"bytes32","indexed":true,"internalType":"bytes32"},{"name":"previousAdminRole","type":"bytes32","indexed":true,"internalType":"bytes32"},{"name":"newAdminRole","type":"bytes32","indexed":true,"internalType":"bytes32"}],"anonymous":false},{"type":"event","name":"RoleGranted","inputs":[{"name":"role","type":"bytes32","indexed":true,"internalType":"bytes32"},{"name":"account","type":"address","indexed":true,"internalType":"address"},{"name":"sender","type":"address","indexed":true,"internalType":"address"}],"anonymous":false},{"type":"event","name":"RoleRevoked","inputs":[{"name":"role","type":"bytes32","indexed":true,"internalType":"bytes32"},{"name":"account","type":"address","indexed":true,"internalType":"address"},{"name":"sender","type":"address","indexed":true,"internalType":"address"}],"anonymous":false},{"type":"event","name":"Unpaused","inputs":[{"name":"account","type":"address","indexed":false,"internalType":"address"}],"anonymous":false},{"type":"event","name":"Upgraded","inputs":[{"name":"implementation","type":"address","indexed":true,"internalType":"address"}],"anonymous":false},{"type":"error","name":"AccessControlBadConfirmation","inputs":[]},{"type":"error","name":"AccessControlUnauthorizedAccount","inputs":[{"name":"account","type":"address","internalType":"address"},{"name":"neededRole","type":"bytes32","internalType":"bytes32"}]},{"type":"error","name":"AddressEmptyCode","inputs":[{"name":"target","type":"address","internalType":"address"}]},{"type":"error","name":"ERC1967InvalidImplementation","inputs":[{"name":"implementation","type":"address","internalType":"address"}]},{"type":"error","name":"ERC1967NonPayable","inputs":[]},{"type":"error","name":"EnforcedPause","inputs":[]},{"type":"error","name":"ExpectedPause","inputs":[]},{"type":"error","name":"FailedCall","inputs":[]},{"type":"error","name":"InvalidInitialization","inputs":[]},{"type":"error","name":"InvalidValue","inputs":[]},{"type":"error","name":"NotInitializing","inputs":[]},{"type":"error","name":"ReentrancyGuardReentrantCall","inputs":[]},{"type":"error","name":"SignatureExpired","inputs":[{"name":"deadline","type":"uint256","internalType":"uint256"}]},{"type":"error","name":"TransferFailed","inputs":[]},{"type":"error","name":"UUPSUnauthorizedCallContext","inputs":[]},{"type":"error","name":"UUPSUnsupportedProxiableUUID","inputs":[{"name":"slot","type":"bytes32","internalType":"bytes32"}]},{"type":"error","name":"Unauthorized","inputs":[]},{"type":"error","name":"ZeroAddress","inputs":[]}],"bytecode":{"object":"0x60a080604052346100cc57306080527ff0c57e16840df040f15088dc2f81fe391c3923bec73e23a9662efc9c229c6a009081549060ff8260401c166100bd57506001600160401b036002600160401b031982821601610078575b60405161200b90816100d18239608051818181610bce0152610c710152f35b6001600160401b031990911681179091556040519081527fc7f505b2f371ae2175ee4913f4499e1f2633a7b5936321eed1cdaeb6115181d290602090a15f8080610059565b63f92ee8a960e01b8152600490fd5b5f80fdfe6080604081815260049182361015610031575b50361561002557516282b42960e81b8152fd5b516282b42960e81b8152fd5b5f905f3560e01c90816301ffc9a71461174f57508063061e343a146115475780630723499e14611520578063107a274a14611420578063150b7a02146113cd578063248a9ca3146113965780632829e9bb146110ff5780632f2ff15d146110d5578063305a67a814610ef257806336568abe14610eac5780633f4ba83a14610e355780634f1ef28614610c3257806352d1902d14610bba5780635c975abb14610b8a57806383f51d981461097c5780638456cb591461091557806391d14854146108c55780639253b0f21461089c578063a217fddf14610881578063ad3cb1cc146107e3578063ba0e877f146105d4578063bc197c811461054f578063c91d3ccc14610526578063d1e71a2814610482578063d547741f14610436578063ec87621c146103f7578063f23a6e61146103a05763f8c8765e0361001257913461039c57608036600319011261039c576101876117d1565b61018f6117e7565b916101986117fd565b926064356001600160a01b038181169291839003610398577ff0c57e16840df040f15088dc2f81fe391c3923bec73e23a9662efc9c229c6a009586549560ff878a1c1615956001600160401b03881697881580610391575b6001809a149081610387575b15908161037e575b5061036f5767ffffffffffffffff19811689178a5587610350575b50838216158015610346575b801561033c575b8015610334575b61032657506102b79061024a611ed1565b610252611ed1565b61025a611ed1565b5f80516020611f96833981519152805460ff19169055610278611ed1565b610280611ed1565b875f80516020611fb683398151915255610298611ed1565b6102a0611ed1565b6102a8611ed1565b6102b181611c78565b50611d0f565b50816001600160601b0360a01b9316838a5416178955168185541617845560025416176002556102e5578380f35b7fc7f505b2f371ae2175ee4913f4499e1f2633a7b5936321eed1cdaeb6115181d29260209268ff000000000000000019815416905551908152a15f80808380f35b895163d92e233d60e01b8152fd5b508515610239565b5083831615610232565b508385161561022b565b68ffffffffffffffffff1916680100000000000000011789555f61021f565b50895163f92ee8a960e01b8152fd5b9050155f610204565b303b1591506101fc565b50876101f0565b5f80fd5b8280fd5b50346103f45760a03660031901126103f4576103ba6117d1565b506103c36117e7565b50608435906001600160401b0382116103f457506020926103e691369101611891565b505163f23a6e6160e01b8152f35b80fd5b509034610432578160031936011261043257602090517f241ecf16d79d0f8dbfb92cbc07fe17840425976cf0667f022fe9877caa831b088152f35b5080fd5b5091903461039c578060031936011261039c5761047e9135610479600161045b6117e7565b938387525f80516020611f7683398151915260205286200154611c2c565b611e52565b5080f35b50913461039c57606036600319011261039c5761049d6117d1565b906104a66117e7565b6104ae6117fd565b916104b7611bd6565b6001600160a01b03938416948515801561051c575b8015610512575b61050557505082906001600160601b0360a01b9485875416178655168360015416176001551690600254161760025580f35b5163d92e233d60e01b8152fd5b50848416156104d3565b50848316156104cc565b50903461043257816003193601126104325760015490516001600160a01b039091168152602090f35b50346103f45760a03660031901126103f4576105696117d1565b506105726117e7565b506001600160401b03906044358281116104325761059390369086016118d7565b50606435828111610432576105ab90369086016118d7565b506084359182116103f457506020926105c691369101611891565b505163bc197c8160e01b8152f35b50919060209182600319360112610768578035916105f06119bf565b6105f86119e9565b8285528184528085209160ff818401541680156107d1575b6107c45760038301548060c01c801515806107bb575b6107a557506001600160801b03169060018060a01b0391876002848754169601548389868454168851968780926361d027b360e01b82525afa94851561079b57839561076c575b506106818461067b81611b41565b99611a47565b888352808a526106aa87842060045f918281558260018201558260028201558260038201550155565b856002541691823b15610768578751632142170760e11b815230928101928352336020840152604083019190915291839183919082908490829060600103925af1801561075e57610746575b505083519660018852870152169084015260608301527fef665094c7a4ec71d1d41695c378f89c832383162380c2636e041b924100f48460803393a360015f80516020611fb68339815191525580f35b61074f90611813565b61075a57875f6106f6565b8780fd5b86513d84823e3d90fd5b8380fd5b61078d9195508a3d8c11610794575b6107858183611855565b81019061193d565b935f61066d565b503d61077b565b87513d85823e3d90fd5b9050602492519163cd21db4f60e01b8352820152fd5b50804211610626565b90516282b42960e81b8152fd5b5082546001600160a01b031615610610565b50913461039c578260031936011261039c57815190828201908282106001600160401b0383111761086e5750825260058152602090640352e302e360dc1b6020820152825193849260208452825192836020860152825b84811061085857505050828201840152601f01601f19168101030190f35b818101830151888201880152879550820161083a565b604190634e487b7160e01b5f525260245ffd5b50903461043257816003193601126104325751908152602090f35b50903461043257816003193601126104325760025490516001600160a01b039091168152602090f35b50913461039c578160031936011261039c57816020936108e36117e7565b923581525f80516020611f768339815191528552209060018060a01b03165f52825260ff815f20541690519015158152f35b50903461043257816003193601126104325760207f62e78cea01bee320cd4e420270b5ea74000d11b0c9f74754ebdbfc544b05a25891610953611bd6565b61095b6119bf565b5f80516020611f96833981519152805460ff1916600117905551338152a180f35b5091903461039c57608036600319011261039c5781359261099b6117bb565b92604435946001600160801b03861680960361039857606435956001600160401b039081881691828903610398576109d16119bf565b6109d96119e9565b871680158015610b82575b610b72576001805490966001600160a01b03918216803b1561043257818b610a279289838c8f5196879586948593637921219560e11b8552309033908601611983565b03925af18015610b6857610b54575b505086541694600354995f198b14610b415799870160038181555f8281526020848152908b902080546001600160a01b031990811633178255818c0180549091168b17905560028101899055918201805467ffffffffffffffff60801b1988166001600160c01b03199091161760809d909d1b67ffffffffffffffff60801b169c909c178c559b919a909181546001600160c01b031660c09190911b6001600160c01b03191617905501805460ff191687179055865193845288840152828601525f60608301526080820152339085907ff087d6c8277cf861469d3a9dc96e77af2ee63cf68e6482f1ad35b8470bd76d9f9060a090a45f80516020611fb68339815191525551908152f35b601182634e487b7160e01b5f525260245ffd5b610b5e8291611813565b6103f45780610a36565b8a513d84823e3d90fd5b8651632a9ffab760e21b81528590fd5b5081156109e4565b50903461043257816003193601126104325760209060ff5f80516020611f96833981519152541690519015158152f35b50346103f457806003193601126103f457507f00000000000000000000000000000000000000000000000000000000000000006001600160a01b03163003610c2557602090517f360894a13ba1a3210667c828492db98dca3e2076cc3735a920a3ca505d382bbc8152f35b5163703e46dd60e11b8152fd5b5091908060031936011261039c57610c486117d1565b906024356001600160401b038111610e3157610c679036908501611891565b6001600160a01b037f00000000000000000000000000000000000000000000000000000000000000008116308114908115610e03575b50610df357610caa611bd6565b83169282516352d1902d60e01b81526020818781885afa879181610dbf575b50610ce5578351634c9c8ce360e01b8152808701869052602490fd5b84879487927f360894a13ba1a3210667c828492db98dca3e2076cc3735a920a3ca505d382bbc90818103610da95750843b15610d935780546001600160a01b03191683179055518592917fbc7cd75a20ee27fd9adebab32041f755214dbc6bffa90cc0225b39da2e5c2d3b8480a2845115610d785750508083602061047e95519101845af4610d72611a18565b91611f12565b925092505034610d8757505080f35b63b398979f60e01b8152fd5b5051634c9c8ce360e01b81529182015260249150fd5b84602491845191632a87526960e21b8352820152fd5b9091506020813d602011610deb575b81610ddb60209383611855565b8101031261075a5751905f610cc9565b3d9150610dce565b825163703e46dd60e11b81528590fd5b9050817f360894a13ba1a3210667c828492db98dca3e2076cc3735a920a3ca505d382bbc541614155f610c9d565b8480fd5b50913461039c578260031936011261039c57610e4f611bd6565b5f80516020611f968339815191529081549060ff821615610e9e575060ff19169055513381527f5db9ee0a495bf2e6ff9c91a7834c1ba4fdd244a5e8aa4e537bd38aeae4b073aa90602090a180f35b8351638dfc202b60e01b8152fd5b509034610432578060031936011261043257610ec66117e7565b90336001600160a01b03831603610ee3575061047e919235611e52565b5163334bd91960e11b81528390fd5b5091903461039c57602036600319011261039c57813590610f116119e9565b818452826020528084209060018060a01b03938483541694851561109c5733861415806110aa575b61109c57908392916002889501549060ff836001600160401b03600388015460801c169601541687875283602052610f8a85882060045f918281558260018201558260028201558260038201550155565b1561102a5760015416803b156110265787868094610fbd875198899687958694637921219560e11b865230908601611983565b03925af190811561101d5750611009575b50505b7ff56d1f8eee195b7ac6920b505ec684d14403d0817ad3af79141ce5e13fb973f58380a360015f80516020611fb68339815191525580f35b61101290611813565b61039c57825f610fce565b513d84823e3d90fd5b8580fd5b600254169350833b15610e31578251632142170760e11b8152309281019283526001600160a01b0388166020840152604083019190915292849184919082908490829060600103925af190811561101d5750611088575b5050610fd1565b61109190611813565b61039c57825f611081565b5090516282b42960e81b8152fd5b508680525f80516020611f76833981519152602052828720335f5260205260ff835f20541615610f39565b5091903461039c578060031936011261039c5761047e91356110fa600161045b6117e7565b611dcf565b50919080600319360112610398578135916111186117bb565b6111206119bf565b6111286119e9565b6001600160401b0380821691821561138657855f52602092848452855f2060ff8682015416158015611374575b61136557600381019283548060c01c8015158061135c575b6113465750858160801c16841161133657836001600160801b03611191921661195c565b9160018060a01b03916111a78484845416611a47565b8487875460801c160387811161132357865467ffffffffffffffff60801b191660809190911b67ffffffffffffffff60801b161786556002836001541692015490823b1561039857611215925f92838c8e5196879586948593637921219560e11b8552339030908601611983565b03925af1801561131957611306575b508686828c54168a51928380926361d027b360e01b82525afa9081156112fc578b916112df575b5061125583611b41565b9289519485528785015216878301526060820152867fef665094c7a4ec71d1d41695c378f89c832383162380c2636e041b924100f48460803393a35460801c16156112b0575b8460015f80516020611fb68339815191525580f35b6112d693855252822060045f918281558260018201558260028201558260038201550155565b5f80808061129b565b6112f69150873d8911610794576107858183611855565b5f61124b565b89513d8d823e3d90fd5b611311919a50611813565b5f985f611224565b89513d5f823e3d90fd5b60118a634e487b7160e01b5f525260245ffd5b8851632a9ffab760e21b81528890fd5b886024918b519163cd21db4f60e01b8352820152fd5b5080421161116d565b86516282b42960e81b81528690fd5b5080546001600160a01b031615611155565b8451632a9ffab760e21b81528490fd5b50503461039857602036600319011261039857602091355f525f80516020611f7683398151915282526001815f2001549051908152f35b505034610398576080366003190112610398576113e86117d1565b506113f16117e7565b506064356001600160401b0381116103985760209261141291369101611891565b5051630a85bd0160e11b8152f35b82843461039857602036600319011261039857815f60c060e094516114448161183a565b82815282602082015282848201528260608201528260808201528260a0820152015281355f528160205260a0815f2092825180936114818261183a565b600180851b039283875416968784528460018201541692602085019384526002820154818601908152600383015496879560c060ff6001600160801b039760608b0197898b1689526001600160401b039d8c8f6080819f019d60801c168d52019c841c8d520154169b019a15158b5283519b8c52511660208b015251908901525116606087015251166080850152511660a083015251151560c0820152f35b8234610398575f366003190112610398575f5490516001600160a01b039091168152602090f35b50503461039857606036600319011261039857813590602435926001600160801b03841680940361039857604435926001600160401b0384168085036103985761158f6119bf565b6115976119e9565b851561173f5760025484516331a9108f60e11b8152848101849052602097916001600160a01b0391908216908981602481855afa908115611735575f91611718575b50823391160361136557803b15610398578651632142170760e11b8152338782019081523060208201526040810187905290915f9183919082908490829060600103925af1801561170e576116ff575b5060025416936003545f198114610b41576001019687600355875f52818952865f20906001600160601b0360a01b338184541617835587600184019182541617905585600283015560038201906001600160401b0360c01b600160801b868285541617179160c01b169060018060c01b03161790550160ff1981541690558451928352600187840152848301525f60608301526080820152837ff087d6c8277cf861469d3a9dc96e77af2ee63cf68e6482f1ad35b8470bd76d9f60a03393a460015f80516020611fb68339815191525551908152f35b61170890611813565b5f611629565b87513d5f823e3d90fd5b61172f91508a3d8c11610794576107858183611855565b5f6115d9565b88513d5f823e3d90fd5b8351632a9ffab760e21b81528390fd5b843461039857602036600319011261039857359063ffffffff60e01b821680920361039857602091630271189760e51b8114908115611790575b5015158152f35b637965db0b60e01b8114915081156117aa575b5083611789565b6301ffc9a760e01b149050836117a3565b602435906001600160401b038216820361039857565b600435906001600160a01b038216820361039857565b602435906001600160a01b038216820361039857565b604435906001600160a01b038216820361039857565b6001600160401b03811161182657604052565b634e487b7160e01b5f52604160045260245ffd5b60e081019081106001600160401b0382111761182657604052565b90601f801991011681019081106001600160401b0382111761182657604052565b6001600160401b03811161182657601f01601f191660200190565b81601f82011215610398578035906118a882611876565b926118b66040519485611855565b8284526020838301011161039857815f926020809301838601378301015290565b81601f82011215610398578035916020916001600160401b038411611826578360051b906040519461190b85840187611855565b85528380860192820101928311610398578301905b82821061192e575050505090565b81358152908301908301611920565b9081602091031261039857516001600160a01b03811681036103985790565b8181029291811591840414171561196f57565b634e487b7160e01b5f52601160045260245ffd5b9260c094916001600160401b039360018060a01b038092168652166020850152604084015216606082015260a060808201525f60a08201520190565b60ff5f80516020611f9683398151915254166119d757565b60405163d93c066560e01b8152600490fd5b5f80516020611fb68339815191526002815414611a065760029055565b604051633ee5aeb560e01b8152600490fd5b3d15611a42573d90611a2982611876565b91611a376040519384611855565b82523d5f602084013e565b606090565b90803403611b2f575f546040516361d027b360e01b81526001600160a01b03916020908290600490829086165afa8015611b245782915f91611b05575b50168015611af357611a9583611b41565b9081840393841161196f5781611ad6575b50505f8093928193928293165af1611abc611a18565b5015611ac457565b6040516312171d8360e31b8152600490fd5b5f80809381935af1611ae6611a18565b5015611ac4575f80611aa6565b60405163d92e233d60e01b8152600490fd5b611b1e915060203d602011610794576107858183611855565b5f611a84565b6040513d5f823e3d90fd5b604051632a9ffab760e21b8152600490fd5b5f54604051633f5c3e8760e01b815290602090829060049082906001600160a01b03165afa8015611b24575f90611b97575b61ffff915016908115611b915761271091611b8d9161195c565b0490565b50505f90565b506020813d602011611bce575b81611bb160209383611855565b81010312610398575161ffff811681036103985761ffff90611b73565b3d9150611ba4565b335f9081527fb7db2dd08fcb62d0c9e08c51941cae53c267786a0b75803fb7960902fc8ef97d602052604090205460ff1615611c0e57565b60405163e2517d3f60e01b81523360048201525f6024820152604490fd5b805f525f80516020611f7683398151915260205260405f20335f5260205260ff60405f20541615611c5a5750565b6044906040519063e2517d3f60e01b82523360048301526024820152fd5b6001600160a01b03165f8181527fb7db2dd08fcb62d0c9e08c51941cae53c267786a0b75803fb7960902fc8ef97d60205260409020545f80516020611f768339815191529060ff16611b91575f805260205260405f20815f5260205260405f20600160ff1982541617905533905f7f2f8788117e7eff1d82e926ec794901d17c78024a50270940304540a733656f0d8180a4600190565b6001600160a01b03165f8181527f06484cc59dc38e4f67c31122333a17ca81b3ca18cdf02bfc298072fa52b0316a60205260409020547f241ecf16d79d0f8dbfb92cbc07fe17840425976cf0667f022fe9877caa831b0891905f80516020611f768339815191529060ff16611dc857825f5260205260405f20815f5260205260405f20600160ff1982541617905533917f2f8788117e7eff1d82e926ec794901d17c78024a50270940304540a733656f0d5f80a4600190565b5050505f90565b90815f525f80516020611f768339815191528060205260405f209160018060a01b031691825f5260205260ff60405f205416155f14611dc857825f5260205260405f20815f5260205260405f20600160ff1982541617905533917f2f8788117e7eff1d82e926ec794901d17c78024a50270940304540a733656f0d5f80a4600190565b90815f525f80516020611f768339815191528060205260405f209160018060a01b031691825f5260205260ff60405f2054165f14611dc857825f5260205260405f20815f5260205260405f2060ff19815416905533917ff6391f5c32d9c69d2a47ea670b442974b53935d1edc7fd64eb21e047a839171b5f80a4600190565b60ff7ff0c57e16840df040f15088dc2f81fe391c3923bec73e23a9662efc9c229c6a005460401c1615611f0057565b604051631afcd79f60e31b8152600490fd5b90611f395750805115611f2757805190602001fd5b60405163d6bda27560e01b8152600490fd5b81511580611f6c575b611f4a575090565b604051639996b31560e01b81526001600160a01b039091166004820152602490fd5b50803b15611f4256fe02dd7bc7dec4dceedda775e58dd541e08a116c6c53815c0bd028192f7b626800cd5ed15c6e187e77e9aee88184c21f4f2182ab5827cb3b7e07fbedcd63f033009b779b17422d0df92223018b32b4d1fa46e071723d6817e2486d003becc55f00a2646970667358221220b402edd1f1d7e547756d133f0d75efb8dc4e9bf66fa056ce9f60d08218f3f6c864736f6c63430008180033","linkReferences":{}},"methodIdentifiers":{"DEFAULT_ADMIN_ROLE()":"a217fddf","MANAGER_ROLE()":"ec87621c","UPGRADE_INTERFACE_VERSION()":"ad3cb1cc","buy1155(uint256,uint64)":"2829e9bb","buy721(uint256)":"ba0e877f","cancelListing(uint256)":"305a67a8","getListing(uint256)":"107a274a","getRoleAdmin(bytes32)":"248a9ca3","grantRole(bytes32,address)":"2f2ff15d","hasRole(bytes32,address)":"91d14854","initialize(address,address,address,address)":"f8c8765e","item1155()":"c91d3ccc","land721()":"9253b0f2","list1155(uint256,uint64,uint128,uint64)":"83f51d98","list721(uint256,uint128,uint64)":"061e343a","onERC1155BatchReceived(address,address,uint256[],uint256[],bytes)":"bc197c81","onERC1155Received(address,address,uint256,uint256,bytes)":"f23a6e61","onERC721Received(address,address,uint256,bytes)":"150b7a02","parameterRegistry()":"0723499e","pause()":"8456cb59","paused()":"5c975abb","proxiableUUID()":"52d1902d","renounceRole(bytes32,address)":"36568abe","revokeRole(bytes32,address)":"d547741f","supportsInterface(bytes4)":"01ffc9a7","unpause()":"3f4ba83a","updateDependencies(address,address,address)":"d1e71a28","upgradeToAndCall(address,bytes)":"4f1ef286"},"id":3}