{"abi":[{"type":"constructor","inputs":[],"stateMutability":"nonpayable"},{"type":"function","name":"DEFAULT_ADMIN_ROLE","inputs":[],"outputs":[{"name":"","type":"bytes32","internalType":"bytes32"}],"stateMutability":"view"},{"type":"function","name":"MANAGER_ROLE","inputs":[],"outputs":[{"name":"","type":"bytes32","internalType":"bytes32"}],"stateMutability":"view"},{"type":"function","name":"MAX_SEEDS_PER_PLOT","inputs":[],"outputs":[{"name":"","type":"uint8","internalType":"uint8"}],"stateMutability":"view"},{"type":"function","name":"UPGRADE_INTERFACE_VERSION","inputs":[],"outputs":[{"name":"","type":"string","internalType":"string"}],"stateMutability":"view"},{"type":"function","name":"activeTool","inputs":[{"name":"account","type":"address","internalType":"address"}],"outputs":[{"name":"","type":"uint256","internalType":"uint256"}],"stateMutability":"view"},{"type":"function","name":"clearPlot","inputs":[{"name":"landId","type":"uint256","internalType":"uint256"}],"outputs":[],"stateMutability":"nonpayable"},{"type":"function","name":"dig","inputs":[{"name":"landId","type":"uint256","internalType":"uint256"}],"outputs":[],"stateMutability":"nonpayable"},{"type":"function","name":"gameId","inputs":[],"outputs":[{"name":"","type":"uint256","internalType":"uint256"}],"stateMutability":"view"},{"type":"function","name":"getPlot","inputs":[{"name":"landId","type":"uint256","internalType":"uint256"}],"outputs":[{"name":"","type":"tuple","internalType":"struct FarmingCore.PlotInfo","components":[{"name":"owner","type":"address","internalType":"address"},{"name":"seedCount","type":"uint8","internalType":"uint8"},{"name":"toolRarity","type":"uint8","internalType":"uint8"},{"name":"seedTypes","type":"uint32[5]","internalType":"uint32[5]"},{"name":"plantedAt","type":"uint64","internalType":"uint64"},{"name":"readyAt","type":"uint64","internalType":"uint64"},{"name":"harvested","type":"bool","internalType":"bool"},{"name":"dug","type":"bool","internalType":"bool"}]}],"stateMutability":"view"},{"type":"function","name":"getRoleAdmin","inputs":[{"name":"role","type":"bytes32","internalType":"bytes32"}],"outputs":[{"name":"","type":"bytes32","internalType":"bytes32"}],"stateMutability":"view"},{"type":"function","name":"grantRole","inputs":[{"name":"role","type":"bytes32","internalType":"bytes32"},{"name":"account","type":"address","internalType":"address"}],"outputs":[],"stateMutability":"nonpayable"},{"type":"function","name":"harvestAndClaimXP","inputs":[{"name":"landIds","type":"uint256[]","internalType":"uint256[]"},{"name":"expAmount","type":"uint256","internalType":"uint256"},{"name":"deadline","type":"uint256","internalType":"uint256"},{"name":"signature","type":"bytes","internalType":"bytes"}],"outputs":[],"stateMutability":"nonpayable"},{"type":"function","name":"hasRole","inputs":[{"name":"role","type":"bytes32","internalType":"bytes32"},{"name":"account","type":"address","internalType":"address"}],"outputs":[{"name":"","type":"bool","internalType":"bool"}],"stateMutability":"view"},{"type":"function","name":"initialize","inputs":[{"name":"admin","type":"address","internalType":"address"},{"name":"parameterRegistry_","type":"address","internalType":"address"},{"name":"item1155_","type":"address","internalType":"address"},{"name":"land721_","type":"address","internalType":"address"},{"name":"xpRegistry_","type":"address","internalType":"address"},{"name":"gameId_","type":"uint256","internalType":"uint256"}],"outputs":[],"stateMutability":"nonpayable"},{"type":"function","name":"item1155","inputs":[],"outputs":[{"name":"","type":"address","internalType":"contract Item1155"}],"stateMutability":"view"},{"type":"function","name":"land721","inputs":[],"outputs":[{"name":"","type":"address","internalType":"contract Land721"}],"stateMutability":"view"},{"type":"function","name":"maxPlotsPerHarvest","inputs":[],"outputs":[{"name":"","type":"uint256","internalType":"uint256"}],"stateMutability":"view"},{"type":"function","name":"parameterRegistry","inputs":[],"outputs":[{"name":"","type":"address","internalType":"contract ParameterRegistry"}],"stateMutability":"view"},{"type":"function","name":"pause","inputs":[],"outputs":[],"stateMutability":"nonpayable"},{"type":"function","name":"paused","inputs":[],"outputs":[{"name":"","type":"bool","internalType":"bool"}],"stateMutability":"view"},{"type":"function","name":"plant","inputs":[{"name":"landId","type":"uint256","internalType":"uint256"},{"name":"seedTypes","type":"uint32[]","internalType":"uint32[]"}],"outputs":[],"stateMutability":"nonpayable"},{"type":"function","name":"proxiableUUID","inputs":[],"outputs":[{"name":"","type":"bytes32","internalType":"bytes32"}],"stateMutability":"view"},{"type":"function","name":"renounceRole","inputs":[{"name":"role","type":"bytes32","internalType":"bytes32"},{"name":"callerConfirmation","type":"address","internalType":"address"}],"outputs":[],"stateMutability":"nonpayable"},{"type":"function","name":"revokeRole","inputs":[{"name":"role","type":"bytes32","internalType":"bytes32"},{"name":"account","type":"address","internalType":"address"}],"outputs":[],"stateMutability":"nonpayable"},{"type":"function","name":"setActiveTool","inputs":[{"name":"toolTokenId","type":"uint256","internalType":"uint256"}],"outputs":[],"stateMutability":"nonpayable"},{"type":"function","name":"supportsInterface","inputs":[{"name":"interfaceId","type":"bytes4","internalType":"bytes4"}],"outputs":[{"name":"","type":"bool","internalType":"bool"}],"stateMutability":"view"},{"type":"function","name":"syncMaxPlotsPerHarvest","inputs":[],"outputs":[],"stateMutability":"nonpayable"},{"type":"function","name":"unpause","inputs":[],"outputs":[],"stateMutability":"nonpayable"},{"type":"function","name":"updateDependencies","inputs":[{"name":"newParameterRegistry","type":"address","internalType":"address"},{"name":"newItem1155","type":"address","internalType":"address"},{"name":"newLand721","type":"address","internalType":"address"},{"name":"newXpRegistry","type":"address","internalType":"address"}],"outputs":[],"stateMutability":"nonpayable"},{"type":"function","name":"upgradeToAndCall","inputs":[{"name":"newImplementation","type":"address","internalType":"address"},{"name":"data","type":"bytes","internalType":"bytes"}],"outputs":[],"stateMutability":"payable"},{"type":"function","name":"water","inputs":[{"name":"landId","type":"uint256","internalType":"uint256"}],"outputs":[],"stateMutability":"nonpayable"},{"type":"function","name":"xpRegistry","inputs":[],"outputs":[{"name":"","type":"address","internalType":"contract IXPRegistry"}],"stateMutability":"view"},{"type":"event","name":"ActiveToolSet","inputs":[{"name":"account","type":"address","indexed":true,"internalType":"address"},{"name":"toolTokenId","type":"uint256","indexed":true,"internalType":"uint256"}],"anonymous":false},{"type":"event","name":"Initialized","inputs":[{"name":"version","type":"uint64","indexed":false,"internalType":"uint64"}],"anonymous":false},{"type":"event","name":"Paused","inputs":[{"name":"account","type":"address","indexed":false,"internalType":"address"}],"anonymous":false},{"type":"event","name":"PlotCleared","inputs":[{"name":"farmer","type":"address","indexed":true,"internalType":"address"},{"name":"landId","type":"uint256","indexed":true,"internalType":"uint256"}],"anonymous":false},{"type":"event","name":"PlotDug","inputs":[{"name":"farmer","type":"address","indexed":true,"internalType":"address"},{"name":"landId","type":"uint256","indexed":true,"internalType":"uint256"},{"name":"toolRarity","type":"uint8","indexed":false,"internalType":"uint8"}],"anonymous":false},{"type":"event","name":"PlotHarvested","inputs":[{"name":"farmer","type":"address","indexed":true,"internalType":"address"},{"name":"landId","type":"uint256","indexed":true,"internalType":"uint256"},{"name":"expAmount","type":"uint256","indexed":false,"internalType":"uint256"},{"name":"seedTypes","type":"uint32[]","indexed":false,"internalType":"uint32[]"}],"anonymous":false},{"type":"event","name":"PlotPlanted","inputs":[{"name":"farmer","type":"address","indexed":true,"internalType":"address"},{"name":"landId","type":"uint256","indexed":true,"internalType":"uint256"},{"name":"seedTypes","type":"uint32[]","indexed":false,"internalType":"uint32[]"},{"name":"readyAt","type":"uint64","indexed":false,"internalType":"uint64"}],"anonymous":false},{"type":"event","name":"PlotWatered","inputs":[{"name":"farmer","type":"address","indexed":true,"internalType":"address"},{"name":"landId","type":"uint256","indexed":true,"internalType":"uint256"},{"name":"newReadyAt","type":"uint64","indexed":false,"internalType":"uint64"}],"anonymous":false},{"type":"event","name":"RoleAdminChanged","inputs":[{"name":"role","type":"bytes32","indexed":true,"internalType":"bytes32"},{"name":"previousAdminRole","type":"bytes32","indexed":true,"internalType":"bytes32"},{"name":"newAdminRole","type":"bytes32","indexed":true,"internalType":"bytes32"}],"anonymous":false},{"type":"event","name":"RoleGranted","inputs":[{"name":"role","type":"bytes32","indexed":true,"internalType":"bytes32"},{"name":"account","type":"address","indexed":true,"internalType":"address"},{"name":"sender","type":"address","indexed":true,"internalType":"address"}],"anonymous":false},{"type":"event","name":"RoleRevoked","inputs":[{"name":"role","type":"bytes32","indexed":true,"internalType":"bytes32"},{"name":"account","type":"address","indexed":true,"internalType":"address"},{"name":"sender","type":"address","indexed":true,"internalType":"address"}],"anonymous":false},{"type":"event","name":"Unpaused","inputs":[{"name":"account","type":"address","indexed":false,"internalType":"address"}],"anonymous":false},{"type":"event","name":"Upgraded","inputs":[{"name":"implementation","type":"address","indexed":true,"internalType":"address"}],"anonymous":false},{"type":"event","name":"XpClaimed","inputs":[{"name":"user","type":"address","indexed":true,"internalType":"address"},{"name":"gameId","type":"uint256","indexed":true,"internalType":"uint256"},{"name":"amount","type":"uint256","indexed":false,"internalType":"uint256"},{"name":"nonce","type":"uint256","indexed":false,"internalType":"uint256"}],"anonymous":false},{"type":"error","name":"AccessControlBadConfirmation","inputs":[]},{"type":"error","name":"AccessControlUnauthorizedAccount","inputs":[{"name":"account","type":"address","internalType":"address"},{"name":"neededRole","type":"bytes32","internalType":"bytes32"}]},{"type":"error","name":"AddressEmptyCode","inputs":[{"name":"target","type":"address","internalType":"address"}]},{"type":"error","name":"ERC1967InvalidImplementation","inputs":[{"name":"implementation","type":"address","internalType":"address"}]},{"type":"error","name":"ERC1967NonPayable","inputs":[]},{"type":"error","name":"EnforcedPause","inputs":[]},{"type":"error","name":"ExpectedPause","inputs":[]},{"type":"error","name":"FailedCall","inputs":[]},{"type":"error","name":"HarvestLimitExceeded","inputs":[{"name":"attempted","type":"uint256","internalType":"uint256"},{"name":"maxAllowed","type":"uint256","internalType":"uint256"}]},{"type":"error","name":"InvalidInitialization","inputs":[]},{"type":"error","name":"InvalidValue","inputs":[]},{"type":"error","name":"NotInitializing","inputs":[]},{"type":"error","name":"NotLandOwner","inputs":[{"name":"landId","type":"uint256","internalType":"uint256"},{"name":"expectedOwner","type":"address","internalType":"address"},{"name":"actualOwner","type":"address","internalType":"address"}]},{"type":"error","name":"PlotAlreadyDug","inputs":[{"name":"landId","type":"uint256","internalType":"uint256"}]},{"type":"error","name":"PlotAlreadyHarvested","inputs":[{"name":"landId","type":"uint256","internalType":"uint256"}]},{"type":"error","name":"PlotEmpty","inputs":[{"name":"landId","type":"uint256","internalType":"uint256"}]},{"type":"error","name":"PlotNotDug","inputs":[{"name":"landId","type":"uint256","internalType":"uint256"}]},{"type":"error","name":"PlotNotEmpty","inputs":[{"name":"landId","type":"uint256","internalType":"uint256"}]},{"type":"error","name":"PlotNotFound","inputs":[{"name":"landId","type":"uint256","internalType":"uint256"}]},{"type":"error","name":"PlotNotReady","inputs":[{"name":"landId","type":"uint256","internalType":"uint256"},{"name":"readyAt","type":"uint256","internalType":"uint256"}]},{"type":"error","name":"PlotOccupied","inputs":[{"name":"landId","type":"uint256","internalType":"uint256"}]},{"type":"error","name":"ReentrancyGuardReentrantCall","inputs":[]},{"type":"error","name":"SignatureExpired","inputs":[{"name":"deadline","type":"uint256","internalType":"uint256"}]},{"type":"error","name":"UUPSUnauthorizedCallContext","inputs":[]},{"type":"error","name":"UUPSUnsupportedProxiableUUID","inputs":[{"name":"slot","type":"bytes32","internalType":"bytes32"}]},{"type":"error","name":"Unauthorized","inputs":[]},{"type":"error","name":"ZeroAddress","inputs":[]}],"bytecode":{"object":"0x60a080604052346100cc57306080527ff0c57e16840df040f15088dc2f81fe391c3923bec73e23a9662efc9c229c6a009081549060ff8260401c166100bd57506001600160401b036002600160401b031982821601610078575b6040516128c190816100d1823960805181818161142a015261150e0152f35b6001600160401b031990911681179091556040519081527fc7f505b2f371ae2175ee4913f4499e1f2633a7b5936321eed1cdaeb6115181d290602090a15f8080610059565b63f92ee8a960e01b8152600490fd5b5f80fdfe60a0806040526004361015610012575f80fd5b5f3560e01c90816301ffc9a714611ebf57508063059b551514611e875780630723499e14611e60578063248a9ca314611e275780632f2ff15d14611dde57806336568abe14611d9757806336dc2fa8146119df5780633f4ba83a1461196a578063405170831461171c5780634f1ef2861461149457806352d1902d146114185780635c975abb146113ea5780636457ad83146113c25780637c68cad314610d725780638456cb5914610d0d5780638d00186314610bf957806391d1485414610ba45780639253b0f214610b7c57806395b6ef0c146108d9578063a217fddf146108bf578063a7eec44b146106d2578063ad3cb1cc1461062d578063c216665814610612578063c87597c61461057c578063c91d3ccc14610554578063cfdd4fbd146103ae578063d2464c001461030b578063d547741f146102c2578063d7c81b55146102a5578063ec87621c1461026b578063ef7cc23f146102455763f9eb03e51461017c575f80fd5b3461024157602036600319011261024157600435610198612504565b805f52600660205260405f206101af338383612737565b60ff815460a01c1615158061022f575b61021657806101cf6002926126fa565b805460ff60a81b191681550180546001600160901b031916600160801b179055337f2a43dff95543f2cdeaec815226e39e381c7642709d8ac60ef64c5db411fe89c75f80a3005b6040516302e016a960e11b815260048101839052602490fd5b5060ff600282015460801c16156101bf565b5f80fd5b346102415760203660031901126102415761025e612504565b6102696004356120e5565b005b34610241575f3660031901126102415760206040517f241ecf16d79d0f8dbfb92cbc07fe17840425976cf0667f022fe9877caa831b088152f35b34610241575f366003190112610241576020600454604051908152f35b34610241576040366003190112610241576102696004356102e1611f28565b90805f525f8051602061282c833981519152602052610306600160405f200154612277565b612485565b34610241575f3660031901126102415761ffff80600554169081155f146103a5575f546040516234919360ea1b81529250602090839060049082906001600160a01b03165afa801561039a576020925f9161036d575b50905b60405191168152f35b61038d9150833d8511610393575b6103858183611fe4565b8101906120a5565b83610361565b503d61037b565b6040513d5f823e3d90fd5b60209190610364565b3461024157602080600319360112610241575f60e06040516103cf81611fad565b82815282848201528260408201526040516103e981611fc9565b60a036823760608201528260808201528260a08201528260c082015201526004355f526006815260405f20906040519061042282611fad565b8254928260018060a01b03808616825260ff9284830194848860a01c16865284604085019860a81c168852600197856040519181600260018701549663ffffffff8881809a16885281818a1c1689890152818160401c166040890152818160601c16606089015260801c16608087015261049b86611fc9565b60608a019586520154998a978260e06001600160401b039b608081016080528c8c166080515260a081019b8d8160401c168d5260c082019e8f9160801c1615159052019c60881c1615158c526040519c51168c525116848b0152511660408901525160608801905f915b6005831061053f57505050505061018095508160805151166101008601525116610120840152511515610140830152511515610160820152f35b815185168152918a0191908301908301610505565b34610241575f366003190112610241576001546040516001600160a01b039091168152602090f35b34610241575f366003190112610241576105946121fe565b5f546040516234919360ea1b815290602090829060049082906001600160a01b03165afa801561039a5761ffff915f916105f3575b501680156105e15761ffff1960055416176005555f80f35b604051632a9ffab760e21b8152600490fd5b61060c915060203d602011610393576103858183611fe4565b826105c9565b34610241575f36600319011261024157602060405160058152f35b34610241575f36600319011261024157604051604081018181106001600160401b038211176106be5760405260058152602090640352e302e360dc1b60208201526040518092602082528251908160208401525f935b8285106106a5575050604092505f838284010152601f80199101168101030190f35b8481018201518686016040015293810193859350610683565b634e487b7160e01b5f52604160045260245ffd5b34610241576020366003190112610241576004356106ee612504565b6106f661252e565b805f52600660205260405f2061070d338383612737565b60ff815460a01c16156108a65760020160ff815460801c1661088d576001546001600160a01b0316803b15610241575f8091606460405180948193637a94c56560e11b8352336004840152620493e06024840152600160448401525af1801561039a5761087e575b508054906001600160401b0391828160401c16904282116107d7575b50505460401c166040519081527f7d79f1805cef6c321c83f64ad157f598b85b9934294073346718d0d17081b01560203392a360015f8051602061286c83398151915255005b83421690846005816107f5816107ed87896120cc565b9516876120cc565b16049181831615610875575b168186161061083a5750825467ffffffffffffffff60401b191660409190911b67ffffffffffffffff60401b16178255505b8380610791565b6108489150610870926120cc565b825467ffffffffffffffff60401b191660409190911b67ffffffffffffffff60401b16178255565b610833565b60019250610801565b61088790611f9a565b82610775565b604051636d2e69c960e11b815260048101839052602490fd5b604051631eb0995f60e01b815260048101839052602490fd5b34610241575f3660031901126102415760206040515f8152f35b346102415760c0366003190112610241576108f2611f12565b6108fa611f28565b610902611f3e565b9161090b611f54565b6001600160a01b036084358181169491939290859003610241577ff0c57e16840df040f15088dc2f81fe391c3923bec73e23a9662efc9c229c6a009485549660ff8860401c1615956001600160401b03891698891580610b75575b6001809b149081610b6b575b159081610b62575b50610b505767ffffffffffffffff1981168a17895587610b31575b50808616158015610b27575b8015610b1d575b8015610b13575b8015610b0b575b610af95780602095610a296004986109cc612787565b6109d4612787565b6109dc612787565b5f8051602061284c833981519152805460ff191690556109fa612787565b610a02612787565b8c5f8051602061286c83398151915255610a1a612787565b610a23816122a5565b50612342565b501693816bffffffffffffffffffffffff60a01b9386855f5416175f5516838b5416178a5516816002541617600255600354161760035560a4358355604051928380926234919360ea1b82525afa801561039a5761ffff915f91610ada575b501661ffff196005541617600555610a9c57005b805468ff0000000000000000191690556040519081527fc7f505b2f371ae2175ee4913f4499e1f2633a7b5936321eed1cdaeb6115181d290602090a1005b610af3915060203d602011610393576103858183611fe4565b85610a88565b60405163d92e233d60e01b8152600490fd5b5082156109b6565b50808416156109af565b50808216156109a8565b50808516156109a1565b68ffffffffffffffffff19166801000000000000000117885589610995565b60405163f92ee8a960e01b8152600490fd5b9050158b61097a565b303b159150610972565b5087610966565b34610241575f366003190112610241576002546040516001600160a01b039091168152602090f35b3461024157604036600319011261024157610bbd611f28565b6004355f525f8051602061282c83398151915260205260405f209060018060a01b03165f52602052602060ff60405f2054166040519015158152f35b3461024157608036600319011261024157610c12611f12565b610c1a611f28565b90610c23611f3e565b90610c2c611f54565b92610c356121fe565b6001600160a01b039182169182158015610d03575b8015610cf9575b8015610cef575b610af95760049481602095816bffffffffffffffffffffffff60a01b9587875f5416175f55168560015416176001551683600254161760025516906003541617600355604051928380926234919360ea1b82525afa801561039a5761ffff915f91610cd0575b501661ffff1960055416176005555f80f35b610ce9915060203d602011610393576103858183611fe4565b82610cbe565b5080851615610c58565b5080841615610c51565b5080821615610c4a565b34610241575f36600319011261024157610d256121fe565b610d2d612504565b5f8051602061284c833981519152600160ff198254161790557f62e78cea01bee320cd4e420270b5ea74000d11b0c9f74754ebdbfc544b05a2586020604051338152a1005b34610241576080366003190112610241576004356001600160401b03811161024157610da2903690600401611f6a565b6001600160401b036064351161024157366023606435011215610241576001600160401b036064356004013511610241573660246064356004013560643501011161024157610def612504565b610df761252e565b80156105e15761ffff60055416908115611364575b818111611347576004905f93602060018060a01b035f541660405194858092630240784f60e61b82525afa92831561039a575f93611326575b505f845b838210611058578660243581036105e1575f54604051636c0a39db60e01b81529190602090839060049082906001600160a01b03165afa91821561039a575f92611024575b50116105e157604435421161100a5760018060a01b0360035416600454813b15610241575f90604051928391635f1befb360e11b835233600484015260248301526024356044830152604435606483015260a060848301526064356004013560a48301526064356004013560246064350160c48401378260c46064356004013584010152818360c482601f19601f60643560040135011681010301925af1801561039a57610ffb575b5060048054600354604051638953580360e01b8152339381019390935260248301829052909190602090829060449082906001600160a01b03165afa90811561039a575f91610fc9575b5060405190602435825260208201527f69020ec3eb990fab9aed3b009da3695cf4a800133814e5a47d4206b2a86336ca60403392a360015f8051602061286c83398151915255005b90506020813d602011610ff3575b81610fe460209383611fe4565b81010312610241575182610f81565b3d9150610fd7565b61100490611f9a565b80610f37565b60405163cd21db4f60e01b81526044356004820152602490fd5b9091506020813d602011611050575b8161104060209383611fe4565b8101031261024157519082610e8e565b3d9150611033565b8015611308575f19019061106d818585612020565b35805f52600660205260405f2090611086338284612737565b60ff80835460a01c169081156112ef576002840154908160801c166112d6576001600160401b038160401c168042106112b8575060ff60801b1916600160801b1760028401555f996110d782612770565b916110e56040519384611fe4565b8083526110f181612770565b601f19013660208501375f9060018060a01b035f5416905b8083106111c1575050508a61111d916120bf565b9960405190604082019082526040602083015282518091526020606083019301905f905b8082106111a357505050907fc84ab5060ad9d92b37ce34b059926de4d4503a271420ea339b57e02612d08d588260019695949333930390a3611182816126fa565b60028101805460ff60881b19169055805460ff60a81b191690550190610e49565b90919360208060019263ffffffff8851168152019501920190611141565b90919c8d63ffffffff6111d78260018b01612089565b90549060031b1c1690865111156112a457808f60209060051b880101526040519063050ff5d960e51b82526004820152604081602481875afa90811561039a5761123563ffffffff8f9361ffff935f91611275575b50511692612681565b1690818102918183041490151715611261576001916127106112589204906120bf565b9d019190611109565b634e487b7160e01b5f52601160045260245ffd5b611297915060403d60401161129d575b61128f8183611fe4565b810190612041565b5f61122c565b503d611285565b634e487b7160e01b5f52603260045260245ffd5b836044916040519163044a36c760e21b835260048301526024820152fd5b604051636d2e69c960e11b815260048101849052602490fd5b604051631eb0995f60e01b815260048101849052602490fd5b6044848760405191631ad5008d60e21b835260048301526024820152fd5b61134091935060203d602011610393576103858183611fe4565b9185610e45565b60449160405191631ad5008d60e21b835260048301526024820152fd5b5f546040516234919360ea1b8152919250602090829060049082906001600160a01b03165afa801561039a5761ffff915f916113a3575b501690610e0c565b6113bc915060203d602011610393576103858183611fe4565b8461139b565b34610241575f366003190112610241576003546040516001600160a01b039091168152602090f35b34610241575f36600319011261024157602060ff5f8051602061284c83398151915254166040519015158152f35b34610241575f366003190112610241577f00000000000000000000000000000000000000000000000000000000000000006001600160a01b031630036114825760206040517f360894a13ba1a3210667c828492db98dca3e2076cc3735a920a3ca505d382bbc8152f35b60405163703e46dd60e11b8152600490fd5b6040366003190112610241576114a8611f12565b60249081356001600160401b03811161024157366023820112156102415780600401356114d481612005565b926114e26040519485611fe4565b818452602091828501933687838301011161024157815f92888693018737860101526001600160a01b037f000000000000000000000000000000000000000000000000000000000000000081163081149081156116ee575b50611482575f80525f8051602061282c833981519152835260405f20335f52835260ff60405f205416156116d1578116936040516352d1902d60e01b81528381600481895afa5f91816116a2575b506115a557604051634c9c8ce360e01b8152600481018790528790fd5b8590877f360894a13ba1a3210667c828492db98dca3e2076cc3735a920a3ca505d382bbc9182810361168d5750843b15611677575080546001600160a01b03191682179055604051907fbc7cd75a20ee27fd9adebab32041f755214dbc6bffa90cc0225b39da2e5c2d3b5f80a281511561165c57505f6102699481925190845af4903d15611653573d61163781612005565b906116456040519283611fe4565b81525f81943d92013e6127c8565b606092506127c8565b93505050503461166857005b63b398979f60e01b8152600490fd5b604051634c9c8ce360e01b815260048101849052fd5b60405190632a87526960e21b82526004820152fd5b9091508481813d83116116ca575b6116ba8183611fe4565b8101031261024157519088611588565b503d6116b0565b60405163e2517d3f60e01b81523360048201525f81880152604490fd5b9050817f360894a13ba1a3210667c828492db98dca3e2076cc3735a920a3ca505d382bbc541614158761153a565b3461024157602080600319360112610241576004359061173a612504565b61174261252e565b815f526006815260405f20611757338461255d565b80546001600160a01b039283821680159391929190841580611960575b611930575060ff8260a01c1615158061191e575b61190557600281019160ff835460881c166118ec57335f526007845260405f2054945f9580611847575b507f669a1357892a82333fd3911928db3f5f00c9f430c34763cea6b3803f337db3b1959650611833575b506117e6816126fa565b805460ff60a81b191660a886901b60ff60a81b1617905580546001600160901b03191661010160801b17905560405160ff9390931683523392a360015f8051602061286c83398151915255005b6001600160a01b03191633178155866117dc565b9550620186a0861080156118df575b6105e1576201869f198601958611611261578460ff60249716975f541660405197888092631e672ea560e21b82528b60048301525afa95861561039a577f669a1357892a82333fd3911928db3f5f00c9f430c34763cea6b3803f337db3b1966118c2575b8796506117b2565b6118d890863d8811610393576103858183611fe4565b50886118ba565b5062030d40861015611856565b604051636e10c4c160e11b815260048101889052602490fd5b60405163efe3fa9d60e01b815260048101879052602490fd5b5060ff600282015460801c1615611788565b6040516301d3197960e61b8152600481018890523360248201526001600160a01b03919091166044820152606490fd5b5033811415611774565b34610241575f366003190112610241576119826121fe565b5f8051602061284c833981519152805460ff8116156119cd5760ff191690557f5db9ee0a495bf2e6ff9c91a7834c1ba4fdd244a5e8aa4e537bd38aeae4b073aa6020604051338152a1005b604051638dfc202b60e01b8152600490fd5b34610241576040366003190112610241576024356001600160401b03811161024157611a0f903690600401611f6a565b90611a18612504565b611a2061252e565b611a2c3360043561255d565b81158015611d8d575b6105e1576004355f52600660205260405f2060ff600282015460881c1615611d7457805460ff8160a01c16611d5b5760ff611a739160a81c1661261a565b5f905f5b858110611c0d5750506001546001600160a01b0316803b15610241575f8091606460405180948193637a94c56560e11b8352336004840152620493e060248401528a60448401525af1801561039a57611bfe575b5081546001600160a81b0319163360ff60a01b19161760a085901b60ff60a01b1617825560028201805467ffffffffffffffff1916426001600160401b0390811691821790925563ffffffff92831601908111611261576002929092018054604093841b67ffffffffffffffff60401b1671ffffffffffffffffffff0000000000000000198216811790925583518481529384018690529294606086019467ffffffffffffffff60401b199094169091179291905f5b818110611bd857604085901c6001600160401b03166020880152600435337f594dab962093cced33fa26f7b6476ac1434e5f8c03c070eb7ac1ed9884041b498989038aa360015f8051602061286c83398151915255005b909192948535908482168092036102415790815260209081019501929190600101611b81565b611c0790611f9a565b84611acb565b611c18818787612020565b359063ffffffff82168203610241575f546040805163050ff5d960e51b815263ffffffff8516600482015291829060249082906001600160a01b03165afa90811561039a5763ffffffff6020611c7a9387935f91611d3c575b50015116612695565b63ffffffff851663ffffffff821611611d34575b506001546001600160a01b03169162030d4063ffffffff82168101811161126157833b15610241575f93606485926040519687938492637a94c56560e11b845233600485015263ffffffff8816016024840152600160448401525af192831561039a57600193611d25575b50611d0682848801612089565b63ffffffff80839493549260031b9316831b921b191617905501611a77565b611d2e90611f9a565b88611cf9565b935087611c8e565b611d55915060403d60401161129d5761128f8183611fe4565b8c611c71565b602460405163efe3fa9d60e01b81526004356004820152fd5b6024604051630dc0ff7160e41b81526004356004820152fd5b5060058211611a35565b3461024157604036600319011261024157611db0611f28565b336001600160a01b03821603611dcc5761026990600435612485565b60405163334bd91960e11b8152600490fd5b3461024157604036600319011261024157610269600435611dfd611f28565b90805f525f8051602061282c833981519152602052611e22600160405f200154612277565b612402565b34610241576020366003190112610241576004355f525f8051602061282c8339815191526020526020600160405f200154604051908152f35b34610241575f366003190112610241575f546040516001600160a01b039091168152602090f35b34610241576020366003190112610241576001600160a01b03611ea8611f12565b165f526007602052602060405f2054604051908152f35b34610241576020366003190112610241576004359063ffffffff60e01b821680920361024157602091637965db0b60e01b8114908115611f01575b5015158152f35b6301ffc9a760e01b14905083611efa565b600435906001600160a01b038216820361024157565b602435906001600160a01b038216820361024157565b604435906001600160a01b038216820361024157565b606435906001600160a01b038216820361024157565b9181601f84011215610241578235916001600160401b038311610241576020808501948460051b01011161024157565b6001600160401b0381116106be57604052565b61010081019081106001600160401b038211176106be57604052565b60a081019081106001600160401b038211176106be57604052565b90601f801991011681019081106001600160401b038211176106be57604052565b6001600160401b0381116106be57601f01601f191660200190565b91908110156112a45760051b0190565b519063ffffffff8216820361024157565b908160409103126102415760405190604082018281106001600160401b038211176106be576120819160209160405261207981612030565b845201612030565b602082015290565b91909160058310156112a457601c908360031c019260021b1690565b90816020910312610241575161ffff811681036102415790565b9190820180921161126157565b6001600160401b03918216908216039190821161126157565b80156121c757620186a0811080156121ba575b6105e157600154604051627eeac760e11b81523360048201526024810183905290602090829060449082906001600160a01b03165afa90811561039a575f91612188575b501561217757335f5260076020528060405f2055337f59ce5660ed68f967de7beb81262314590dfeb745b2a3e89e31e1557405c0c69a5f80a3565b6040516282b42960e81b8152600490fd5b90506020813d6020116121b2575b816121a360209383611fe4565b8101031261024157515f61213c565b3d9150612196565b5062030d408110156120f8565b50335f5260076020525f60408120555f337f59ce5660ed68f967de7beb81262314590dfeb745b2a3e89e31e1557405c0c69a8280a3565b335f9081527f06484cc59dc38e4f67c31122333a17ca81b3ca18cdf02bfc298072fa52b0316a60205260409020547f241ecf16d79d0f8dbfb92cbc07fe17840425976cf0667f022fe9877caa831b089060ff16156122595750565b6044906040519063e2517d3f60e01b82523360048301526024820152fd5b805f525f8051602061282c83398151915260205260405f20335f5260205260ff60405f205416156122595750565b6001600160a01b03165f8181527fb7db2dd08fcb62d0c9e08c51941cae53c267786a0b75803fb7960902fc8ef97d60205260409020545f8051602061282c8339815191529060ff1661233c575f805260205260405f20815f5260205260405f20600160ff1982541617905533905f7f2f8788117e7eff1d82e926ec794901d17c78024a50270940304540a733656f0d8180a4600190565b50505f90565b6001600160a01b03165f8181527f06484cc59dc38e4f67c31122333a17ca81b3ca18cdf02bfc298072fa52b0316a60205260409020547f241ecf16d79d0f8dbfb92cbc07fe17840425976cf0667f022fe9877caa831b0891905f8051602061282c8339815191529060ff166123fb57825f5260205260405f20815f5260205260405f20600160ff1982541617905533917f2f8788117e7eff1d82e926ec794901d17c78024a50270940304540a733656f0d5f80a4600190565b5050505f90565b90815f525f8051602061282c8339815191528060205260405f209160018060a01b031691825f5260205260ff60405f205416155f146123fb57825f5260205260405f20815f5260205260405f20600160ff1982541617905533917f2f8788117e7eff1d82e926ec794901d17c78024a50270940304540a733656f0d5f80a4600190565b90815f525f8051602061282c8339815191528060205260405f209160018060a01b031691825f5260205260ff60405f2054165f146123fb57825f5260205260405f20815f5260205260405f2060ff19815416905533917ff6391f5c32d9c69d2a47ea670b442974b53935d1edc7fd64eb21e047a839171b5f80a4600190565b60ff5f8051602061284c833981519152541661251c57565b60405163d93c066560e01b8152600490fd5b5f8051602061286c833981519152600281541461254b5760029055565b604051633ee5aeb560e01b8152600490fd5b6002546040516331a9108f60e11b815260048101839052906001600160a01b03906020908390602490829085165afa91821561039a575f926125dd575b50808416908216036125ab57505050565b6040516301d3197960e61b815260048101929092526001600160a01b0392831660248301529091166044820152606490fd5b9091506020813d602011612612575b816125f960209383611fe4565b810103126102415751818116810361024157905f61259a565b3d91506125ec565b60ff16801561267c575f54604051631e672ea560e21b81526004810192909252602090829060249082906001600160a01b03165afa90811561039a575f91612660575090565b612679915060203d602011610393576103858183611fe4565b90565b505f90565b9061ffff8092166127100191821161126157565b9061ffff808216156126f55763ffffffff8093169161271092838102938185041490151715611261576126c790612681565b169081156126e1570480156126da571690565b5060011690565b634e487b7160e01b5f52601260045260245ffd5b505090565b5f5b600581106127125750805460ff60a01b19169055565b80612721600192838501612089565b63ffffffff82549160031b1b19169055016126fc565b546001600160a01b0390811690811561275757831681036125ab57505050565b6040516306ed362f60e31b815260048101849052602490fd5b6001600160401b0381116106be5760051b60200190565b60ff7ff0c57e16840df040f15088dc2f81fe391c3923bec73e23a9662efc9c229c6a005460401c16156127b657565b604051631afcd79f60e31b8152600490fd5b906127ef57508051156127dd57805190602001fd5b60405163d6bda27560e01b8152600490fd5b81511580612822575b612800575090565b604051639996b31560e01b81526001600160a01b039091166004820152602490fd5b50803b156127f856fe02dd7bc7dec4dceedda775e58dd541e08a116c6c53815c0bd028192f7b626800cd5ed15c6e187e77e9aee88184c21f4f2182ab5827cb3b7e07fbedcd63f033009b779b17422d0df92223018b32b4d1fa46e071723d6817e2486d003becc55f00a2646970667358221220ea6aad41f49762d3d86bebafc6032c7f6ab845f267d67dbc66ca3ae2487b595864736f6c63430008180033","linkReferences":{}},"methodIdentifiers":{"DEFAULT_ADMIN_ROLE()":"a217fddf","MANAGER_ROLE()":"ec87621c","MAX_SEEDS_PER_PLOT()":"c2166658","UPGRADE_INTERFACE_VERSION()":"ad3cb1cc","activeTool(address)":"059b5515","clearPlot(uint256)":"f9eb03e5","dig(uint256)":"40517083","gameId()":"d7c81b55","getPlot(uint256)":"cfdd4fbd","getRoleAdmin(bytes32)":"248a9ca3","grantRole(bytes32,address)":"2f2ff15d","harvestAndClaimXP(uint256[],uint256,uint256,bytes)":"7c68cad3","hasRole(bytes32,address)":"91d14854","initialize(address,address,address,address,address,uint256)":"95b6ef0c","item1155()":"c91d3ccc","land721()":"9253b0f2","maxPlotsPerHarvest()":"d2464c00","parameterRegistry()":"0723499e","pause()":"8456cb59","paused()":"5c975abb","plant(uint256,uint32[])":"36dc2fa8","proxiableUUID()":"52d1902d","renounceRole(bytes32,address)":"36568abe","revokeRole(bytes32,address)":"d547741f","setActiveTool(uint256)":"ef7cc23f","supportsInterface(bytes4)":"01ffc9a7","syncMaxPlotsPerHarvest()":"c87597c6","unpause()":"3f4ba83a","updateDependencies(address,address,address,address)":"8d001863","upgradeToAndCall(address,bytes)":"4f1ef286","water(uint256)":"a7eec44b","xpRegistry()":"6457ad83"},"id":0}