{"abi":[{"type":"constructor","inputs":[],"stateMutability":"nonpayable"},{"type":"fallback","stateMutability":"payable"},{"type":"receive","stateMutability":"payable"},{"type":"function","name":"DEFAULT_ADMIN_ROLE","inputs":[],"outputs":[{"name":"","type":"bytes32","internalType":"bytes32"}],"stateMutability":"view"},{"type":"function","name":"TREASURY_MANAGER_ROLE","inputs":[],"outputs":[{"name":"","type":"bytes32","internalType":"bytes32"}],"stateMutability":"view"},{"type":"function","name":"UPGRADE_INTERFACE_VERSION","inputs":[],"outputs":[{"name":"","type":"string","internalType":"string"}],"stateMutability":"view"},{"type":"function","name":"buyLand","inputs":[{"name":"quantity","type":"uint256","internalType":"uint256"}],"outputs":[],"stateMutability":"payable"},{"type":"function","name":"buySeed","inputs":[{"name":"seedType","type":"uint256","internalType":"uint256"},{"name":"quantity","type":"uint256","internalType":"uint256"}],"outputs":[],"stateMutability":"payable"},{"type":"function","name":"buyTool","inputs":[{"name":"toolRarity","type":"uint256","internalType":"uint256"},{"name":"quantity","type":"uint256","internalType":"uint256"}],"outputs":[],"stateMutability":"payable"},{"type":"function","name":"buyWater","inputs":[{"name":"quantity","type":"uint256","internalType":"uint256"}],"outputs":[],"stateMutability":"payable"},{"type":"function","name":"getRoleAdmin","inputs":[{"name":"role","type":"bytes32","internalType":"bytes32"}],"outputs":[{"name":"","type":"bytes32","internalType":"bytes32"}],"stateMutability":"view"},{"type":"function","name":"grantRole","inputs":[{"name":"role","type":"bytes32","internalType":"bytes32"},{"name":"account","type":"address","internalType":"address"}],"outputs":[],"stateMutability":"nonpayable"},{"type":"function","name":"hasRole","inputs":[{"name":"role","type":"bytes32","internalType":"bytes32"},{"name":"account","type":"address","internalType":"address"}],"outputs":[{"name":"","type":"bool","internalType":"bool"}],"stateMutability":"view"},{"type":"function","name":"initialize","inputs":[{"name":"admin","type":"address","internalType":"address"},{"name":"parameterRegistry_","type":"address","internalType":"address"},{"name":"item1155_","type":"address","internalType":"address"},{"name":"land721_","type":"address","internalType":"address"}],"outputs":[],"stateMutability":"nonpayable"},{"type":"function","name":"item1155","inputs":[],"outputs":[{"name":"","type":"address","internalType":"contract Item1155"}],"stateMutability":"view"},{"type":"function","name":"land721","inputs":[],"outputs":[{"name":"","type":"address","internalType":"contract Land721"}],"stateMutability":"view"},{"type":"function","name":"parameterRegistry","inputs":[],"outputs":[{"name":"","type":"address","internalType":"contract ParameterRegistry"}],"stateMutability":"view"},{"type":"function","name":"pause","inputs":[],"outputs":[],"stateMutability":"nonpayable"},{"type":"function","name":"paused","inputs":[],"outputs":[{"name":"","type":"bool","internalType":"bool"}],"stateMutability":"view"},{"type":"function","name":"proxiableUUID","inputs":[],"outputs":[{"name":"","type":"bytes32","internalType":"bytes32"}],"stateMutability":"view"},{"type":"function","name":"renounceRole","inputs":[{"name":"role","type":"bytes32","internalType":"bytes32"},{"name":"callerConfirmation","type":"address","internalType":"address"}],"outputs":[],"stateMutability":"nonpayable"},{"type":"function","name":"revokeRole","inputs":[{"name":"role","type":"bytes32","internalType":"bytes32"},{"name":"account","type":"address","internalType":"address"}],"outputs":[],"stateMutability":"nonpayable"},{"type":"function","name":"supportsInterface","inputs":[{"name":"interfaceId","type":"bytes4","internalType":"bytes4"}],"outputs":[{"name":"","type":"bool","internalType":"bool"}],"stateMutability":"view"},{"type":"function","name":"unpause","inputs":[],"outputs":[],"stateMutability":"nonpayable"},{"type":"function","name":"updateDependencies","inputs":[{"name":"newParameterRegistry","type":"address","internalType":"address"},{"name":"newItem1155","type":"address","internalType":"address"},{"name":"newLand721","type":"address","internalType":"address"}],"outputs":[],"stateMutability":"nonpayable"},{"type":"function","name":"upgradeToAndCall","inputs":[{"name":"newImplementation","type":"address","internalType":"address"},{"name":"data","type":"bytes","internalType":"bytes"}],"outputs":[],"stateMutability":"payable"},{"type":"event","name":"Initialized","inputs":[{"name":"version","type":"uint64","indexed":false,"internalType":"uint64"}],"anonymous":false},{"type":"event","name":"Paused","inputs":[{"name":"account","type":"address","indexed":false,"internalType":"address"}],"anonymous":false},{"type":"event","name":"RoleAdminChanged","inputs":[{"name":"role","type":"bytes32","indexed":true,"internalType":"bytes32"},{"name":"previousAdminRole","type":"bytes32","indexed":true,"internalType":"bytes32"},{"name":"newAdminRole","type":"bytes32","indexed":true,"internalType":"bytes32"}],"anonymous":false},{"type":"event","name":"RoleGranted","inputs":[{"name":"role","type":"bytes32","indexed":true,"internalType":"bytes32"},{"name":"account","type":"address","indexed":true,"internalType":"address"},{"name":"sender","type":"address","indexed":true,"internalType":"address"}],"anonymous":false},{"type":"event","name":"RoleRevoked","inputs":[{"name":"role","type":"bytes32","indexed":true,"internalType":"bytes32"},{"name":"account","type":"address","indexed":true,"internalType":"address"},{"name":"sender","type":"address","indexed":true,"internalType":"address"}],"anonymous":false},{"type":"event","name":"ShopPurchase","inputs":[{"name":"buyer","type":"address","indexed":true,"internalType":"address"},{"name":"itemKey","type":"bytes32","indexed":true,"internalType":"bytes32"},{"name":"quantity","type":"uint256","indexed":false,"internalType":"uint256"},{"name":"totalPaid","type":"uint256","indexed":false,"internalType":"uint256"}],"anonymous":false},{"type":"event","name":"Unpaused","inputs":[{"name":"account","type":"address","indexed":false,"internalType":"address"}],"anonymous":false},{"type":"event","name":"Upgraded","inputs":[{"name":"implementation","type":"address","indexed":true,"internalType":"address"}],"anonymous":false},{"type":"error","name":"AccessControlBadConfirmation","inputs":[]},{"type":"error","name":"AccessControlUnauthorizedAccount","inputs":[{"name":"account","type":"address","internalType":"address"},{"name":"neededRole","type":"bytes32","internalType":"bytes32"}]},{"type":"error","name":"AddressEmptyCode","inputs":[{"name":"target","type":"address","internalType":"address"}]},{"type":"error","name":"ERC1967InvalidImplementation","inputs":[{"name":"implementation","type":"address","internalType":"address"}]},{"type":"error","name":"ERC1967NonPayable","inputs":[]},{"type":"error","name":"EnforcedPause","inputs":[]},{"type":"error","name":"ExpectedPause","inputs":[]},{"type":"error","name":"FailedCall","inputs":[]},{"type":"error","name":"InvalidInitialization","inputs":[]},{"type":"error","name":"InvalidValue","inputs":[]},{"type":"error","name":"NotInitializing","inputs":[]},{"type":"error","name":"ReentrancyGuardReentrantCall","inputs":[]},{"type":"error","name":"TransferFailed","inputs":[]},{"type":"error","name":"UUPSUnauthorizedCallContext","inputs":[]},{"type":"error","name":"UUPSUnsupportedProxiableUUID","inputs":[{"name":"slot","type":"bytes32","internalType":"bytes32"}]},{"type":"error","name":"Unauthorized","inputs":[]},{"type":"error","name":"ZeroAddress","inputs":[]}],"bytecode":{"object":"0x60a080604052346100cc57306080527ff0c57e16840df040f15088dc2f81fe391c3923bec73e23a9662efc9c229c6a009081549060ff8260401c166100bd57506001600160401b036002600160401b031982821601610078575b6040516118cd90816100d18239608051818181610ce10152610dbf0152f35b6001600160401b031990911681179091556040519081527fc7f505b2f371ae2175ee4913f4499e1f2633a7b5936321eed1cdaeb6115181d290602090a15f8080610059565b63f92ee8a960e01b8152600490fd5b5f80fdfe6080604081815260049182361015610031575b50361561002557516282b42960e81b8152fd5b516282b42960e81b8152fd5b5f905f3560e01c90816301ffc9a7146110d5575080630723499e146110ae578063248a9ca3146110775780632f2ff15d1461103057806336568abe14610feb5780633f4ba83a14610f755780634f1ef28614610d4557806352d1902d14610ccd5780635c975abb14610c9e5780638456cb5914610c3957806391d1485414610be85780639253b0f214610bc05780639e32bb8a146109e3578063a217fddf146109c8578063a82419ac146108f5578063ad3cb1cc1461087b578063c91d3ccc14610852578063ced39558146105f0578063d1e71a2814610547578063d547741f146104fb578063ebdf690f146104bc578063f8c8765e146102925763fd7fc32e0361001257919061014136611207565b9161014a611545565b61015261156f565b821561028357805160208101906814d213d417d513d3d360ba1b825283602982015260298152610181816111ad565b51902093610197846101928761159e565b61121d565b926101a18461169c565b620186a09081018091116102705760015487926001600160a01b039091169190823b1561026c57845163731133e960e01b8152339181019182526020820192909252604081018790526080606082018190525f908201529091839183919082908490829060a0015b03925af180156102625761024a575b50505f8051602061181883398151915291815193845260208401523392a360015f805160206118788339815191525580f35b61025390611169565b61025e57845f610218565b8480fd5b83513d84823e3d90fd5b8380fd5b601182634e487b7160e01b5f525260245ffd5b51632a9ffab760e21b81528390fd5b5091346104b85760803660031901126104b8576102ad61113d565b6102b5611127565b916102be611153565b926064356001600160a01b0381811692918390036104b4577ff0c57e16840df040f15088dc2f81fe391c3923bec73e23a9662efc9c229c6a009586549560ff878a1c16159567ffffffffffffffff8816978815806104ad575b6001809a1490816104a3575b15908161049a575b5061048b5767ffffffffffffffff19811689178a558761046c575b50838216158015610462575b8015610458575b8015610450575b61044257506103ce90610371611773565b610379611773565b610381611773565b5f80516020611858833981519152805460ff1916905561039f611773565b6103a7611773565b875f80516020611878833981519152556103bf611773565b6103c8816112e6565b50611383565b50816bffffffffffffffffffffffff60a01b9316838a541617895516818554161784556002541617600255610401578380f35b7fc7f505b2f371ae2175ee4913f4499e1f2633a7b5936321eed1cdaeb6115181d29260209268ff000000000000000019815416905551908152a15f80808380f35b895163d92e233d60e01b8152fd5b508515610360565b5083831615610359565b5083851615610352565b68ffffffffffffffffff1916680100000000000000011789555f610346565b50895163f92ee8a960e01b8152fd5b9050155f61032b565b303b159150610323565b5087610317565b5f80fd5b8280fd5b5090346104f757816003193601126104f757602090517fede9dcdb0ce99dc7cec9c7be9246ad08b37853683ad91569c187b647ddf5e21c8152f35b5080fd5b509190346104b857806003193601126104b857610543913561053e6001610520611127565b938387525f805160206118388339815191526020528620015461129a565b6114c6565b5080f35b5091346104b85760603660031901126104b85761056261113d565b9061056b611127565b610573611153565b9161057c611244565b6001600160a01b0393841694851580156105e6575b80156105dc575b6105cf57505082906bffffffffffffffffffffffff60a01b9485875416178655168360015416176001551690600254161760025580f35b5163d92e233d60e01b8152fd5b5084841615610598565b5084831615610591565b5091906020908160031936011261026c5782359261060c611545565b61061461156f565b83156108445760018060a01b0390815f541694835163e9b3d7d160e01b815284816024817f1020419fb03705853f9fe05e8793f56d01ac5bae0d94113f65760fb042498b6c9a8b888301525afa90811561083a575f916107dc575b5085810151156107cd578160446106928a946001600160801b038695511661121d565b9561069c8761169c565b600254169187519485938492630922dc7f60e21b8452338985015260248401525af19182156107c35787926106ff575b50505182519081529283015233915f805160206118188339815191529190a360015f805160206118788339815191525580f35b9091503d8088843e61071181846111c9565b82019085838303126107bf57825167ffffffffffffffff938482116107bb57019082601f830112156107a45781519384116107a857508260051b9085519361075b888401866111c9565b845286808501928201019283116107a45786809101915b83831061079457505f8051602061181883398151915292505f91506106cc9050565b8251815291810191879101610772565b8880fd5b634e487b7160e01b895260419052602488fd5b8980fd5b8780fd5b84513d89823e3d90fd5b84516282b42960e81b81528390fd5b90508481813d8311610833575b6107f381836111c9565b810103126104b45784519061080782611191565b8051906001600160801b03821682036104b45787918352015180151581036104b457868201525f61066f565b503d6107e9565b85513d5f823e3d90fd5b9051632a9ffab760e21b8152fd5b5090346104f757816003193601126104f75760015490516001600160a01b039091168152602090f35b5090346104f757816003193601126104f757805161089881611191565b60058152602090640352e302e360dc1b6020820152825193849260208452825192836020860152825b8481106108df57505050828201840152601f01601f19168101030190f35b81810183015188820188015287955082016108c1565b50919061090136611207565b9161090a611545565b61091261156f565b821561028357805160208101906814d213d417d4d1515160ba1b825283602982015260298152610941816111ad565b51902093610952846101928761159e565b9261095c8461169c565b62030d409081018091116102705760015487926001600160a01b039091169190823b1561026c57845163731133e960e01b8152339181019182526020820192909252604081018790526080606082018190525f908201529091839183919082908490829060a001610209565b5090346104f757816003193601126104f75751908152602090f35b50919060203660031901126104b4578135906109fd611545565b610a0561156f565b8115610bb15760018060a01b03805f541693825163e9b3d7d160e01b815283816024817f9726fc1f1bc77e15a34e697ec27a2adbafdf5c7516b53310e76039bb54d052b8998a878301525afa908115610ba7575f91610b47575b50602081015115610b3957846001600160801b03610a7e92511661121d565b91610a888361169c565b6001541690813b156104b4575f9160a483928651948593849263731133e960e01b84523390840152620493e06024840152896044840152608060648401528160848401525af18015610b2f57610b0b575b50905f8051602061181883398151915291815193845260208401523392a360015f805160206118788339815191525580f35b5f8051602061181883398151915292919550610b2690611169565b5f949091610ad9565b83513d5f823e3d90fd5b5082516282b42960e81b8152fd5b90508381813d8311610ba0575b610b5e81836111c9565b810103126104b457835190610b7282611191565b8051906001600160801b03821682036104b4576020918352015180151581036104b45760208201525f610a5f565b503d610b54565b84513d5f823e3d90fd5b51632a9ffab760e21b81529050fd5b82346104b4575f3660031901126104b45760025490516001600160a01b039091168152602090f35b5050346104b457806003193601126104b457602091610c05611127565b90355f525f805160206118388339815191528352815f209060018060a01b03165f52825260ff815f20541690519015158152f35b82346104b4575f3660031901126104b45760207f62e78cea01bee320cd4e420270b5ea74000d11b0c9f74754ebdbfc544b05a25891610c76611244565b610c7e611545565b5f80516020611858833981519152805460ff1916600117905551338152a1005b82346104b4575f3660031901126104b45760209060ff5f80516020611858833981519152541690519015158152f35b5050346104b4575f3660031901126104b4577f00000000000000000000000000000000000000000000000000000000000000006001600160a01b03163003610d3857602090517f360894a13ba1a3210667c828492db98dca3e2076cc3735a920a3ca505d382bbc8152f35b5163703e46dd60e11b8152fd5b8284816003193601126104b457610d5a61113d565b602492833567ffffffffffffffff81116104b457366023820112156104b4578084013592610d87846111eb565b610d93845191826111c9565b84815260209485820193368983830101116104b457815f928a8993018737830101526001600160a01b037f00000000000000000000000000000000000000000000000000000000000000008116308114908115610f47575b50610f3757610df8611244565b84516352d1902d60e01b815290831695808289818a5afa9182915f93610f07575b5050610e3457505050505191634c9c8ce360e01b8352820152fd5b858588928a7f360894a13ba1a3210667c828492db98dca3e2076cc3735a920a3ca505d382bbc91828103610ef25750863b15610ede575080546001600160a01b0319168317905551907fbc7cd75a20ee27fd9adebab32041f755214dbc6bffa90cc0225b39da2e5c2d3b5f80a2825115610ec65750505f610ec49381925190845af4610ebe61166d565b916117b4565b005b925092505034610ed257005b63b398979f60e01b8152fd5b9450505191634c9c8ce360e01b8352820152fd5b8351632a87526960e21b815280870191909152fd5b9080929350813d8311610f30575b610f1f81836111c9565b810103126104b45751908980610e19565b503d610f15565b845163703e46dd60e11b81528790fd5b9050817f360894a13ba1a3210667c828492db98dca3e2076cc3735a920a3ca505d382bbc5416141589610deb565b5050346104b4575f3660031901126104b457610f8f611244565b5f805160206118588339815191529182549060ff821615610fdd577f5db9ee0a495bf2e6ff9c91a7834c1ba4fdd244a5e8aa4e537bd38aeae4b073aa602084868560ff1916905551338152a1005b8251638dfc202b60e01b8152fd5b5050346104b457806003193601126104b457611005611127565b90336001600160a01b038316036110215750610ec491356114c6565b5163334bd91960e11b81529050fd5b5050346104b457806003193601126104b457610ec491356110726001611054611127565b93835f525f805160206118388339815191526020525f20015461129a565b611443565b5050346104b45760203660031901126104b457602091355f525f8051602061183883398151915282526001815f2001549051908152f35b82346104b4575f3660031901126104b4575f5490516001600160a01b039091168152602090f35b84346104b45760203660031901126104b457359063ffffffff60e01b82168092036104b457602091637965db0b60e01b8114908115611116575b5015158152f35b6301ffc9a760e01b1490508361110f565b602435906001600160a01b03821682036104b457565b600435906001600160a01b03821682036104b457565b604435906001600160a01b03821682036104b457565b67ffffffffffffffff811161117d57604052565b634e487b7160e01b5f52604160045260245ffd5b6040810190811067ffffffffffffffff82111761117d57604052565b6060810190811067ffffffffffffffff82111761117d57604052565b90601f8019910116810190811067ffffffffffffffff82111761117d57604052565b67ffffffffffffffff811161117d57601f01601f191660200190565b60409060031901126104b4576004359060243590565b8181029291811591840414171561123057565b634e487b7160e01b5f52601160045260245ffd5b335f9081527fb7db2dd08fcb62d0c9e08c51941cae53c267786a0b75803fb7960902fc8ef97d602052604090205460ff161561127c57565b60405163e2517d3f60e01b81523360048201525f6024820152604490fd5b805f525f8051602061183883398151915260205260405f20335f5260205260ff60405f205416156112c85750565b6044906040519063e2517d3f60e01b82523360048301526024820152fd5b6001600160a01b03165f8181527fb7db2dd08fcb62d0c9e08c51941cae53c267786a0b75803fb7960902fc8ef97d60205260409020545f805160206118388339815191529060ff1661137d575f805260205260405f20815f5260205260405f20600160ff1982541617905533905f7f2f8788117e7eff1d82e926ec794901d17c78024a50270940304540a733656f0d8180a4600190565b50505f90565b6001600160a01b03165f8181527f66de4a4f04a2e43b4f0e16c30f097faaf056d056754069bf209462cbbc634a1560205260409020547fede9dcdb0ce99dc7cec9c7be9246ad08b37853683ad91569c187b647ddf5e21c91905f805160206118388339815191529060ff1661143c57825f5260205260405f20815f5260205260405f20600160ff1982541617905533917f2f8788117e7eff1d82e926ec794901d17c78024a50270940304540a733656f0d5f80a4600190565b5050505f90565b90815f525f805160206118388339815191528060205260405f209160018060a01b031691825f5260205260ff60405f205416155f1461143c57825f5260205260405f20815f5260205260405f20600160ff1982541617905533917f2f8788117e7eff1d82e926ec794901d17c78024a50270940304540a733656f0d5f80a4600190565b90815f525f805160206118388339815191528060205260405f209160018060a01b031691825f5260205260ff60405f2054165f1461143c57825f5260205260405f20815f5260205260405f2060ff19815416905533917ff6391f5c32d9c69d2a47ea670b442974b53935d1edc7fd64eb21e047a839171b5f80a4600190565b60ff5f80516020611858833981519152541661155d57565b60405163d93c066560e01b8152600490fd5b5f80516020611878833981519152600281541461158c5760029055565b604051633ee5aeb560e01b8152600490fd5b5f546040805163e9b3d7d160e01b81526004810193909352908190839060249082906001600160a01b03165afa918215611663575f92611601575b506020820151156115f25750516001600160801b031690565b516282b42960e81b8152600490fd5b9080925081813d831161165c575b61161981836111c9565b810103126104b45781519061162d82611191565b8051906001600160801b03821682036104b4576020918352015180151581036104b4576020820152905f6115d9565b503d61160f565b50513d5f823e3d90fd5b3d15611697573d9061167e826111eb565b9161168c60405193846111c9565b82523d5f602084013e565b606090565b803403611761575f546040516361d027b360e01b81526001600160a01b03916020908290600490829086165afa908115611756575f9161171b575b50168015611709575f80809381935af16116ef61166d565b50156116f757565b6040516312171d8360e31b8152600490fd5b60405163d92e233d60e01b8152600490fd5b90506020813d60201161174e575b81611736602093836111c9565b810103126104b4575181811681036104b4575f6116d7565b3d9150611729565b6040513d5f823e3d90fd5b604051632a9ffab760e21b8152600490fd5b60ff7ff0c57e16840df040f15088dc2f81fe391c3923bec73e23a9662efc9c229c6a005460401c16156117a257565b604051631afcd79f60e31b8152600490fd5b906117db57508051156117c957805190602001fd5b60405163d6bda27560e01b8152600490fd5b8151158061180e575b6117ec575090565b604051639996b31560e01b81526001600160a01b039091166004820152602490fd5b50803b156117e456fea46d98688529d0b070a94d3f35514376e5ae386f0d89ac114968cccf2e188a8802dd7bc7dec4dceedda775e58dd541e08a116c6c53815c0bd028192f7b626800cd5ed15c6e187e77e9aee88184c21f4f2182ab5827cb3b7e07fbedcd63f033009b779b17422d0df92223018b32b4d1fa46e071723d6817e2486d003becc55f00a264697066735822122008226d814e1852b16e2a46ba3f66ef8a0d619921b050dcd133dd8238d9a6a0f564736f6c63430008180033","linkReferences":{}},"methodIdentifiers":{"DEFAULT_ADMIN_ROLE()":"a217fddf","TREASURY_MANAGER_ROLE()":"ebdf690f","UPGRADE_INTERFACE_VERSION()":"ad3cb1cc","buyLand(uint256)":"ced39558","buySeed(uint256,uint256)":"a82419ac","buyTool(uint256,uint256)":"fd7fc32e","buyWater(uint256)":"9e32bb8a","getRoleAdmin(bytes32)":"248a9ca3","grantRole(bytes32,address)":"2f2ff15d","hasRole(bytes32,address)":"91d14854","initialize(address,address,address,address)":"f8c8765e","item1155()":"c91d3ccc","land721()":"9253b0f2","parameterRegistry()":"0723499e","pause()":"8456cb59","paused()":"5c975abb","proxiableUUID()":"52d1902d","renounceRole(bytes32,address)":"36568abe","revokeRole(bytes32,address)":"d547741f","supportsInterface(bytes4)":"01ffc9a7","unpause()":"3f4ba83a","updateDependencies(address,address,address)":"d1e71a28","upgradeToAndCall(address,bytes)":"4f1ef286"},"id":5}