{"abi":[{"type":"constructor","inputs":[{"name":"admin","type":"address","internalType":"address"},{"name":"degenshootContract","type":"address","internalType":"address"},{"name":"treasuryAddress","type":"address","internalType":"address"},{"name":"feeBps","type":"uint16","internalType":"uint16"}],"stateMutability":"nonpayable"},{"type":"receive","stateMutability":"payable"},{"type":"function","name":"DEFAULT_ADMIN_ROLE","inputs":[],"outputs":[{"name":"","type":"bytes32","internalType":"bytes32"}],"stateMutability":"view"},{"type":"function","name":"adminRefundEscrow","inputs":[{"name":"sessionKey","type":"bytes32","internalType":"bytes32"},{"name":"recipient","type":"address","internalType":"address"}],"outputs":[],"stateMutability":"nonpayable"},{"type":"function","name":"balances","inputs":[{"name":"","type":"address","internalType":"address"}],"outputs":[{"name":"","type":"uint256","internalType":"uint256"}],"stateMutability":"view"},{"type":"function","name":"degenshoot","inputs":[],"outputs":[{"name":"","type":"address","internalType":"address"}],"stateMutability":"view"},{"type":"function","name":"escrow","inputs":[{"name":"","type":"bytes32","internalType":"bytes32"}],"outputs":[{"name":"","type":"uint256","internalType":"uint256"}],"stateMutability":"view"},{"type":"function","name":"gameId","inputs":[],"outputs":[{"name":"","type":"uint256","internalType":"uint256"}],"stateMutability":"view"},{"type":"function","name":"getRoleAdmin","inputs":[{"name":"role","type":"bytes32","internalType":"bytes32"}],"outputs":[{"name":"","type":"bytes32","internalType":"bytes32"}],"stateMutability":"view"},{"type":"function","name":"grantRole","inputs":[{"name":"role","type":"bytes32","internalType":"bytes32"},{"name":"account","type":"address","internalType":"address"}],"outputs":[],"stateMutability":"nonpayable"},{"type":"function","name":"hasRole","inputs":[{"name":"role","type":"bytes32","internalType":"bytes32"},{"name":"account","type":"address","internalType":"address"}],"outputs":[{"name":"","type":"bool","internalType":"bool"}],"stateMutability":"view"},{"type":"function","name":"houseFeeBps","inputs":[],"outputs":[{"name":"","type":"uint16","internalType":"uint16"}],"stateMutability":"view"},{"type":"function","name":"placeBet","inputs":[{"name":"sessionId","type":"uint64","internalType":"uint64"}],"outputs":[],"stateMutability":"payable"},{"type":"function","name":"renounceRole","inputs":[{"name":"role","type":"bytes32","internalType":"bytes32"},{"name":"callerConfirmation","type":"address","internalType":"address"}],"outputs":[],"stateMutability":"nonpayable"},{"type":"function","name":"revokeRole","inputs":[{"name":"role","type":"bytes32","internalType":"bytes32"},{"name":"account","type":"address","internalType":"address"}],"outputs":[],"stateMutability":"nonpayable"},{"type":"function","name":"setHouseFeeBps","inputs":[{"name":"newFeeBps","type":"uint16","internalType":"uint16"}],"outputs":[],"stateMutability":"nonpayable"},{"type":"function","name":"setTreasury","inputs":[{"name":"newTreasury","type":"address","internalType":"address"}],"outputs":[],"stateMutability":"nonpayable"},{"type":"function","name":"settle","inputs":[{"name":"user","type":"address","internalType":"address"},{"name":"sessionId","type":"uint64","internalType":"uint64"},{"name":"submittedGameId","type":"uint256","internalType":"uint256"},{"name":"multiplierX100","type":"uint256","internalType":"uint256"}],"outputs":[],"stateMutability":"nonpayable"},{"type":"function","name":"settled","inputs":[{"name":"","type":"bytes32","internalType":"bytes32"}],"outputs":[{"name":"","type":"bool","internalType":"bool"}],"stateMutability":"view"},{"type":"function","name":"supportsInterface","inputs":[{"name":"interfaceId","type":"bytes4","internalType":"bytes4"}],"outputs":[{"name":"","type":"bool","internalType":"bool"}],"stateMutability":"view"},{"type":"function","name":"treasury","inputs":[],"outputs":[{"name":"","type":"address","internalType":"address"}],"stateMutability":"view"},{"type":"function","name":"withdraw","inputs":[{"name":"amount","type":"uint256","internalType":"uint256"}],"outputs":[],"stateMutability":"nonpayable"},{"type":"event","name":"BetPlaced","inputs":[{"name":"bettor","type":"address","indexed":true,"internalType":"address"},{"name":"sessionKey","type":"bytes32","indexed":true,"internalType":"bytes32"},{"name":"amount","type":"uint256","indexed":false,"internalType":"uint256"}],"anonymous":false},{"type":"event","name":"EscrowRefunded","inputs":[{"name":"sessionKey","type":"bytes32","indexed":true,"internalType":"bytes32"},{"name":"recipient","type":"address","indexed":true,"internalType":"address"},{"name":"amount","type":"uint256","indexed":false,"internalType":"uint256"}],"anonymous":false},{"type":"event","name":"FeeUpdated","inputs":[{"name":"previousFeeBps","type":"uint16","indexed":false,"internalType":"uint16"},{"name":"newFeeBps","type":"uint16","indexed":false,"internalType":"uint16"}],"anonymous":false},{"type":"event","name":"RoleAdminChanged","inputs":[{"name":"role","type":"bytes32","indexed":true,"internalType":"bytes32"},{"name":"previousAdminRole","type":"bytes32","indexed":true,"internalType":"bytes32"},{"name":"newAdminRole","type":"bytes32","indexed":true,"internalType":"bytes32"}],"anonymous":false},{"type":"event","name":"RoleGranted","inputs":[{"name":"role","type":"bytes32","indexed":true,"internalType":"bytes32"},{"name":"account","type":"address","indexed":true,"internalType":"address"},{"name":"sender","type":"address","indexed":true,"internalType":"address"}],"anonymous":false},{"type":"event","name":"RoleRevoked","inputs":[{"name":"role","type":"bytes32","indexed":true,"internalType":"bytes32"},{"name":"account","type":"address","indexed":true,"internalType":"address"},{"name":"sender","type":"address","indexed":true,"internalType":"address"}],"anonymous":false},{"type":"event","name":"Settled","inputs":[{"name":"user","type":"address","indexed":true,"internalType":"address"},{"name":"sessionId","type":"uint64","indexed":true,"internalType":"uint64"},{"name":"gameId","type":"uint256","indexed":true,"internalType":"uint256"},{"name":"stake","type":"uint256","indexed":false,"internalType":"uint256"},{"name":"gross","type":"uint256","indexed":false,"internalType":"uint256"},{"name":"fee","type":"uint256","indexed":false,"internalType":"uint256"},{"name":"net","type":"uint256","indexed":false,"internalType":"uint256"}],"anonymous":false},{"type":"event","name":"TreasuryUpdated","inputs":[{"name":"previousTreasury","type":"address","indexed":true,"internalType":"address"},{"name":"newTreasury","type":"address","indexed":true,"internalType":"address"}],"anonymous":false},{"type":"event","name":"Withdrawn","inputs":[{"name":"user","type":"address","indexed":true,"internalType":"address"},{"name":"amount","type":"uint256","indexed":false,"internalType":"uint256"}],"anonymous":false},{"type":"error","name":"AccessControlBadConfirmation","inputs":[]},{"type":"error","name":"AccessControlUnauthorizedAccount","inputs":[{"name":"account","type":"address","internalType":"address"},{"name":"neededRole","type":"bytes32","internalType":"bytes32"}]},{"type":"error","name":"AlreadySettled","inputs":[]},{"type":"error","name":"BetAlreadyPlaced","inputs":[]},{"type":"error","name":"InvalidAmount","inputs":[]},{"type":"error","name":"InvalidFee","inputs":[]},{"type":"error","name":"InvalidRecipient","inputs":[]},{"type":"error","name":"InvalidTreasury","inputs":[]},{"type":"error","name":"NoEscrow","inputs":[]},{"type":"error","name":"ReentrancyGuardReentrantCall","inputs":[]},{"type":"error","name":"SessionConsumed","inputs":[]},{"type":"error","name":"SessionNotVerified","inputs":[]}],"bytecode":{"object":"0x60c0604090808252346200018957608081620011ad8038038091620000258285620001d8565b83398101031262000189576200003b8162000210565b620000496020830162000210565b9060606200005985850162000210565b9301519161ffff8316938484036200018957600180556001600160a01b038381169590949086158015620001cd575b8015620001c2575b620001b15761271010620001a0576080839052600280546001600160b01b0319169286169290921760a09190911b61ffff60a01b16179055845163d7c81b5560e01b81529260209184916004918391165afa801562000196575f9062000157575b62000100925060a05262000225565b50330362000145575b51610ee59081620002a8823960805181818161045a015281816106040152610832015260a0518181816101fb0152818161042101526108660152f35b620001503362000225565b5062000109565b506020823d6020116200018d575b816200017460209383620001d8565b810103126200018957620001009151620000f1565b5f80fd5b3d915062000165565b84513d5f823e3d90fd5b86516358d620b360e01b8152600490fd5b87516302979eb960e31b8152600490fd5b508583161562000090565b508584161562000088565b601f909101601f19168101906001600160401b03821190821017620001fc57604052565b634e487b7160e01b5f52604160045260245ffd5b51906001600160a01b03821682036200018957565b6001600160a01b03165f8181525f805160206200118d833981519152602052604090205460ff16620002a2575f8181525f805160206200118d83398151915260205260408120805460ff191660011790553391907f2f8788117e7eff1d82e926ec794901d17c78024a50270940304540a733656f0d8180a4600190565b505f9056fe608060409080825260049081361015610022575b5050503615610020575f80fd5b005b5f3560e01c90816301ffc9a714610bbd575080630b4bf6f014610b2a57806321bd7ffa146107ed578063248a9ca3146107c357806327e235e31461078d5780632e1a7d4d146106a15780632f2ff15d1461067857806336568abe14610633578063373ee9ae146105f057806361d027b3146105c85780636796debf146103e357806391d148541461039f578063a217fddf14610385578063a7e750321461035d578063af8cdd8414610258578063d547741f1461021e578063d7c81b55146101e4578063d945af1d146101b7578063ee59d240146101925763f0f442601461010a5780610013565b3461018e57602036600319011261018e57610123610c0f565b9061012c610d09565b6001600160a01b03918216928315610181575050600254826bffffffffffffffffffffffff60a01b821617600255167f4ab5be82436d353e61ca18726e984e561f5c1cc7c6d38b29d2553c790434705a5f80a3005b516302979eb960e31b8152fd5b5f80fd5b823461018e575f36600319011261018e5760209061ffff60025460a01c169051908152f35b50903461018e57602036600319011261018e57602091355f526005825260ff815f20541690519015158152f35b823461018e575f36600319011261018e57602090517f00000000000000000000000000000000000000000000000000000000000000008152f35b50903461018e578060031936011261018e5761002091356102536001610242610c25565b93835f525f6020525f200154610d5f565b610e3d565b50903461018e578060031936011261018e57813590610275610c25565b9061027e610d09565b610286610d9e565b6001600160a01b03821693841561034f57835f526003602052815f2054928315610340575f8080868194898352600360205282888120555af16102c7610cca565b50156102fe57507ffc31a7ddbe933aa6e67f3c98c183fbc87addd2b602fcfb10238d2f85cf0266179160209151908152a360018055005b6020606492519162461bcd60e51b8352820152601960248201527f57616765725661756c743a20726566756e64206661696c6564000000000000006044820152fd5b50905163769cabf160e01b8152fd5b9051634e46966960e11b8152fd5b50903461018e57602036600319011261018e57602091355f5260038252805f20549051908152f35b823461018e575f36600319011261018e57602090515f8152f35b50903461018e578060031936011261018e576020916103bc610c25565b90355f525f8352815f209060018060a01b03165f52825260ff815f20541690519015158152f35b50906020908160031936011261018e57823567ffffffffffffffff8116810361018e5734156105b857815163675676c960e11b8152338186019081527f0000000000000000000000000000000000000000000000000000000000000000602082015267ffffffffffffffff909216604083015293907f00000000000000000000000000000000000000000000000000000000000000006001600160a01b0316908490869081906060010381845afa948515610571575f95610589575b50845f526005845260ff835f20541661057b5783602491845192838092635baede1960e11b825289878301525afa908115610571575f91610544575b5061053657835f5260038352815f205461052857507fe9a2cbce8726843bc0e7ed0322f7fdfbc3a351f26352fcd9c6eb888b57d3daff90835f526003835234815f205551913483523392a3005b90516318ade6cb60e21b8152fd5b905163c41aba6f60e01b8152fd5b6105649150843d861161056a575b61055c8183610c3b565b810190610c71565b5f6104db565b503d610552565b83513d5f823e3d90fd5b50905162560ff960e81b8152fd5b9094508381813d83116105b1575b6105a18183610c3b565b8101031261018e5751935f61049f565b503d610597565b815163162908e360e11b81528490fd5b823461018e575f36600319011261018e5760025490516001600160a01b039091168152602090f35b823461018e575f36600319011261018e57517f00000000000000000000000000000000000000000000000000000000000000006001600160a01b03168152602090f35b50903461018e578060031936011261018e5761064d610c25565b90336001600160a01b0383160361066957506100209135610e3d565b5163334bd91960e11b81529050fd5b50903461018e578060031936011261018e57610020913561069c6001610242610c25565b610dc1565b50903461018e57602036600319011261018e578135916106bf610d9e565b8215801561077a575b61076c57335f5280602052815f206106e1848254610cb0565b90555f80808086335af16106f3610cca565b501561072a5750519081527f7084f5476618d8e60b11ef0d7d3f06914655adb8793e28ff7f018d4c76d505d560203392a260018055005b6020606492519162461bcd60e51b8352820152601b60248201527f57616765725661756c743a207769746864726177206661696c656400000000006044820152fd5b905163162908e360e11b8152fd5b50335f5280602052815f205483116106c8565b50903461018e57602036600319011261018e576020916001600160a01b036107b3610c0f565b165f528252805f20549051908152f35b50903461018e57602036600319011261018e57602091355f525f82526001815f2001549051908152f35b503461018e57608036600319011261018e57610807610c0f565b6024359167ffffffffffffffff83169182840361018e5760643594604435946001600160a01b0391907f000000000000000000000000000000000000000000000000000000000000000083169033829003610ae757610864610d9e565b7f00000000000000000000000000000000000000000000000000000000000000008803610ad7578815610ac757825163675676c960e11b81526001600160a01b03861681880190815260208181018b905267ffffffffffffffff90931660408201529899979896979096919290918390889081906060010381845afa968715610a8e575f97610a98575b5082602491855192838092635baede1960e11b82528b8d8301525afa908115610a8e575f91610a71575b5015610a6157855f526005825260ff835f205416610a5257855f5260038252825f2054958615610a425791606461099460809795937f3f750183ed7ae8381e50c294655cf53f1e30e2d301109bdce137cb551016bb4e9997955f5260058452845f20600160ff19825416179055600384525f8581205587610c89565b04906127106109ac61ffff60025460a01c1684610c89565b0493806109b98685610cb0565b9616998a5f52808352845f206109d0888254610cbd565b905585610a23575b8784106109f9575b505082519586528501528301526060820152a460018055005b610a038489610cb0565b91600254165f528252610a1a845f20918254610cbd565b90555f806109e0565b81600254165f52808352845f20610a3b878254610cbd565b90556109d8565b835163769cabf160e01b81528890fd5b825162560ff960e81b81528790fd5b8251637c5f015360e01b81528790fd5b610a889150833d851161056a5761055c8183610c3b565b5f610918565b84513d5f823e3d90fd5b9096508281813d8311610ac0575b610ab08183610c3b565b8101031261018e575195826108ee565b503d610aa6565b825163162908e360e11b81528690fd5b8251637c5f015360e01b81528690fd5b825162461bcd60e51b8152602081880152601a60248201527f57616765725661756c743a206e6f7420646567656e73686f6f740000000000006044820152606490fd5b50903461018e57602036600319011261018e57813561ffff8082169081830361018e57610b55610d09565b6127108211610bad576002805461ffff60a01b19811660a095861b61ffff60a01b16179091558451931c16825260208201527f2e7c4279000925b8ff0bca0e7109cbc47fc6f6c4edfb831ffe7466cf0af07fa09250a1005b505050516358d620b360e01b8152fd5b823461018e57602036600319011261018e57359063ffffffff60e01b821680920361018e57602091637965db0b60e01b8114908115610bfe575b5015158152f35b6301ffc9a760e01b14905083610bf7565b600435906001600160a01b038216820361018e57565b602435906001600160a01b038216820361018e57565b90601f8019910116810190811067ffffffffffffffff821117610c5d57604052565b634e487b7160e01b5f52604160045260245ffd5b9081602091031261018e5751801515810361018e5790565b81810292918115918404141715610c9c57565b634e487b7160e01b5f52601160045260245ffd5b91908203918211610c9c57565b91908201809211610c9c57565b3d15610d04573d9067ffffffffffffffff8211610c5d5760405191610cf9601f8201601f191660200184610c3b565b82523d5f602084013e565b606090565b335f9081527fad3228b676f7d3cd4284a5443f17f1962b36e491b30a40b2405849e597ba5fb5602052604090205460ff1615610d4157565b60405163e2517d3f60e01b81523360048201525f6024820152604490fd5b805f525f60205260405f20335f5260205260ff60405f20541615610d805750565b6044906040519063e2517d3f60e01b82523360048301526024820152fd5b600260015414610daf576002600155565b604051633ee5aeb560e01b8152600490fd5b90815f525f60205260405f209060018060a01b031690815f5260205260ff60405f205416155f14610e3757815f525f60205260405f20815f5260205260405f20600160ff1982541617905533917f2f8788117e7eff1d82e926ec794901d17c78024a50270940304540a733656f0d5f80a4600190565b50505f90565b90815f525f60205260405f209060018060a01b031690815f5260205260ff60405f2054165f14610e3757815f525f60205260405f20815f5260205260405f2060ff19815416905533917ff6391f5c32d9c69d2a47ea670b442974b53935d1edc7fd64eb21e047a839171b5f80a460019056fea2646970667358221220d4ffbc3a5b0cab33cbed062e7ed13f37dd7934be0293c5be86f038b48850583064736f6c63430008180033ad3228b676f7d3cd4284a5443f17f1962b36e491b30a40b2405849e597ba5fb5","linkReferences":{}},"methodIdentifiers":{"DEFAULT_ADMIN_ROLE()":"a217fddf","adminRefundEscrow(bytes32,address)":"af8cdd84","balances(address)":"27e235e3","degenshoot()":"373ee9ae","escrow(bytes32)":"a7e75032","gameId()":"d7c81b55","getRoleAdmin(bytes32)":"248a9ca3","grantRole(bytes32,address)":"2f2ff15d","hasRole(bytes32,address)":"91d14854","houseFeeBps()":"ee59d240","placeBet(uint64)":"6796debf","renounceRole(bytes32,address)":"36568abe","revokeRole(bytes32,address)":"d547741f","setHouseFeeBps(uint16)":"0b4bf6f0","setTreasury(address)":"f0f44260","settle(address,uint64,uint256,uint256)":"21bd7ffa","settled(bytes32)":"d945af1d","supportsInterface(bytes4)":"01ffc9a7","treasury()":"61d027b3","withdraw(uint256)":"2e1a7d4d"},"id":46}