{"abi":[{"type":"constructor","inputs":[{"name":"admin","type":"address","internalType":"address"},{"name":"degenshootContract","type":"address","internalType":"address"},{"name":"treasuryAddress","type":"address","internalType":"address"},{"name":"feeBps","type":"uint16","internalType":"uint16"}],"stateMutability":"nonpayable"},{"type":"receive","stateMutability":"payable"},{"type":"function","name":"DEFAULT_ADMIN_ROLE","inputs":[],"outputs":[{"name":"","type":"bytes32","internalType":"bytes32"}],"stateMutability":"view"},{"type":"function","name":"adminRefundEscrow","inputs":[{"name":"sessionKey","type":"bytes32","internalType":"bytes32"},{"name":"recipient","type":"address","internalType":"address"}],"outputs":[],"stateMutability":"nonpayable"},{"type":"function","name":"balances","inputs":[{"name":"","type":"address","internalType":"address"}],"outputs":[{"name":"","type":"uint256","internalType":"uint256"}],"stateMutability":"view"},{"type":"function","name":"degenshoot","inputs":[],"outputs":[{"name":"","type":"address","internalType":"address"}],"stateMutability":"view"},{"type":"function","name":"emergencyWithdraw","inputs":[{"name":"recipient","type":"address","internalType":"address"}],"outputs":[],"stateMutability":"nonpayable"},{"type":"function","name":"escrow","inputs":[{"name":"","type":"bytes32","internalType":"bytes32"}],"outputs":[{"name":"","type":"uint256","internalType":"uint256"}],"stateMutability":"view"},{"type":"function","name":"gameId","inputs":[],"outputs":[{"name":"","type":"uint256","internalType":"uint256"}],"stateMutability":"view"},{"type":"function","name":"getRoleAdmin","inputs":[{"name":"role","type":"bytes32","internalType":"bytes32"}],"outputs":[{"name":"","type":"bytes32","internalType":"bytes32"}],"stateMutability":"view"},{"type":"function","name":"grantRole","inputs":[{"name":"role","type":"bytes32","internalType":"bytes32"},{"name":"account","type":"address","internalType":"address"}],"outputs":[],"stateMutability":"nonpayable"},{"type":"function","name":"hasRole","inputs":[{"name":"role","type":"bytes32","internalType":"bytes32"},{"name":"account","type":"address","internalType":"address"}],"outputs":[{"name":"","type":"bool","internalType":"bool"}],"stateMutability":"view"},{"type":"function","name":"houseFeeBps","inputs":[],"outputs":[{"name":"","type":"uint16","internalType":"uint16"}],"stateMutability":"view"},{"type":"function","name":"placeBet","inputs":[{"name":"sessionId","type":"uint64","internalType":"uint64"}],"outputs":[],"stateMutability":"payable"},{"type":"function","name":"renounceRole","inputs":[{"name":"role","type":"bytes32","internalType":"bytes32"},{"name":"callerConfirmation","type":"address","internalType":"address"}],"outputs":[],"stateMutability":"nonpayable"},{"type":"function","name":"revokeRole","inputs":[{"name":"role","type":"bytes32","internalType":"bytes32"},{"name":"account","type":"address","internalType":"address"}],"outputs":[],"stateMutability":"nonpayable"},{"type":"function","name":"setHouseFeeBps","inputs":[{"name":"newFeeBps","type":"uint16","internalType":"uint16"}],"outputs":[],"stateMutability":"nonpayable"},{"type":"function","name":"setTreasury","inputs":[{"name":"newTreasury","type":"address","internalType":"address"}],"outputs":[],"stateMutability":"nonpayable"},{"type":"function","name":"settle","inputs":[{"name":"user","type":"address","internalType":"address"},{"name":"sessionId","type":"uint64","internalType":"uint64"},{"name":"submittedGameId","type":"uint256","internalType":"uint256"},{"name":"multiplierX100","type":"uint256","internalType":"uint256"}],"outputs":[],"stateMutability":"nonpayable"},{"type":"function","name":"settled","inputs":[{"name":"","type":"bytes32","internalType":"bytes32"}],"outputs":[{"name":"","type":"bool","internalType":"bool"}],"stateMutability":"view"},{"type":"function","name":"supportsInterface","inputs":[{"name":"interfaceId","type":"bytes4","internalType":"bytes4"}],"outputs":[{"name":"","type":"bool","internalType":"bool"}],"stateMutability":"view"},{"type":"function","name":"treasury","inputs":[],"outputs":[{"name":"","type":"address","internalType":"address"}],"stateMutability":"view"},{"type":"function","name":"withdraw","inputs":[{"name":"amount","type":"uint256","internalType":"uint256"}],"outputs":[],"stateMutability":"nonpayable"},{"type":"event","name":"BetPlaced","inputs":[{"name":"bettor","type":"address","indexed":true,"internalType":"address"},{"name":"sessionKey","type":"bytes32","indexed":true,"internalType":"bytes32"},{"name":"amount","type":"uint256","indexed":false,"internalType":"uint256"}],"anonymous":false},{"type":"event","name":"EmergencyWithdrawal","inputs":[{"name":"recipient","type":"address","indexed":true,"internalType":"address"},{"name":"amount","type":"uint256","indexed":false,"internalType":"uint256"}],"anonymous":false},{"type":"event","name":"EscrowRefunded","inputs":[{"name":"sessionKey","type":"bytes32","indexed":true,"internalType":"bytes32"},{"name":"recipient","type":"address","indexed":true,"internalType":"address"},{"name":"amount","type":"uint256","indexed":false,"internalType":"uint256"}],"anonymous":false},{"type":"event","name":"FeeUpdated","inputs":[{"name":"previousFeeBps","type":"uint16","indexed":false,"internalType":"uint16"},{"name":"newFeeBps","type":"uint16","indexed":false,"internalType":"uint16"}],"anonymous":false},{"type":"event","name":"RoleAdminChanged","inputs":[{"name":"role","type":"bytes32","indexed":true,"internalType":"bytes32"},{"name":"previousAdminRole","type":"bytes32","indexed":true,"internalType":"bytes32"},{"name":"newAdminRole","type":"bytes32","indexed":true,"internalType":"bytes32"}],"anonymous":false},{"type":"event","name":"RoleGranted","inputs":[{"name":"role","type":"bytes32","indexed":true,"internalType":"bytes32"},{"name":"account","type":"address","indexed":true,"internalType":"address"},{"name":"sender","type":"address","indexed":true,"internalType":"address"}],"anonymous":false},{"type":"event","name":"RoleRevoked","inputs":[{"name":"role","type":"bytes32","indexed":true,"internalType":"bytes32"},{"name":"account","type":"address","indexed":true,"internalType":"address"},{"name":"sender","type":"address","indexed":true,"internalType":"address"}],"anonymous":false},{"type":"event","name":"Settled","inputs":[{"name":"user","type":"address","indexed":true,"internalType":"address"},{"name":"sessionId","type":"uint64","indexed":true,"internalType":"uint64"},{"name":"gameId","type":"uint256","indexed":true,"internalType":"uint256"},{"name":"stake","type":"uint256","indexed":false,"internalType":"uint256"},{"name":"gross","type":"uint256","indexed":false,"internalType":"uint256"},{"name":"fee","type":"uint256","indexed":false,"internalType":"uint256"},{"name":"net","type":"uint256","indexed":false,"internalType":"uint256"}],"anonymous":false},{"type":"event","name":"TreasuryUpdated","inputs":[{"name":"previousTreasury","type":"address","indexed":true,"internalType":"address"},{"name":"newTreasury","type":"address","indexed":true,"internalType":"address"}],"anonymous":false},{"type":"event","name":"Withdrawn","inputs":[{"name":"user","type":"address","indexed":true,"internalType":"address"},{"name":"amount","type":"uint256","indexed":false,"internalType":"uint256"}],"anonymous":false},{"type":"error","name":"AccessControlBadConfirmation","inputs":[]},{"type":"error","name":"AccessControlUnauthorizedAccount","inputs":[{"name":"account","type":"address","internalType":"address"},{"name":"neededRole","type":"bytes32","internalType":"bytes32"}]},{"type":"error","name":"AlreadySettled","inputs":[]},{"type":"error","name":"BetAlreadyPlaced","inputs":[]},{"type":"error","name":"InvalidAmount","inputs":[]},{"type":"error","name":"InvalidFee","inputs":[]},{"type":"error","name":"InvalidRecipient","inputs":[]},{"type":"error","name":"InvalidTreasury","inputs":[]},{"type":"error","name":"NoEscrow","inputs":[]},{"type":"error","name":"ReentrancyGuardReentrantCall","inputs":[]},{"type":"error","name":"SessionConsumed","inputs":[]},{"type":"error","name":"SessionNotVerified","inputs":[]}],"bytecode":{"object":"0x60c0604090808252346200018957608081620012ce8038038091620000258285620001d8565b83398101031262000189576200003b8162000210565b620000496020830162000210565b9060606200005985850162000210565b9301519161ffff8316938484036200018957600180556001600160a01b038381169590949086158015620001cd575b8015620001c2575b620001b15761271010620001a0576080839052600280546001600160b01b0319169286169290921760a09190911b61ffff60a01b16179055845163d7c81b5560e01b81529260209184916004918391165afa801562000196575f9062000157575b62000100925060a05262000225565b50330362000145575b516110069081620002a8823960805181818161057b015281816107250152610953015260a0518181816102060152818161054201526109870152f35b620001503362000225565b5062000109565b506020823d6020116200018d575b816200017460209383620001d8565b810103126200018957620001009151620000f1565b5f80fd5b3d915062000165565b84513d5f823e3d90fd5b86516358d620b360e01b8152600490fd5b87516302979eb960e31b8152600490fd5b508583161562000090565b508584161562000088565b601f909101601f19168101906001600160401b03821190821017620001fc57604052565b634e487b7160e01b5f52604160045260245ffd5b51906001600160a01b03821682036200018957565b6001600160a01b03165f8181525f80516020620012ae833981519152602052604090205460ff16620002a2575f8181525f80516020620012ae83398151915260205260408120805460ff191660011790553391907f2f8788117e7eff1d82e926ec794901d17c78024a50270940304540a733656f0d8180a4600190565b505f9056fe608060409080825260049081361015610022575b5050503615610020575f80fd5b005b5f3560e01c90816301ffc9a714610cde575080630b4bf6f014610c4b57806321bd7ffa1461090e578063248a9ca3146108e457806327e235e3146108ae5780632e1a7d4d146107c25780632f2ff15d1461079957806336568abe14610754578063373ee9ae1461071157806361d027b3146106e95780636796debf146105045780636ff1c9bc146103ee57806391d14854146103aa578063a217fddf14610390578063a7e7503214610368578063af8cdd8414610263578063d547741f14610229578063d7c81b55146101ef578063d945af1d146101c2578063ee59d2401461019d5763f0f44260146101155780610013565b346101995760203660031901126101995761012e610d30565b90610137610e2a565b6001600160a01b0391821692831561018c575050600254826bffffffffffffffffffffffff60a01b821617600255167f4ab5be82436d353e61ca18726e984e561f5c1cc7c6d38b29d2553c790434705a5f80a3005b516302979eb960e31b8152fd5b5f80fd5b8234610199575f3660031901126101995760209061ffff60025460a01c169051908152f35b50903461019957602036600319011261019957602091355f526005825260ff815f20541690519015158152f35b8234610199575f36600319011261019957602090517f00000000000000000000000000000000000000000000000000000000000000008152f35b509034610199578060031936011261019957610020913561025e600161024d610d46565b93835f525f6020525f200154610e80565b610f5e565b509034610199578060031936011261019957813590610280610d46565b90610289610e2a565b610291610ebf565b6001600160a01b03821693841561035a57835f526003602052815f205492831561034b575f8080868194898352600360205282888120555af16102d2610deb565b501561030957507ffc31a7ddbe933aa6e67f3c98c183fbc87addd2b602fcfb10238d2f85cf0266179160209151908152a360018055005b6020606492519162461bcd60e51b8352820152601960248201527f57616765725661756c743a20726566756e64206661696c6564000000000000006044820152fd5b50905163769cabf160e01b8152fd5b9051634e46966960e11b8152fd5b50903461019957602036600319011261019957602091355f5260038252805f20549051908152f35b8234610199575f36600319011261019957602090515f8152f35b5090346101995780600319360112610199576020916103c7610d46565b90355f525f8352815f209060018060a01b03165f52825260ff815f20541690519015158152f35b50903461019957602036600319011261019957610409610d30565b90610412610e2a565b61041a610ebf565b6001600160a01b03821692831561035a57479283156104ca575f80808681945af1610443610deb565b501561047a57507f23d6711a1d031134a36921253c75aa59e967d38e369ac625992824315e204f209160209151908152a260018055005b6020608492519162461bcd60e51b8352820152602560248201527f57616765725661756c743a20656d657267656e63792077697468647261772066604482015264185a5b195960da1b6064820152fd5b506020606492519162461bcd60e51b8352820152601460248201527357616765725661756c743a206e6f2066756e647360601b6044820152fd5b50906020908160031936011261019957823567ffffffffffffffff811681036101995734156106d957815163675676c960e11b8152338186019081527f0000000000000000000000000000000000000000000000000000000000000000602082015267ffffffffffffffff909216604083015293907f00000000000000000000000000000000000000000000000000000000000000006001600160a01b0316908490869081906060010381845afa948515610692575f956106aa575b50845f526005845260ff835f20541661069c5783602491845192838092635baede1960e11b825289878301525afa908115610692575f91610665575b5061065757835f5260038352815f205461064957507fe9a2cbce8726843bc0e7ed0322f7fdfbc3a351f26352fcd9c6eb888b57d3daff90835f526003835234815f205551913483523392a3005b90516318ade6cb60e21b8152fd5b905163c41aba6f60e01b8152fd5b6106859150843d861161068b575b61067d8183610d5c565b810190610d92565b5f6105fc565b503d610673565b83513d5f823e3d90fd5b50905162560ff960e81b8152fd5b9094508381813d83116106d2575b6106c28183610d5c565b810103126101995751935f6105c0565b503d6106b8565b815163162908e360e11b81528490fd5b8234610199575f3660031901126101995760025490516001600160a01b039091168152602090f35b8234610199575f36600319011261019957517f00000000000000000000000000000000000000000000000000000000000000006001600160a01b03168152602090f35b50903461019957806003193601126101995761076e610d46565b90336001600160a01b0383160361078a57506100209135610f5e565b5163334bd91960e11b81529050fd5b50903461019957806003193601126101995761002091356107bd600161024d610d46565b610ee2565b509034610199576020366003190112610199578135916107e0610ebf565b8215801561089b575b61088d57335f5280602052815f20610802848254610dd1565b90555f80808086335af1610814610deb565b501561084b5750519081527f7084f5476618d8e60b11ef0d7d3f06914655adb8793e28ff7f018d4c76d505d560203392a260018055005b6020606492519162461bcd60e51b8352820152601b60248201527f57616765725661756c743a207769746864726177206661696c656400000000006044820152fd5b905163162908e360e11b8152fd5b50335f5280602052815f205483116107e9565b509034610199576020366003190112610199576020916001600160a01b036108d4610d30565b165f528252805f20549051908152f35b50903461019957602036600319011261019957602091355f525f82526001815f2001549051908152f35b503461019957608036600319011261019957610928610d30565b6024359167ffffffffffffffff8316918284036101995760643594604435946001600160a01b0391907f000000000000000000000000000000000000000000000000000000000000000083169033829003610c0857610985610ebf565b7f00000000000000000000000000000000000000000000000000000000000000008803610bf8578815610be857825163675676c960e11b81526001600160a01b03861681880190815260208181018b905267ffffffffffffffff90931660408201529899979896979096919290918390889081906060010381845afa968715610baf575f97610bb9575b5082602491855192838092635baede1960e11b82528b8d8301525afa908115610baf575f91610b92575b5015610b8257855f526005825260ff835f205416610b7357855f5260038252825f2054958615610b6357916064610ab560809795937f3f750183ed7ae8381e50c294655cf53f1e30e2d301109bdce137cb551016bb4e9997955f5260058452845f20600160ff19825416179055600384525f8581205587610daa565b0490612710610acd61ffff60025460a01c1684610daa565b049380610ada8685610dd1565b9616998a5f52808352845f20610af1888254610dde565b905585610b44575b878410610b1a575b505082519586528501528301526060820152a460018055005b610b248489610dd1565b91600254165f528252610b3b845f20918254610dde565b90555f80610b01565b81600254165f52808352845f20610b5c878254610dde565b9055610af9565b835163769cabf160e01b81528890fd5b825162560ff960e81b81528790fd5b8251637c5f015360e01b81528790fd5b610ba99150833d851161068b5761067d8183610d5c565b5f610a39565b84513d5f823e3d90fd5b9096508281813d8311610be1575b610bd18183610d5c565b8101031261019957519582610a0f565b503d610bc7565b825163162908e360e11b81528690fd5b8251637c5f015360e01b81528690fd5b825162461bcd60e51b8152602081880152601a60248201527f57616765725661756c743a206e6f7420646567656e73686f6f740000000000006044820152606490fd5b50903461019957602036600319011261019957813561ffff8082169081830361019957610c76610e2a565b6127108211610cce576002805461ffff60a01b19811660a095861b61ffff60a01b16179091558451931c16825260208201527f2e7c4279000925b8ff0bca0e7109cbc47fc6f6c4edfb831ffe7466cf0af07fa09250a1005b505050516358d620b360e01b8152fd5b823461019957602036600319011261019957359063ffffffff60e01b821680920361019957602091637965db0b60e01b8114908115610d1f575b5015158152f35b6301ffc9a760e01b14905083610d18565b600435906001600160a01b038216820361019957565b602435906001600160a01b038216820361019957565b90601f8019910116810190811067ffffffffffffffff821117610d7e57604052565b634e487b7160e01b5f52604160045260245ffd5b90816020910312610199575180151581036101995790565b81810292918115918404141715610dbd57565b634e487b7160e01b5f52601160045260245ffd5b91908203918211610dbd57565b91908201809211610dbd57565b3d15610e25573d9067ffffffffffffffff8211610d7e5760405191610e1a601f8201601f191660200184610d5c565b82523d5f602084013e565b606090565b335f9081527fad3228b676f7d3cd4284a5443f17f1962b36e491b30a40b2405849e597ba5fb5602052604090205460ff1615610e6257565b60405163e2517d3f60e01b81523360048201525f6024820152604490fd5b805f525f60205260405f20335f5260205260ff60405f20541615610ea15750565b6044906040519063e2517d3f60e01b82523360048301526024820152fd5b600260015414610ed0576002600155565b604051633ee5aeb560e01b8152600490fd5b90815f525f60205260405f209060018060a01b031690815f5260205260ff60405f205416155f14610f5857815f525f60205260405f20815f5260205260405f20600160ff1982541617905533917f2f8788117e7eff1d82e926ec794901d17c78024a50270940304540a733656f0d5f80a4600190565b50505f90565b90815f525f60205260405f209060018060a01b031690815f5260205260ff60405f2054165f14610f5857815f525f60205260405f20815f5260205260405f2060ff19815416905533917ff6391f5c32d9c69d2a47ea670b442974b53935d1edc7fd64eb21e047a839171b5f80a460019056fea2646970667358221220b9d9eb53d0579d5cd121d9ee5427b868fb6e45d3e00719a7fa1c591106c4a0c664736f6c63430008180033ad3228b676f7d3cd4284a5443f17f1962b36e491b30a40b2405849e597ba5fb5","linkReferences":{}},"methodIdentifiers":{"DEFAULT_ADMIN_ROLE()":"a217fddf","adminRefundEscrow(bytes32,address)":"af8cdd84","balances(address)":"27e235e3","degenshoot()":"373ee9ae","emergencyWithdraw(address)":"6ff1c9bc","escrow(bytes32)":"a7e75032","gameId()":"d7c81b55","getRoleAdmin(bytes32)":"248a9ca3","grantRole(bytes32,address)":"2f2ff15d","hasRole(bytes32,address)":"91d14854","houseFeeBps()":"ee59d240","placeBet(uint64)":"6796debf","renounceRole(bytes32,address)":"36568abe","revokeRole(bytes32,address)":"d547741f","setHouseFeeBps(uint16)":"0b4bf6f0","setTreasury(address)":"f0f44260","settle(address,uint64,uint256,uint256)":"21bd7ffa","settled(bytes32)":"d945af1d","supportsInterface(bytes4)":"01ffc9a7","treasury()":"61d027b3","withdraw(uint256)":"2e1a7d4d"},"id":59}