{"abi":[{"type":"constructor","inputs":[],"stateMutability":"nonpayable"},{"type":"function","name":"MAX_FEE_BPS","inputs":[],"outputs":[{"name":"","type":"uint16","internalType":"uint16"}],"stateMutability":"view"},{"type":"function","name":"UPGRADE_INTERFACE_VERSION","inputs":[],"outputs":[{"name":"","type":"string","internalType":"string"}],"stateMutability":"view"},{"type":"function","name":"feeBps","inputs":[],"outputs":[{"name":"","type":"uint16","internalType":"uint16"}],"stateMutability":"view"},{"type":"function","name":"feeRecipient","inputs":[],"outputs":[{"name":"","type":"address","internalType":"address"}],"stateMutability":"view"},{"type":"function","name":"forwardImmediately","inputs":[],"outputs":[{"name":"","type":"bool","internalType":"bool"}],"stateMutability":"view"},{"type":"function","name":"initialize","inputs":[{"name":"_feeRecipient","type":"address","internalType":"address"},{"name":"_feeBps","type":"uint16","internalType":"uint16"},{"name":"_forwardImmediately","type":"bool","internalType":"bool"}],"outputs":[],"stateMutability":"nonpayable"},{"type":"function","name":"owner","inputs":[],"outputs":[{"name":"","type":"address","internalType":"address"}],"stateMutability":"view"},{"type":"function","name":"pause","inputs":[],"outputs":[],"stateMutability":"nonpayable"},{"type":"function","name":"paused","inputs":[],"outputs":[{"name":"","type":"bool","internalType":"bool"}],"stateMutability":"view"},{"type":"function","name":"proxiableUUID","inputs":[],"outputs":[{"name":"","type":"bytes32","internalType":"bytes32"}],"stateMutability":"view"},{"type":"function","name":"renounceOwnership","inputs":[],"outputs":[],"stateMutability":"nonpayable"},{"type":"function","name":"setFeeBps","inputs":[{"name":"_feeBps","type":"uint16","internalType":"uint16"}],"outputs":[],"stateMutability":"nonpayable"},{"type":"function","name":"setFeeRecipient","inputs":[{"name":"_recipient","type":"address","internalType":"address"}],"outputs":[],"stateMutability":"nonpayable"},{"type":"function","name":"setForwardMode","inputs":[{"name":"_forwardImmediately","type":"bool","internalType":"bool"}],"outputs":[],"stateMutability":"nonpayable"},{"type":"function","name":"transferERC20","inputs":[{"name":"token","type":"address","internalType":"address"},{"name":"to","type":"address","internalType":"address"},{"name":"amount","type":"uint256","internalType":"uint256"}],"outputs":[],"stateMutability":"nonpayable"},{"type":"function","name":"transferETH","inputs":[{"name":"to","type":"address","internalType":"address payable"}],"outputs":[],"stateMutability":"payable"},{"type":"function","name":"transferOwnership","inputs":[{"name":"newOwner","type":"address","internalType":"address"}],"outputs":[],"stateMutability":"nonpayable"},{"type":"function","name":"unpause","inputs":[],"outputs":[],"stateMutability":"nonpayable"},{"type":"function","name":"upgradeToAndCall","inputs":[{"name":"newImplementation","type":"address","internalType":"address"},{"name":"data","type":"bytes","internalType":"bytes"}],"outputs":[],"stateMutability":"payable"},{"type":"function","name":"withdrawERC20","inputs":[{"name":"token","type":"address","internalType":"address"},{"name":"amount","type":"uint256","internalType":"uint256"},{"name":"to","type":"address","internalType":"address"}],"outputs":[],"stateMutability":"nonpayable"},{"type":"function","name":"withdrawETH","inputs":[{"name":"amount","type":"uint256","internalType":"uint256"},{"name":"to","type":"address","internalType":"address payable"}],"outputs":[],"stateMutability":"nonpayable"},{"type":"event","name":"FeeBpsUpdated","inputs":[{"name":"oldBps","type":"uint16","indexed":false,"internalType":"uint16"},{"name":"newBps","type":"uint16","indexed":false,"internalType":"uint16"}],"anonymous":false},{"type":"event","name":"FeeCollected","inputs":[{"name":"token","type":"address","indexed":true,"internalType":"address"},{"name":"from","type":"address","indexed":true,"internalType":"address"},{"name":"to","type":"address","indexed":true,"internalType":"address"},{"name":"gross","type":"uint256","indexed":false,"internalType":"uint256"},{"name":"fee","type":"uint256","indexed":false,"internalType":"uint256"},{"name":"net","type":"uint256","indexed":false,"internalType":"uint256"}],"anonymous":false},{"type":"event","name":"FeeRecipientUpdated","inputs":[{"name":"oldRecipient","type":"address","indexed":true,"internalType":"address"},{"name":"newRecipient","type":"address","indexed":true,"internalType":"address"}],"anonymous":false},{"type":"event","name":"FeeWithdrawnETH","inputs":[{"name":"to","type":"address","indexed":true,"internalType":"address"},{"name":"amount","type":"uint256","indexed":false,"internalType":"uint256"}],"anonymous":false},{"type":"event","name":"FeeWithdrawnToken","inputs":[{"name":"token","type":"address","indexed":true,"internalType":"address"},{"name":"to","type":"address","indexed":true,"internalType":"address"},{"name":"amount","type":"uint256","indexed":false,"internalType":"uint256"}],"anonymous":false},{"type":"event","name":"ForwardModeUpdated","inputs":[{"name":"oldMode","type":"bool","indexed":false,"internalType":"bool"},{"name":"newMode","type":"bool","indexed":false,"internalType":"bool"}],"anonymous":false},{"type":"event","name":"Initialized","inputs":[{"name":"version","type":"uint64","indexed":false,"internalType":"uint64"}],"anonymous":false},{"type":"event","name":"OwnershipTransferred","inputs":[{"name":"previousOwner","type":"address","indexed":true,"internalType":"address"},{"name":"newOwner","type":"address","indexed":true,"internalType":"address"}],"anonymous":false},{"type":"event","name":"Paused","inputs":[{"name":"account","type":"address","indexed":false,"internalType":"address"}],"anonymous":false},{"type":"event","name":"Unpaused","inputs":[{"name":"account","type":"address","indexed":false,"internalType":"address"}],"anonymous":false},{"type":"event","name":"Upgraded","inputs":[{"name":"implementation","type":"address","indexed":true,"internalType":"address"}],"anonymous":false},{"type":"error","name":"AddressEmptyCode","inputs":[{"name":"target","type":"address","internalType":"address"}]},{"type":"error","name":"ERC1967InvalidImplementation","inputs":[{"name":"implementation","type":"address","internalType":"address"}]},{"type":"error","name":"ERC1967NonPayable","inputs":[]},{"type":"error","name":"EnforcedPause","inputs":[]},{"type":"error","name":"ExpectedPause","inputs":[]},{"type":"error","name":"FailedCall","inputs":[]},{"type":"error","name":"InvalidInitialization","inputs":[]},{"type":"error","name":"NotInitializing","inputs":[]},{"type":"error","name":"OwnableInvalidOwner","inputs":[{"name":"owner","type":"address","internalType":"address"}]},{"type":"error","name":"OwnableUnauthorizedAccount","inputs":[{"name":"account","type":"address","internalType":"address"}]},{"type":"error","name":"SafeERC20FailedOperation","inputs":[{"name":"token","type":"address","internalType":"address"}]},{"type":"error","name":"UUPSUnauthorizedCallContext","inputs":[]},{"type":"error","name":"UUPSUnsupportedProxiableUUID","inputs":[{"name":"slot","type":"bytes32","internalType":"bytes32"}]}],"bytecode":{"object":"0x60a06040523060805234801561001457600080fd5b5061001d610022565b6100d4565b7ff0c57e16840df040f15088dc2f81fe391c3923bec73e23a9662efc9c229c6a00805468010000000000000000900460ff16156100725760405163f92ee8a960e01b815260040160405180910390fd5b80546001600160401b03908116146100d15780546001600160401b0319166001600160401b0390811782556040519081527fc7f505b2f371ae2175ee4913f4499e1f2633a7b5936321eed1cdaeb6115181d29060200160405180910390a15b50565b6080516119fc6100fd60003960008181610f6501528181610f8e01526110cf01526119fc6000f3fe60806040526004361061012a5760003560e01c806363df1e3c116100ab5780639db5dbe41161006f5780639db5dbe414610347578063ad3cb1cc14610367578063d50f6bf0146103a5578063d55be8c6146103b8578063e74b981b146103ce578063f2fde38b146103ee57600080fd5b806363df1e3c1461029f578063681544fb146102c0578063715018a6146102e05780638456cb59146102f55780638da5cb5b1461030a57600080fd5b806346904840116100f257806346904840146101e05780634f1ef2861461021857806352d1902d1461022b5780635c975abb1461024e5780635fc3ea0b1461027f57600080fd5b8063023b1fc91461012f5780630ea2a4071461015157806324a9d8531461017157806336118b52146101ab5780633f4ba83a146101cb575b600080fd5b34801561013b57600080fd5b5061014f61014a366004611608565b61040e565b005b34801561015d57600080fd5b5061014f61016c366004611633565b6104c6565b34801561017d57600080fd5b5060005461019390600160a01b900461ffff1681565b60405161ffff90911681526020015b60405180910390f35b3480156101b757600080fd5b5061014f6101c6366004611663565b61052d565b3480156101d757600080fd5b5061014f6105d7565b3480156101ec57600080fd5b50600054610200906001600160a01b031681565b6040516001600160a01b0390911681526020016101a2565b61014f6102263660046116a9565b6105e9565b34801561023757600080fd5b50610240610608565b6040519081526020016101a2565b34801561025a57600080fd5b506000805160206119a78339815191525460ff165b60405190151581526020016101a2565b34801561028b57600080fd5b5061014f61029a36600461176d565b610625565b3480156102ab57600080fd5b5060005461026f90600160b01b900460ff1681565b3480156102cc57600080fd5b5061014f6102db3660046117af565b610724565b3480156102ec57600080fd5b5061014f6108fc565b34801561030157600080fd5b5061014f61090e565b34801561031657600080fd5b507f9016d09d72d40fdae2fd8ceac6b6234c7706214fd39c1cd1e609a0528c199300546001600160a01b0316610200565b34801561035357600080fd5b5061014f6103623660046117f4565b61091e565b34801561037357600080fd5b50610398604051806040016040528060058152602001640352e302e360dc1b81525081565b6040516101a29190611859565b61014f6103b336600461188c565b610bf0565b3480156103c457600080fd5b506101936103e881565b3480156103da57600080fd5b5061014f6103e936600461188c565b610d28565b3480156103fa57600080fd5b5061014f61040936600461188c565b610dc7565b610416610e05565b6103e861ffff821611156104605760405162461bcd60e51b815260206004820152600c60248201526b0cccaca40e8dede40d0d2ced60a31b60448201526064015b60405180910390fd5b6000805461ffff838116600160a01b81810261ffff60a01b1985161790945560408051949093049091168084526020840191909152917f8d10f5697a370f640ed5d474159aba3cc86e9bc260a5e9d2db875ad992cb1a1f91015b60405180910390a15050565b6104ce610e05565b6000805460ff60b01b198116600160b01b84151581810292909217909355604080519390920460ff1680151584526020840191909152917f0b679fddd43fbd1c9a7851778e665fb23bdb02cec02f4abd0f8960fe35d0ff3b91016104ba565b610535610e05565b6002600154036105575760405162461bcd60e51b8152600401610457906118a9565b60026001556001600160a01b0381166105825760405162461bcd60e51b8152600401610457906118d1565b61058c8183610e60565b806001600160a01b03167f20e9047b5fdbe719237cabcda1cbd1009f109c328c752bbc0c3f9f05ee108561836040516105c791815260200190565b60405180910390a2505060018055565b6105df610e05565b6105e7610efa565b565b6105f1610f5a565b6105fa82610fff565b6106048282611007565b5050565b60006106126110c4565b5060008051602061198783398151915290565b61062d610e05565b60026001540361064f5760405162461bcd60e51b8152600401610457906118a9565b60026001556001600160a01b0383166106945760405162461bcd60e51b81526020600482015260076024820152660746f6b656e3d360cc1b6044820152606401610457565b6001600160a01b0381166106ba5760405162461bcd60e51b8152600401610457906118d1565b6106ce6001600160a01b038416828461110d565b806001600160a01b0316836001600160a01b03167f44384d000b662486cf48768d9a7990994cdef0d9635c3feb1b9a29d84ddb04ed8460405161071391815260200190565b60405180910390a350506001805550565b600061072e61116c565b805490915060ff600160401b820416159067ffffffffffffffff166000811580156107565750825b905060008267ffffffffffffffff1660011480156107735750303b155b905081158015610781575080155b1561079f5760405163f92ee8a960e01b815260040160405180910390fd5b845467ffffffffffffffff1916600117855583156107c957845460ff60401b1916600160401b1785555b6001600160a01b0388166108105760405162461bcd60e51b815260206004820152600e60248201526d0666565526563697069656e743d360941b6044820152606401610457565b6103e861ffff881611156108555760405162461bcd60e51b815260206004820152600c60248201526b0cccaca40e8dede40d0d2ced60a31b6044820152606401610457565b61085e33611197565b6108666111a8565b61086e6111a8565b60018055600080546001600160a01b038a166001600160b01b031990911617600160a01b61ffff8a16021760ff60b01b1916600160b01b8815150217905583156108f257845460ff60401b19168555604051600181527fc7f505b2f371ae2175ee4913f4499e1f2633a7b5936321eed1cdaeb6115181d29060200160405180910390a15b5050505050505050565b610904610e05565b6105e760006111b0565b610916610e05565b6105e7611221565b6002600154036109405760405162461bcd60e51b8152600401610457906118a9565b600260015561094d61126a565b6001600160a01b03831661098d5760405162461bcd60e51b81526020600482015260076024820152660746f6b656e3d360cc1b6044820152606401610457565b6001600160a01b0382166109b35760405162461bcd60e51b8152600401610457906118d1565b600081116109ee5760405162461bcd60e51b81526020600482015260086024820152670616d6f756e743d360c41b6044820152606401610457565b6040516370a0823160e01b815230600482015283906000906001600160a01b038316906370a0823190602401602060405180830381865afa158015610a37573d6000803e3d6000fd5b505050506040513d601f19601f82011682018060405250810190610a5b91906118ef565b9050610a726001600160a01b03831633308661129b565b6040516370a0823160e01b81523060048201526000906001600160a01b038416906370a0823190602401602060405180830381865afa158015610ab9573d6000803e3d6000fd5b505050506040513d601f19601f82011682018060405250810190610add91906118ef565b90506000610aeb838361191e565b905060008111610b325760405162461bcd60e51b81526020600482015260126024820152711b9bc81d1bdad95b9cc81c9958d95a5d995960721b6044820152606401610457565b600080610b3e836112da565b9092509050610b576001600160a01b038716898361110d565b600082118015610b705750600054600160b01b900460ff165b15610b8f57600054610b8f906001600160a01b0388811691168461110d565b60408051848152602081018490529081018290526001600160a01b03808a169133918c16907f945cec88709e1f9a217b85981941f33ca418b1b1088d698f3e2028d9bf503abb9060600160405180910390a450506001805550505050505050565b600260015403610c125760405162461bcd60e51b8152600401610457906118a9565b6002600155610c1f61126a565b6001600160a01b038116610c455760405162461bcd60e51b8152600401610457906118d1565b60003411610c805760405162461bcd60e51b81526020600482015260086024820152676e6f2076616c756560c01b6044820152606401610457565b600080610c8c346112da565b91509150610c9a8382610e60565b600082118015610cb35750600054600160b01b900460ff165b15610cce57600054610cce906001600160a01b031683610e60565b60408051348152602081018490529081018290526001600160a01b0384169033906000907f945cec88709e1f9a217b85981941f33ca418b1b1088d698f3e2028d9bf503abb9060600160405180910390a450506001805550565b610d30610e05565b6001600160a01b038116610d775760405162461bcd60e51b815260206004820152600e60248201526d0666565526563697069656e743d360941b6044820152606401610457565b600080546001600160a01b038381166001600160a01b0319831681178455604051919092169283917faaebcf1bfa00580e41d966056b48521fa9f202645c86d4ddf28113e617c1b1d39190a35050565b610dcf610e05565b6001600160a01b038116610df957604051631e4fbdf760e01b815260006004820152602401610457565b610e02816111b0565b50565b33610e377f9016d09d72d40fdae2fd8ceac6b6234c7706214fd39c1cd1e609a0528c199300546001600160a01b031690565b6001600160a01b0316146105e75760405163118cdaa760e01b8152336004820152602401610457565b6000826001600160a01b03168260405160006040518083038185875af1925050503d8060008114610ead576040519150601f19603f3d011682016040523d82523d6000602084013e610eb2565b606091505b5050905080610ef55760405162461bcd60e51b815260206004820152600f60248201526e195d1a081cd95b990819985a5b1959608a1b6044820152606401610457565b505050565b610f02611332565b6000805160206119a7833981519152805460ff191681557f5db9ee0a495bf2e6ff9c91a7834c1ba4fdd244a5e8aa4e537bd38aeae4b073aa335b6040516001600160a01b03909116815260200160405180910390a150565b306001600160a01b037f0000000000000000000000000000000000000000000000000000000000000000161480610fe157507f00000000000000000000000000000000000000000000000000000000000000006001600160a01b0316610fd5600080516020611987833981519152546001600160a01b031690565b6001600160a01b031614155b156105e75760405163703e46dd60e11b815260040160405180910390fd5b610e02610e05565b816001600160a01b03166352d1902d6040518163ffffffff1660e01b8152600401602060405180830381865afa925050508015611061575060408051601f3d908101601f1916820190925261105e918101906118ef565b60015b61108957604051634c9c8ce360e01b81526001600160a01b0383166004820152602401610457565b60008051602061198783398151915281146110ba57604051632a87526960e21b815260048101829052602401610457565b610ef58383611362565b306001600160a01b037f000000000000000000000000000000000000000000000000000000000000000016146105e75760405163703e46dd60e11b815260040160405180910390fd5b6040516001600160a01b03838116602483015260448201839052610ef591859182169063a9059cbb906064015b604051602081830303815290604052915060e01b6020820180516001600160e01b0383818316178352505050506113b8565b6000807ff0c57e16840df040f15088dc2f81fe391c3923bec73e23a9662efc9c229c6a005b92915050565b61119f611429565b610e028161144e565b6105e7611429565b7f9016d09d72d40fdae2fd8ceac6b6234c7706214fd39c1cd1e609a0528c19930080546001600160a01b031981166001600160a01b03848116918217845560405192169182907f8be0079c531659141344cd1fd0a4f28419497f9722a3daafe3b4186f6b6457e090600090a3505050565b61122961126a565b6000805160206119a7833981519152805460ff191660011781557f62e78cea01bee320cd4e420270b5ea74000d11b0c9f74754ebdbfc544b05a25833610f3c565b6000805160206119a78339815191525460ff16156105e75760405163d93c066560e01b815260040160405180910390fd5b6040516001600160a01b0384811660248301528381166044830152606482018390526112d49186918216906323b872dd9060840161113a565b50505050565b600080548190600160a01b900461ffff1681036112f957506000929050565b6000546127109061131590600160a01b900461ffff1685611931565b61131f9190611948565b915061132b828461191e565b9050915091565b6000805160206119a78339815191525460ff166105e757604051638dfc202b60e01b815260040160405180910390fd5b61136b82611456565b6040516001600160a01b038316907fbc7cd75a20ee27fd9adebab32041f755214dbc6bffa90cc0225b39da2e5c2d3b90600090a28051156113b057610ef582826114bb565b610604611531565b600080602060008451602086016000885af1806113db576040513d6000823e3d81fd5b50506000513d915081156113f3578060011415611400565b6001600160a01b0384163b155b156112d457604051635274afe760e01b81526001600160a01b0385166004820152602401610457565b611431611550565b6105e757604051631afcd79f60e31b815260040160405180910390fd5b610dcf611429565b806001600160a01b03163b60000361148c57604051634c9c8ce360e01b81526001600160a01b0382166004820152602401610457565b60008051602061198783398151915280546001600160a01b0319166001600160a01b0392909216919091179055565b6060600080846001600160a01b0316846040516114d8919061196a565b600060405180830381855af49150503d8060008114611513576040519150601f19603f3d011682016040523d82523d6000602084013e611518565b606091505b509150915061152885838361156a565b95945050505050565b34156105e75760405163b398979f60e01b815260040160405180910390fd5b600061155a61116c565b54600160401b900460ff16919050565b60608261157f5761157a826115c9565b6115c2565b815115801561159657506001600160a01b0384163b155b156115bf57604051639996b31560e01b81526001600160a01b0385166004820152602401610457565b50805b9392505050565b8051156115d857805160208201fd5b60405163d6bda27560e01b815260040160405180910390fd5b803561ffff8116811461160357600080fd5b919050565b60006020828403121561161a57600080fd5b6115c2826115f1565b8035801515811461160357600080fd5b60006020828403121561164557600080fd5b6115c282611623565b6001600160a01b0381168114610e0257600080fd5b6000806040838503121561167657600080fd5b8235915060208301356116888161164e565b809150509250929050565b634e487b7160e01b600052604160045260246000fd5b600080604083850312156116bc57600080fd5b82356116c78161164e565b9150602083013567ffffffffffffffff808211156116e457600080fd5b818501915085601f8301126116f857600080fd5b81358181111561170a5761170a611693565b604051601f8201601f19908116603f0116810190838211818310171561173257611732611693565b8160405282815288602084870101111561174b57600080fd5b8260208601602083013760006020848301015280955050505050509250929050565b60008060006060848603121561178257600080fd5b833561178d8161164e565b92506020840135915060408401356117a48161164e565b809150509250925092565b6000806000606084860312156117c457600080fd5b83356117cf8161164e565b92506117dd602085016115f1565b91506117eb60408501611623565b90509250925092565b60008060006060848603121561180957600080fd5b83356118148161164e565b925060208401356118248161164e565b929592945050506040919091013590565b60005b83811015611850578181015183820152602001611838565b50506000910152565b6020815260008251806020840152611878816040850160208701611835565b601f01601f19169190910160400192915050565b60006020828403121561189e57600080fd5b81356115c28161164e565b6020808252600e908201526d1c99595b9d1c985b9d0818d85b1b60921b604082015260600190565b6020808252600490820152630746f3d360e41b604082015260600190565b60006020828403121561190157600080fd5b5051919050565b634e487b7160e01b600052601160045260246000fd5b8181038181111561119157611191611908565b808202811582820484141761119157611191611908565b60008261196557634e487b7160e01b600052601260045260246000fd5b500490565b6000825161197c818460208701611835565b919091019291505056fe360894a13ba1a3210667c828492db98dca3e2076cc3735a920a3ca505d382bbccd5ed15c6e187e77e9aee88184c21f4f2182ab5827cb3b7e07fbedcd63f03300a26469706673582212201e4224814177cc7d8ca7e244882c191dde0e98cbf74fc5ae885520de0705ec2f64736f6c63430008180033","linkReferences":{}},"methodIdentifiers":{"MAX_FEE_BPS()":"d55be8c6","UPGRADE_INTERFACE_VERSION()":"ad3cb1cc","feeBps()":"24a9d853","feeRecipient()":"46904840","forwardImmediately()":"63df1e3c","initialize(address,uint16,bool)":"681544fb","owner()":"8da5cb5b","pause()":"8456cb59","paused()":"5c975abb","proxiableUUID()":"52d1902d","renounceOwnership()":"715018a6","setFeeBps(uint16)":"023b1fc9","setFeeRecipient(address)":"e74b981b","setForwardMode(bool)":"0ea2a407","transferERC20(address,address,uint256)":"9db5dbe4","transferETH(address)":"d50f6bf0","transferOwnership(address)":"f2fde38b","unpause()":"3f4ba83a","upgradeToAndCall(address,bytes)":"4f1ef286","withdrawERC20(address,uint256,address)":"5fc3ea0b","withdrawETH(uint256,address)":"36118b52"},"id":52}