{"abi":[{"type":"constructor","inputs":[{"name":"admin","type":"address","internalType":"address"},{"name":"initialGameSigner","type":"address","internalType":"address"},{"name":"registryProxy","type":"address","internalType":"address"},{"name":"gameId_","type":"uint256","internalType":"uint256"}],"stateMutability":"nonpayable"},{"type":"function","name":"DEFAULT_ADMIN_ROLE","inputs":[],"outputs":[{"name":"","type":"bytes32","internalType":"bytes32"}],"stateMutability":"view"},{"type":"function","name":"GAME_ID","inputs":[],"outputs":[{"name":"","type":"uint256","internalType":"uint256"}],"stateMutability":"view"},{"type":"function","name":"REGISTRY","inputs":[],"outputs":[{"name":"","type":"address","internalType":"contract IXPRegistry"}],"stateMutability":"view"},{"type":"function","name":"RESULT_TYPEHASH","inputs":[],"outputs":[{"name":"","type":"bytes32","internalType":"bytes32"}],"stateMutability":"view"},{"type":"function","name":"domainSeparator","inputs":[],"outputs":[{"name":"","type":"bytes32","internalType":"bytes32"}],"stateMutability":"view"},{"type":"function","name":"eip712Domain","inputs":[],"outputs":[{"name":"fields","type":"bytes1","internalType":"bytes1"},{"name":"name","type":"string","internalType":"string"},{"name":"version","type":"string","internalType":"string"},{"name":"chainId","type":"uint256","internalType":"uint256"},{"name":"verifyingContract","type":"address","internalType":"address"},{"name":"salt","type":"bytes32","internalType":"bytes32"},{"name":"extensions","type":"uint256[]","internalType":"uint256[]"}],"stateMutability":"view"},{"type":"function","name":"gameId","inputs":[],"outputs":[{"name":"","type":"uint256","internalType":"uint256"}],"stateMutability":"view"},{"type":"function","name":"gameSigner","inputs":[],"outputs":[{"name":"","type":"address","internalType":"address"}],"stateMutability":"view"},{"type":"function","name":"getRoleAdmin","inputs":[{"name":"role","type":"bytes32","internalType":"bytes32"}],"outputs":[{"name":"","type":"bytes32","internalType":"bytes32"}],"stateMutability":"view"},{"type":"function","name":"grantRole","inputs":[{"name":"role","type":"bytes32","internalType":"bytes32"},{"name":"account","type":"address","internalType":"address"}],"outputs":[],"stateMutability":"nonpayable"},{"type":"function","name":"hasRole","inputs":[{"name":"role","type":"bytes32","internalType":"bytes32"},{"name":"account","type":"address","internalType":"address"}],"outputs":[{"name":"","type":"bool","internalType":"bool"}],"stateMutability":"view"},{"type":"function","name":"hashResult","inputs":[{"name":"result","type":"tuple","internalType":"struct CoinFlipGame.Result","components":[{"name":"user","type":"address","internalType":"address"},{"name":"gameId","type":"uint256","internalType":"uint256"},{"name":"sessionId","type":"uint64","internalType":"uint64"},{"name":"guess","type":"uint8","internalType":"uint8"},{"name":"outcome","type":"uint8","internalType":"uint8"},{"name":"wager","type":"uint256","internalType":"uint256"},{"name":"multiplierX100","type":"uint256","internalType":"uint256"},{"name":"xp","type":"uint256","internalType":"uint256"},{"name":"deadline","type":"uint256","internalType":"uint256"}]}],"outputs":[{"name":"","type":"bytes32","internalType":"bytes32"}],"stateMutability":"view"},{"type":"function","name":"pause","inputs":[],"outputs":[],"stateMutability":"nonpayable"},{"type":"function","name":"paused","inputs":[],"outputs":[{"name":"","type":"bool","internalType":"bool"}],"stateMutability":"view"},{"type":"function","name":"renounceRole","inputs":[{"name":"role","type":"bytes32","internalType":"bytes32"},{"name":"callerConfirmation","type":"address","internalType":"address"}],"outputs":[],"stateMutability":"nonpayable"},{"type":"function","name":"revokeRole","inputs":[{"name":"role","type":"bytes32","internalType":"bytes32"},{"name":"account","type":"address","internalType":"address"}],"outputs":[],"stateMutability":"nonpayable"},{"type":"function","name":"sessionKey","inputs":[{"name":"user","type":"address","internalType":"address"},{"name":"gameId_","type":"uint256","internalType":"uint256"},{"name":"sessionId","type":"uint64","internalType":"uint64"}],"outputs":[{"name":"","type":"bytes32","internalType":"bytes32"}],"stateMutability":"pure"},{"type":"function","name":"sessionUsed","inputs":[{"name":"","type":"bytes32","internalType":"bytes32"}],"outputs":[{"name":"","type":"bool","internalType":"bool"}],"stateMutability":"view"},{"type":"function","name":"setGameSigner","inputs":[{"name":"newSigner","type":"address","internalType":"address"}],"outputs":[],"stateMutability":"nonpayable"},{"type":"function","name":"setVault","inputs":[{"name":"newVault","type":"address","internalType":"address"}],"outputs":[],"stateMutability":"nonpayable"},{"type":"function","name":"submitResultAndClaimXP","inputs":[{"name":"result","type":"tuple","internalType":"struct CoinFlipGame.Result","components":[{"name":"user","type":"address","internalType":"address"},{"name":"gameId","type":"uint256","internalType":"uint256"},{"name":"sessionId","type":"uint64","internalType":"uint64"},{"name":"guess","type":"uint8","internalType":"uint8"},{"name":"outcome","type":"uint8","internalType":"uint8"},{"name":"wager","type":"uint256","internalType":"uint256"},{"name":"multiplierX100","type":"uint256","internalType":"uint256"},{"name":"xp","type":"uint256","internalType":"uint256"},{"name":"deadline","type":"uint256","internalType":"uint256"}]},{"name":"resultSignature","type":"bytes","internalType":"bytes"},{"name":"xpDeadline","type":"uint256","internalType":"uint256"},{"name":"xpSignature","type":"bytes","internalType":"bytes"}],"outputs":[],"stateMutability":"nonpayable"},{"type":"function","name":"supportsInterface","inputs":[{"name":"interfaceId","type":"bytes4","internalType":"bytes4"}],"outputs":[{"name":"","type":"bool","internalType":"bool"}],"stateMutability":"view"},{"type":"function","name":"unpause","inputs":[],"outputs":[],"stateMutability":"nonpayable"},{"type":"function","name":"vault","inputs":[],"outputs":[{"name":"","type":"address","internalType":"contract ICoinFlipVault"}],"stateMutability":"view"},{"type":"event","name":"EIP712DomainChanged","inputs":[],"anonymous":false},{"type":"event","name":"GameSignerUpdated","inputs":[{"name":"previousSigner","type":"address","indexed":true,"internalType":"address"},{"name":"newSigner","type":"address","indexed":true,"internalType":"address"}],"anonymous":false},{"type":"event","name":"Paused","inputs":[{"name":"account","type":"address","indexed":false,"internalType":"address"}],"anonymous":false},{"type":"event","name":"ResultAccepted","inputs":[{"name":"user","type":"address","indexed":true,"internalType":"address"},{"name":"sessionId","type":"uint64","indexed":true,"internalType":"uint64"},{"name":"outcome","type":"uint8","indexed":false,"internalType":"uint8"},{"name":"xp","type":"uint256","indexed":false,"internalType":"uint256"}],"anonymous":false},{"type":"event","name":"RoleAdminChanged","inputs":[{"name":"role","type":"bytes32","indexed":true,"internalType":"bytes32"},{"name":"previousAdminRole","type":"bytes32","indexed":true,"internalType":"bytes32"},{"name":"newAdminRole","type":"bytes32","indexed":true,"internalType":"bytes32"}],"anonymous":false},{"type":"event","name":"RoleGranted","inputs":[{"name":"role","type":"bytes32","indexed":true,"internalType":"bytes32"},{"name":"account","type":"address","indexed":true,"internalType":"address"},{"name":"sender","type":"address","indexed":true,"internalType":"address"}],"anonymous":false},{"type":"event","name":"RoleRevoked","inputs":[{"name":"role","type":"bytes32","indexed":true,"internalType":"bytes32"},{"name":"account","type":"address","indexed":true,"internalType":"address"},{"name":"sender","type":"address","indexed":true,"internalType":"address"}],"anonymous":false},{"type":"event","name":"SessionConsumed","inputs":[{"name":"key","type":"bytes32","indexed":true,"internalType":"bytes32"}],"anonymous":false},{"type":"event","name":"Unpaused","inputs":[{"name":"account","type":"address","indexed":false,"internalType":"address"}],"anonymous":false},{"type":"event","name":"VaultUpdated","inputs":[{"name":"previousVault","type":"address","indexed":true,"internalType":"address"},{"name":"newVault","type":"address","indexed":true,"internalType":"address"}],"anonymous":false},{"type":"error","name":"AccessControlBadConfirmation","inputs":[]},{"type":"error","name":"AccessControlUnauthorizedAccount","inputs":[{"name":"account","type":"address","internalType":"address"},{"name":"neededRole","type":"bytes32","internalType":"bytes32"}]},{"type":"error","name":"ECDSAInvalidSignature","inputs":[]},{"type":"error","name":"ECDSAInvalidSignatureLength","inputs":[{"name":"length","type":"uint256","internalType":"uint256"}]},{"type":"error","name":"ECDSAInvalidSignatureS","inputs":[{"name":"s","type":"bytes32","internalType":"bytes32"}]},{"type":"error","name":"EnforcedPause","inputs":[]},{"type":"error","name":"ExpectedPause","inputs":[]},{"type":"error","name":"InvalidResult","inputs":[]},{"type":"error","name":"InvalidShortString","inputs":[]},{"type":"error","name":"InvalidSignature","inputs":[]},{"type":"error","name":"InvalidVault","inputs":[]},{"type":"error","name":"ReentrancyGuardReentrantCall","inputs":[]},{"type":"error","name":"ResultExpired","inputs":[]},{"type":"error","name":"SessionAlreadyConsumed","inputs":[]},{"type":"error","name":"StringTooLong","inputs":[{"name":"str","type":"string","internalType":"string"}]}],"bytecode":{"object":"0x6101a03462000279576001600160401b0390601f62001bfa38819003918201601f19168301919084831184841017620002655781608092859260409586528339810103126200027957620000538262000299565b91620000626020820162000299565b9360606200007284840162000299565b9201519280519162000084836200027d565b600c835260208301956b436f696e466c697047616d6560a01b8752825197620000ad896200027d565b6001895260208901603160f81b815260ff19600154166001556001600255620000d68662000330565b98610120998a52620000e88b620004fc565b96610140978852519020998a60e0525190209861010099808b524660a05285519060208201927f8b73c3c69bb8fe3d512ecc4cf759cc79239f7b179b0ffacaa9a75d522b39400f84528783015260608201524660808201523060a082015260a0815260c08101948186109086111762000265578486525190206080523060c0526001600160a01b0382811693909190841580156200025a575b80156200024f575b62000241575090620001bb929181610160981688526101809889521660018060a01b03196005541617600555620002ae565b5033036200022f575b519361151f9586620006bb8739608051866110bf015260a0518661118a015260c05186611089015260e0518661110e01525185611134015251846103520152518361037c0152518281816108a80152610c1201525181818161053a01528181610a180152610d420152f35b6200023a33620002ae565b50620001c4565b62f8b33f60e71b8152600490fd5b508288161562000189565b508282161562000181565b634e487b7160e01b5f52604160045260245ffd5b5f80fd5b604081019081106001600160401b038211176200026557604052565b51906001600160a01b03821682036200027957565b6001600160a01b03165f8181525f8051602062001bda833981519152602052604090205460ff166200032b575f8181525f8051602062001bda83398151915260205260408120805460ff191660011790553391907f2f8788117e7eff1d82e926ec794901d17c78024a50270940304540a733656f0d8180a4600190565b505f90565b80516020919082811015620003cc575090601f8251116200036d57808251920151908083106200035f57501790565b825f19910360031b1b161790565b90604051809263305a27a960e01b82528060048301528251908160248401525f935b828510620003b2575050604492505f838284010152601f80199101168101030190fd5b84810182015186860160440152938101938593506200038f565b6001600160401b03811162000265576003928354926001938481811c91168015620004f1575b83821014620004dd57601f8111620004a7575b5081601f84116001146200044257509282939183925f9462000436575b50501b915f1990841b1c191617905560ff90565b015192505f8062000422565b919083601f198116875f52845f20945f905b888383106200048c575050501062000474575b505050811b01905560ff90565b01515f1983861b60f8161c191690555f808062000467565b85870151885590960195948501948793509081019062000454565b855f5284601f845f20920160051c820191601f860160051c015b828110620004d157505062000405565b5f8155018590620004c1565b634e487b7160e01b5f52602260045260245ffd5b90607f1690620003f2565b805160209190828110156200058a575090601f8251116200052b57808251920151908083106200035f57501790565b90604051809263305a27a960e01b82528060048301528251908160248401525f935b82851062000570575050604492505f838284010152601f80199101168101030190fd5b84810182015186860160440152938101938593506200054d565b6001600160401b03811162000265576004928354926001938481811c91168015620006af575b838210146200069c57601f811162000666575b5081601f84116001146200060157509282939183925f94620005f5575b50501b915f199060031b1c191617905560ff90565b015192505f80620005e0565b919083601f198116875f52845f20945f905b888383106200064b57505050106200063257505050811b01905560ff90565b01515f1960f88460031b161c191690555f808062000467565b85870151885590960195948501948793509081019062000613565b855f5284601f845f20920160051c820191601f860160051c015b82811062000690575050620005c3565b5f815501859062000680565b602286634e487b7160e01b5f525260245ffd5b90607f1690620005b056fe6080806040526004361015610012575f80fd5b5f803560e01c91826301ffc9a714610c415750816306433b1b14610bfd578163123f8e9f14610bc3578163248a9ca314610b975781632f2ff15d14610b5b57816336568abe14610b1257816337d01f7a14610aea5781633f4ba83a14610a535781635a20e1ad146106155781635c975abb146105f35781636817031b146104cb5781638456cb591461045c57816384b0196e1461033d57816391d14854146102f557816393510cce146102d9578163a217fddf146102be578163b75dbc3214610290578163ceaced9214610254578163d547741f14610214578163d7c81b5514610126578163f698da25146101f2578163f6c4c1f214610156578163fbfa77cf1461012b575063fdcdb06b14610126575f80fd5b610d2b565b346101535780600319360112610153576006546040516001600160a01b039091168152602090f35b80fd5b346101535760203660031901126101535761016f610caa565b8180528160205260408220335f5260205260ff60405f205416156101e1576001600160a01b039081169081156101e157600554826bffffffffffffffffffffffff60a01b821617600555167f95bf77405dc98a9827fe9646d660121020e20cf0915f7a9bb43ef9ad22e9858c8380a380f35b60405162f8b33f60e71b8152600490fd5b34610153578060031936011261015357602061020c611086565b604051908152f35b3461015357604036600319011261015357610250600435610233610c94565b908084528360205261024b6001604086200154610e46565b610f01565b5080f35b346101535760603660031901126101535761026d610caa565b604435916001600160401b038316830361015357602061020c8460243585610e00565b346101535760203660031901126101535760ff60406020926004358152600784522054166040519015158152f35b34610153578060031936011261015357602090604051908152f35b346101535761012036600319011261015357602061020c610f91565b34610153576040366003190112610153576040610310610c94565b91600435815280602052209060018060a01b03165f52602052602060ff60405f2054166040519015158152f35b346101535780600319360112610153576103767f000000000000000000000000000000000000000000000000000000000000000061126d565b906103a07f0000000000000000000000000000000000000000000000000000000000000000611394565b906040519060209060208301938385106001600160401b038611176104485792849260206103fe88966103f098604052858552604051988998600f60f81b8a5260e0858b015260e08a0190610ced565b9088820360408a0152610ced565b924660608801523060808801528460a088015286840360c088015251928381520193925b82811061043157505050500390f35b835185528695509381019392810192600101610422565b634e487b7160e01b5f52604160045260245ffd5b346101535780600319360112610153578080528060205260408120335f5260205260ff60405f205416156101e157610492610f73565b600160ff19815416176001557f62e78cea01bee320cd4e420270b5ea74000d11b0c9f74754ebdbfc544b05a2586020604051338152a180f35b34610153576020806003193601126105ef576104e5610caa565b82805282825260408320335f52825260ff60405f205416156101e1576001600160a01b039081169182156105a05760405163d7c81b5560e01b81528181600481875afa9182156105e45785926105b2575b50507f0000000000000000000000000000000000000000000000000000000000000000036105a057600654826bffffffffffffffffffffffff60a01b821617600655167f483bdedaaf23706a9800ac1af0d852b34927780d79f9d6ba60a80c7cad75ea398380a380f35b604051630681d31960e51b8152600490fd5b90809250813d83116105dd575b6105c98183610ddf565b810103126105d957518480610536565b8380fd5b503d6105bf565b6040513d87823e3d90fd5b5080fd5b34610153578060031936011261015357602060ff600154166040519015158152f35b3461099d573660031901610180811261099d576101201361099d57610124356001600160401b03811161099d57610650903690600401610cc0565b610164929192356001600160401b03811161099d57610673903690600401610cc0565b93909161067e610f73565b6002805414610a4157600280556001600160a01b0361069b610d65565b16158015610a15575b8015610a0b575b80156109e3575b6101e15761010435421180156109d7575b6109c5576106e46106d2610d65565b6106da610d9b565b9060243590610e00565b91825f52600760205260ff60405f2054166109b357610701610f91565b6001600160401b0383116104485760405190610727601f8501601f191660200183610ddf565b838252368484011161099d575f6020856107559661074c9683870137840101526111b0565b909291926111ea565b6005546001600160a01b039081169116036109a157805f52600760205260405f20600160ff19825416179055604051907f3a7183231e66566c6b2b23b548622350178be0897a7db09e0ebbc5fb9b017a675f80a26107b1610d65565b907fd490d6e80d649e85430fe3665ac06aa6f801f417dba3d512d0bf5c58d606c23560406001600160401b036107e5610d9b565b60ff6107ef610d7b565b16855260e435602086015216936001600160a01b031692a36006546001600160a01b031680156105a057610821610d65565b9061082a610d9b565b610832610d7b565b61083a610d8b565b93833b1561099d575f809460ff6001600160401b03978160c4966040519a8b998a9863f0e18def60e01b8a5260018060a01b031660048a01521660248801526024356044880152873560648801521660848601521660a48401525af180156109925761097f575b50909182917f00000000000000000000000000000000000000000000000000000000000000006001600160a01b03166108d8610d65565b90803b1561097b5784928360c4869460405197889687958693635f1befb360e11b855260018060a01b03166004850152602435602485015260e435604485015261014435606485015260a060848501528160a4850152848401378181018301849052601f01601f191681010301925af180156109705761095c575b50600160025580f35b61096590610db1565b610153578082610953565b6040513d84823e3d90fd5b8480fd5b61098a919250610db1565b5f90836108a1565b6040513d5f823e3d90fd5b5f80fd5b604051638baa579f60e01b8152600490fd5b604051630205868160e61b8152600490fd5b6040516322cafab360e01b8152600490fd5b506101443542116106c3565b50600160ff6109f0610d7b565b1611806106b25750600160ff610a04610d8b565b16116106b2565b5060e435156106ab565b507f000000000000000000000000000000000000000000000000000000000000000060243514156106a4565b604051633ee5aeb560e01b8152600490fd5b3461099d575f36600319011261099d57335f9081527fad3228b676f7d3cd4284a5443f17f1962b36e491b30a40b2405849e597ba5fb5602052604090205460ff16156101e15760015460ff811615610ad85760ff19166001557f5db9ee0a495bf2e6ff9c91a7834c1ba4fdd244a5e8aa4e537bd38aeae4b073aa6020604051338152a1005b604051638dfc202b60e01b8152600490fd5b3461099d575f36600319011261099d576005546040516001600160a01b039091168152602090f35b3461099d57604036600319011261099d57610b2b610c94565b336001600160a01b03821603610b4957610b4790600435610f01565b005b60405163334bd91960e11b8152600490fd5b3461099d57604036600319011261099d57610b47600435610b7a610c94565b90805f525f602052610b92600160405f200154610e46565b610e85565b3461099d57602036600319011261099d576004355f525f6020526020600160405f200154604051908152f35b3461099d575f36600319011261099d5760206040517f15eeaca97756b1f1e878edda45612c51fa8a772ff8ba9ef5da48e7c3ec6b56518152f35b3461099d575f36600319011261099d576040517f00000000000000000000000000000000000000000000000000000000000000006001600160a01b03168152602090f35b3461099d57602036600319011261099d576004359063ffffffff60e01b821680920361099d57602091637965db0b60e01b8114908115610c83575b5015158152f35b6301ffc9a760e01b14905083610c7c565b602435906001600160a01b038216820361099d57565b600435906001600160a01b038216820361099d57565b9181601f8401121561099d578235916001600160401b03831161099d576020838186019501011161099d57565b91908251928382525f5b848110610d17575050825f602080949584010152601f8019910116010190565b602081830181015184830182015201610cf7565b3461099d575f36600319011261099d5760206040517f00000000000000000000000000000000000000000000000000000000000000008152f35b6004356001600160a01b038116810361099d5790565b60843560ff8116810361099d5790565b60643560ff8116810361099d5790565b6044356001600160401b038116810361099d5790565b6001600160401b03811161044857604052565b604081019081106001600160401b0382111761044857604052565b90601f801991011681019081106001600160401b0382111761044857604052565b9160405191602083019360018060a01b0316845260408301526001600160401b038091166060830152606082526080820190828210908211176104485760405251902090565b805f525f60205260405f20335f5260205260ff60405f20541615610e675750565b6044906040519063e2517d3f60e01b82523360048301526024820152fd5b90815f525f60205260405f209060018060a01b031690815f5260205260ff60405f205416155f14610efb57815f525f60205260405f20815f5260205260405f20600160ff1982541617905533917f2f8788117e7eff1d82e926ec794901d17c78024a50270940304540a733656f0d5f80a4600190565b50505f90565b90815f525f60205260405f209060018060a01b031690815f5260205260ff60405f2054165f14610efb57815f525f60205260405f20815f5260205260405f2060ff19815416905533917ff6391f5c32d9c69d2a47ea670b442974b53935d1edc7fd64eb21e047a839171b5f80a4600190565b60ff60015416610f7f57565b60405163d93c066560e01b8152600490fd5b6004356001600160a01b0381169081900361099d57604435906001600160401b039182811680910361099d5760643560ff811680910361099d576084359060ff821680920361099d576040519260208401947f15eeaca97756b1f1e878edda45612c51fa8a772ff8ba9ef5da48e7c3ec6b5651865260408501526024356060850152608084015260a083015260c082015260a43560e082015260c43561010082015260e43561012082015261014061010435818301528152610160810192818410908411176104485760429260405251902061106b611086565b906040519161190160f01b8352600283015260228201522090565b307f00000000000000000000000000000000000000000000000000000000000000006001600160a01b03161480611187575b156110e1577f000000000000000000000000000000000000000000000000000000000000000090565b60405160208101907f8b73c3c69bb8fe3d512ecc4cf759cc79239f7b179b0ffacaa9a75d522b39400f82527f000000000000000000000000000000000000000000000000000000000000000060408201527f000000000000000000000000000000000000000000000000000000000000000060608201524660808201523060a082015260a0815260c081018181106001600160401b038211176104485760405251902090565b507f000000000000000000000000000000000000000000000000000000000000000046146110b8565b81519190604183036111e0576111d99250602082015190606060408401519301515f1a90611467565b9192909190565b50505f9160029190565b600481101561125957806111fc575050565b600181036112165760405163f645eedf60e01b8152600490fd5b600281036112375760405163fce698f760e01b815260048101839052602490fd5b6003146112415750565b602490604051906335e2f38360e21b82526004820152fd5b634e487b7160e01b5f52602160045260245ffd5b60ff81146112ab5760ff811690601f8211611299576040519161128f83610dc4565b8252602082015290565b604051632cd44ac360e21b8152600490fd5b506040515f600354906001908260011c6001841692831561138a575b602094858310851461137657828752869490811561135657506001146112f9575b50506112f692500382610ddf565b90565b9093915060035f527fc2575a0e9e593c00f959f8c92f12db2869c3395a3b0502d05e2516446f71f85b935f915b81831061133e5750506112f693508201015f806112e8565b85548784018501529485019486945091830191611326565b9150506112f694925060ff191682840152151560051b8201015f806112e8565b634e487b7160e01b5f52602260045260245ffd5b90607f16906112c7565b60ff81146113b65760ff811690601f8211611299576040519161128f83610dc4565b506040515f600454906001908260011c6001841692831561145d575b602094858310851461137657828752869490811561135657506001146114005750506112f692500382610ddf565b9093915060045f527f8a35acfbc15ff81a39ae7d344fd709f28e8600b4aa8c65c6b64bfe7fe36bd19b935f915b8183106114455750506112f693508201015f806112e8565b8554878401850152948501948694509183019161142d565b90607f16906113d2565b91907f7fffffffffffffffffffffffffffffff5d576e7357a4501ddfe92f46681b20a084116114de579160209360809260ff5f9560405194855216868401526040830152606082015282805260015afa15610992575f516001600160a01b038116156114d457905f905f90565b505f906001905f90565b5050505f916003919056fea264697066735822122069ac69a78f04ef526e35e270c6ad37312efda7d2fdb6e33767280947033dd3b364736f6c63430008180033ad3228b676f7d3cd4284a5443f17f1962b36e491b30a40b2405849e597ba5fb5","linkReferences":{}},"methodIdentifiers":{"DEFAULT_ADMIN_ROLE()":"a217fddf","GAME_ID()":"fdcdb06b","REGISTRY()":"06433b1b","RESULT_TYPEHASH()":"123f8e9f","domainSeparator()":"f698da25","eip712Domain()":"84b0196e","gameId()":"d7c81b55","gameSigner()":"37d01f7a","getRoleAdmin(bytes32)":"248a9ca3","grantRole(bytes32,address)":"2f2ff15d","hasRole(bytes32,address)":"91d14854","hashResult((address,uint256,uint64,uint8,uint8,uint256,uint256,uint256,uint256))":"93510cce","pause()":"8456cb59","paused()":"5c975abb","renounceRole(bytes32,address)":"36568abe","revokeRole(bytes32,address)":"d547741f","sessionKey(address,uint256,uint64)":"ceaced92","sessionUsed(bytes32)":"b75dbc32","setGameSigner(address)":"f6c4c1f2","setVault(address)":"6817031b","submitResultAndClaimXP((address,uint256,uint64,uint8,uint8,uint256,uint256,uint256,uint256),bytes,uint256,bytes)":"5a20e1ad","supportsInterface(bytes4)":"01ffc9a7","unpause()":"3f4ba83a","vault()":"fbfa77cf"},"id":54}